:020000040800F2
:10000000980700204D02000821200008811D0008EB
:100010001D2000088D050008B92800080000000018
:100020000000000000000000000000002720000881
:10003000B105000800000000252000082920000864
:1000400067020008670200086702000867020008EC
:1000500067020008670200086702000867020008DC
:10006000B30500086702000867020008670200087D
:1000700067020008670200086702000867020008BC
:1000800067020008670200086702000867020008AC
:10009000670200086702000867020008670200089C
:1000A000670200086702000867020008670200088C
:1000B00001210008670200086702000867020008C3
:1000C000670200086702000867020008670200086C
:1000D000670200086702000867020008670200085C
:1000E0006702000867020008670200081121000883
:1000F000670200086702000867020008670200083C
:10010000670200086702000867020008670200082B
:10011000670200086702000867020008670200081B
:10012000670200086702000867020008670200080B
:1001300067020008670200086702000867020008FB
:1001400067020008670200086702000867020008EB
:10015000670200086702000867020008A12800087B
:1001600067020008670200086702000867020008CB
:10017000670200086702000867020008000000002C
:1001800067020008670200086702000867020008AB
:10019000670200086702000867020008670200089B
:1001A00000000000000000006702000800F002F8F4
:1001B00000F03CF80AA090E8000C82448344AAF1C5
:1001C0000107DA4501D100F031F8AFF2090EBAE8C3
:1001D0000F0013F0010F18BFFB1A43F0010318477B
:1001E0005827000078270000103A24BF78C878C14B
:1001F000FAD8520724BF30C830C144BF04680C602D
:10020000704700000023002400250026103A28BF74
:1002100078C1FBD8520728BF30C148BF0B60704778
:100220001FB502F077FB1FBD10B510BD00F0CFF871
:100230001146FFF7F5FF02F05DFB00F0EDF803B4A7
:10024000FFF7F2FF03BC00F0F5F800000948804713
:1002500009480047FEE7FEE7FEE7FEE7FEE7FEE7A8
:10026000FEE7FEE7FEE7FEE704480549054A064BC0
:1002700070470000ED200008AD0100089801002043
:1002800098070020980300209803002053EA020CEE
:1002900000F069802DE9F04B4FF00006002B1FBFE6
:1002A000B3FA83F503FA05F424FA05F65E4012BFAB
:1002B0001643B2FA82F502FA05F4C5F120051EBF15
:1002C00022FA05FC44EA0C04203556EA044C4FEAB5
:1002D000144418BF641C4FF000084FF0000990420E
:1002E00071EB030C39D3002919BFB1FA81F701FA78
:1002F00007F6B0FA80F700FA07F6C7F120071EBF2D
:1003000020FA07FC46EA0C062037B6FBF4FCA7EB04
:100310000507103F07F01F0BCBF120060CFA0BFB73
:100320002CFA06F644BFB3460026202FA4BF5E4633
:100330004FF0000B5BEA060C08BF4FF0010B19EB06
:100340000B09ABFB027C48EB0608C01B06FB02CC8A
:100350000BFB03CC71EB0C01C1E70B460246414697
:100360004846BDE8F08B13B54FF000004FF0000198
:10037000AFF30080BDE81C4070474FF0000200B5AD
:10038000134694469646203922BFA0E80C50A0E8B8
:100390000C50B1F12001BFF4F7AF090728BFA0E866
:1003A0000C5048BF0CC05DF804EB890028BF40F832
:1003B000042B08BF704748BF20F8022B11F0804F74
:1003C00018BF00F8012B704770477047704775469B
:1003D00000F02CF8AE4605006946534620F00700B1
:1003E000854618B020B5FFF73FFFBDE820404FF02D
:1003F00000064FF000074FF000084FF0000B21F00F
:100400000701AC46ACE8C009ACE8C009ACE8C009DB
:10041000ACE8C0098D46704710B50446AFF30080C4
:100420002046BDE81040FFF70ABF000000487047B3
:100430003401002001491820ABBEFEE7260002006F
:10044000704770B504460D4625600020A4F84400AE
:1004500084F8460084F847004021201DFFF78DFFF7
:1004600020680068C06840F0200021680968C86002
:100470000122211D206801F06BFC70BD10B50446FF
:1004800094F8460000283DD0B4F84400002839DD37
:1004900020793038052818D2DFE800F003070B0F69
:1004A0001300002084F847000FE0012084F8470083
:1004B0000BE0022084F8470007E0032084F847009F
:1004C00003E0042084F8470000BF00BFB4F84400F4
:1004D00002280EDDA079312802D0322808D103E0AD
:1004E000052084F8470003E0062084F8470000BF99
:1004F00000BF002084F84600A4F844004021201DDD
:10050000FFF73BFF10BD000070B50446206800688F
:10051000006800F02000202835D12068006840687D
:10052000C5B21948007810B101282BD10BE0242D59
:1005300008D194F8460028B901201349087000201A
:10054000A4F844001EE0232D09D1012084F84600C0
:1005500000200D4908702046FFF790FF11E0B4F825
:1005600044003F2808DA34F8441F2088401C24F84F
:100570004409201D455404E0002003490870A4F8F4
:10058000440000BF00BF70BD1100002000BFFEE7A7
:1005900010B5044800F050FF03490448FFF751FF2D
:1005A00010BD000014000020A4000020EC0000207A
:1005B000704710B5042000F07BF810BD72B600BF84
:1005C000FEE770B50446A56D00F098F9064694F86C
:1005D0003500022808D08020606500BF002084F824
:1005E000340000BF012070BD2068006820F01600B4
:1005F000216808602068406920F080002168486117
:10060000206C08B9A06C28B12068006820F00800B0
:10061000216808602068006820F0010021680860F7
:1006200010E000F06BF9801B05280BD920206065D5
:10063000032084F8350000BF002084F8340000BF98
:100640000320D0E72068006800F001000028E8D10E
:1006500094F85C103F208840A860012084F83500A1
:1006600000BF002084F8340000BF00BFBBE7014694
:1006700091F83500022803D080204865012070479A
:10068000052081F835000868006820F001000A683C
:1006900010600020F3E7000010B50446042C03D1DD
:1006A0000221024800F01AF910BD000000180240B3
:1006B00010B5044604480068204020B10248046098
:1006C0002046FFF7E9FF10BD143C0140F8B5024693
:1006D0000B460025002400200021E0E0012606FA58
:1006E00001F51E6806EA0504AC4274D11E7906F0D5
:1006F0000306012E04D01E7906F00306022E13D144
:1007000090684F000326BE40B0434F00DE68BE40F5
:1007100030439060506801268E40B0431E79C6F386
:1007200000168E40304350601E7906F00306032EFB
:1007300009D0D0684F000326BE40B0434F009E68EA
:10074000BE403043D0601E7906F00306022E13D15E
:10075000CF0802F1200656F827004E07F70E0F26A5
:10076000BE40B0434F07FF0E1E69BE403043CF0866
:1007700002F1200646F8270010684F000326BE400D
:10078000B0431E7906F003064F00BE4030431060B0
:100790005E6806F44036002E1DD000BF002600968D
:1007A000414E366846F480463F4F3E603E463668CE
:1007B00006F48046009600BF00BF3C4E8F0856F8F6
:1007C00027008E07370F0F26BE40B043384EB24287
:1007D00002D100262EE061E0364EB24201D1012660
:1007E00028E0354EB24201D1022623E0334EB24218
:1007F00001D103261EE0324EB24201D1042619E097
:10080000304EB24201D1052614E02F4EB24201D142
:1008100006260FE02D4EB24201D107260AE02C4EEB
:10082000B24201D1082605E02A4EB24201D1092682
:1008300000E00A268F073F0FBE4030431B4E8F0853
:1008400046F82700244E3068A0435E6806F4801600
:1008500006B12043204E3060361D3068A0435E68EC
:1008600006F4001606B120431B4E361D30601A4EAA
:10087000361F3068A0435E6806F4003606B1204398
:10088000154E361F3060361F3068A0435E6806F490
:10089000803606B12043104E083E3060491C1029B6
:1008A000FFF41CAFF8BD0000443802400838014096
:1008B000000002400004024000080240000C024018
:1008C000001002400014024000180240001C0240C8
:1008D0000020024000240240083C014010B542695B
:1008E00021EA020302EA010443EA0443836110BDE2
:1008F0000AB1816101E00B0483617047014800681F
:100900007047000000000020034800680349097890
:1009100008440149086070470000002008000020DA
:1009200010B50D48006840F400700B490860084697
:10093000006840F4806008600846006840F48070F9
:100940000860032000F0A6F80F2000F007F800F080
:100950002BF8002010BD0000003C024070B504469A
:100960000E4800784FF47A71B1FBF0F00C49096839
:10097000B1FBF0F5284600F075FC08B1012070BD10
:10098000102C07D200222146501E00F045F80548E1
:10099000046001E00120F2E70020F0E708000020F9
:1009A0000C0000200400002008B500BF00200090CB
:1009B0000E48006840F480400C4908600846006812
:1009C00000F48040009000BF00BF00BF00200090F6
:1009D000081F006840F08050091F08600846006842
:1009E00000F08050009000BF00BF08BD44380240B6
:1009F0000146084600280DDB00BF00BF00F01F03C2
:100A000001229A4043099B0003F1E023C3F800212F
:100A100000BF00BF00BF70472DE9F05F80460D4664
:100A20001646002701F04AFF074639462A46334654
:100A300001F00700C0F1070ABAF1040F02D94FF024
:100A4000040A01E0C0F1070AD14600F1040ABAF134
:100A5000070F02D24FF0000A01E0A0F1030AD446CA
:100A60004FF0010A0AFA09FAAAF1010A0AEA020A8F
:100A70000AFA0CFA4FF0010B0BFA0CFBABF1010B6D
:100A80000BEA030B4AEA0B042146404601F01EFF25
:100A9000BDE8F09F00BF00F00702064B19684FF653
:100AA000FF031940044B0B4343EA0221014B196039
:100AB00000BF70470CED00E00000FA0538B50024D7
:100AC00000BF002000901D48006840F080501B4986
:100AD00008600846006800F08050009000BF00BF2A
:100AE000012017490864FFF709FF044607E0FFF7F4
:100AF00005FF001BB0F57A7F01D9032038BD1148EE
:100B0000406800F48030B0F5803FF0D101200C49FE
:100B10004864FFF7F3FE044607E0FFF7EFFE001B13
:100B2000B0F57A7F01D90320E8E70648406800F471
:100B30000030B0F5003FF0D10020DFE74038024040
:100B400000000E420070004070B504460D460CB91E
:100B5000012070BD5848006800F00F00A84209D27B
:100B600055490D700846006800F00F00A84201D0FA
:100B70000120EEE7207800F0020002281DD1207845
:100B800000F00400042805D14C48006840F4E0500F
:100B90004A490860207800F00800082805D1474835
:100BA000006840F46040454908604448006820F00F
:100BB000F000A168084341490860207800F0010076
:100BC000A8B36068012807D13C4808380068C0F322
:100BD0004040B8B90120BCE76068022802D06068D4
:100BE000032807D1354808380068C0F3406048B989
:100BF0000120AEE7314808380068C0F3400008B96A
:100C00000120A6E72D48006820F003006168084332
:100C10002A490860FFF772FE064609E0FFF76EFEFC
:100C2000801B41F28831884202D9032091E707E016
:100C30002248006800F00C006168B0EB810FEDD134
:100C40001D48006800F00F00A84209D91A490D702C
:100C50000846006800F00F00A84201D0012078E7A4
:100C6000207800F00400042807D11448006820F41C
:100C7000E050E168084311490860207800F008005E
:100C8000082808D10D48006820F46040216940EA36
:100C9000C1000A49086000F03FF808490968C1F33B
:100CA0000311074A515CC8400649086006480068BD
:100CB000FFF754FE00204CE7003C02400838024099
:100CC0001E2900080C0000200400002001480068D4
:100CD000704700000C00002000B5FFF7F7FF044943
:100CE0000968C1F38221034A515CC84000BD00007D
:100CF000083802402E29000800B5FFF7E7FF044935
:100D00000968C1F34231034A515CC84000BD00008C
:100D1000083802402E2900082DE9F047002400255C
:100D20000026A1462548006800F00C0020B10428E8
:100D300005D008283AD105E0DFF8849039E0DFF8E3
:100D4000849036E01D48001F006800F03F041B48F7
:100D5000001F006800F4800078B11A481749091F85
:100D60000968C1F38811A0FB0170014622460023E7
:100D70003846FFF78BFA05460EE011480F49091F68
:100D80000968C1F38811A0FB0170014622460023C7
:100D90003846FFF77BFA05460848001F0068C0F395
:100DA0000140401C4600B5FBF6F902E0DFF8109068
:100DB00000BF00BF4846BDE8F08700000838024089
:100DC0000024F400001BB700F8B504460CB901205C
:100DD000F8BD207800F00100002874D0F9480068C0
:100DE00000F00C0004280DD0F648006800F00C005C
:100DF000082813D1F348001F006800F48000B0F504
:100E0000800F0BD1EF4808380068C0F3404000283D
:100E100059D06068002856D10120D9E700BF60682A
:100E2000B0F5803F08D1E7480838006840F48030CA
:100E3000E449083908601EE06068B0F5A02F0DD1C4
:100E4000E0480838006840F48020DE49083908602E
:100E50000846006840F4803008600CE0D948083843
:100E6000006820F48030D7490839086008460068D7
:100E700020F48020086000BF606890B1FFF73EFD5D
:100E8000054606E0FFF73AFD401B642801D9032020
:100E90009EE7CC4808380068C0F340400028F1D0F5
:100EA00011E0FFF72BFD054606E0FFF727FD401B8D
:100EB000642801D903208BE7C24808380068C0F3D2
:100EC00040400028F1D1207800F0020002285FD1D4
:100ED000BC48006800F00C0058B1BA48006800F047
:100EE0000C0008281CD1B748001F006800F48000DF
:100EF000B0B9B44808380068C0F3400020B1E068D9
:100F0000012801D0012063E7AE480838006820F0CE
:100F1000F800216940EAC100AA490839086037E0B1
:100F2000E06800B30120A8490860FFF7E7FC054628
:100F300006E0FFF7E3FC401B022801D9032047E746
:100F4000A04808380068C0F340000028F1D09D4850
:100F50000838006820F0F800216940EAC10099498A
:100F60000839086014E0002097490860FFF7C6FCC4
:100F7000054606E0FFF7C2FC401B022801D903200A
:100F800026E7904808380068C0F340000028F1D1F7
:100F9000207800F0080008282CD16069A8B1012051
:100FA0008A490860FFF7AAFC054606E0FFF7A6FCA1
:100FB000401B022801D903200AE782486C300068F0
:100FC000C0F340000028F1D014E000207F49086001
:100FD000FFF794FC054606E0FFF790FC401B022853
:100FE00001D90320F4E677486C300068C0F3400074
:100FF0000028F1D1207800F00400042870D10027E7
:1010000070483830006800F0805090B900BF002070
:1010100000906C483830006840F0805069493831A1
:1010200008600846006800F08050009000BF00BFD4
:1010300001276748006800F48070B0B96448006810
:1010400040F4807062490860FFF758FC054606E0EE
:10105000FFF754FC401B022801D90320B8E65C4886
:10106000006800F480700028F2D000BFA06801285A
:1010700008D154486830006840F001005149683197
:1010800008601DE0A06805280DD14E486830006852
:1010900040F004004B49683108600846006840F0A1
:1010A000010008600CE047486830006820F001004B
:1010B0004449683108600846006820F00400086070
:1010C00000BFA068A8B1FFF719FC054609E0FFF7CB
:1010D00015FC401B41F28831884202D9032077E693
:1010E00026E0384868300068C0F340000028EED0A1
:1010F00013E0FFF703FC054608E0FFF7FFFB401B8A
:1011000041F28831884201D9032061E62D486830D8
:101110000068C0F340000028EFD1012F07D1294813
:101120003830006820F0805026493831086000BF10
:10113000A069002845D02348006800F00C0008286A
:101140005DD0A069022845D100201F490866FFF73D
:10115000D5FB054606E0FFF7D1FB401B022801D96D
:10116000032035E6174808380068C0F340600028BF
:10117000F1D1D4E907010843616A40EA81110122F3
:10118000A06AC2EB500041EA00412C20005D41EA18
:1011900000600C49091F086001200B490866FFF731
:1011A000ADFB054606E0FFF7A9FB401B022801D96D
:1011B00003200DE6034808380068C0F340600028AB
:1011C000F1D049E00838024000004742800E474213
:1011D00000700040002021490866FFF78FFB05469C
:1011E00006E0FFF78BFB401B022801D90320EFE547
:1011F0001B480068C0F340600028F2D12CE0A069D1
:10120000012800D1E4E51648001D0668A069012800
:1012100020D006F48001E06981421BD106F03F0135
:10122000206A814216D147F6C0703040616AB0EB47
:10123000811F0FD106F440310122A06AC2EB500099
:10124000B1EB004F06D106F070612C20005DB1EBD0
:10125000006F01D00120BBE50020B9E50000474246
:101260000038024070B504462546681EB0F1807F04
:1012700001D301200FE0681E4FF0E02148610F21EB
:101280004FF0FF3001F022FB00204FF0E021886199
:1012900007200861002070BD7047704730B50246D6
:1012A0000B4600BF92F83C00012801D1022030BD5E
:1012B000012082F83C0000BF022082F83D00106847
:1012C00044681068816824F070041868044310684A
:1012D0004460184D1068A8421BD01068B0F1804FD0
:1012E00017D0154D1068A84213D0144D1068A842AD
:1012F0000FD0134D1068A8420BD0124D1068A842B1
:1013000007D0114D1068A84203D0104D1068A842B4
:1013100005D121F0800158680143106881600120E7
:1013200082F83D0000BF002082F83C0000BF00BFF3
:10133000BDE700000000014000040040000800403C
:10134000000C004000040140004001400018004033
:1013500010B504460CB9012010BD94F83D0028B921
:10136000002084F83C00204600F026F8022084F893
:101370003D00211D206800F0D3FE012084F84600C6
:1013800000BF84F83E0001213F2001554020015557
:101390004120015500BF00BF012084F842004320D6
:1013A0000155442001554520015500BF012084F816
:1013B0003D000020D0E7000038B504462068B0F1B9
:1013C000804F18D100BF002000901948006840F0FD
:1013D0000100174908600846006800F0010000900D
:1013E00000BF00BF002211461C20FFF715FB1C2088
:1013F000FFF7FEFA1BE00F492068884217D100BFB3
:10140000002000900A48006840F040000849086049
:101410000846006800F04000009000BF00BF0022B6
:1014200011462B20FFF7F8FA2B20FFF7E1FA38BD21
:101430004038024000180040014691F83D00012864
:1014400001D001207047022081F83D000868C06883
:1014500040F001000B68D8601A4B086898421BD016
:101460000868B0F1804F17D0174B0868984213D026
:10147000164B086898420FD0154B086898420BD05D
:10148000144B0868984207D0134B0868984203D061
:10149000124B086898420CD10868806800F0070277
:1014A000062A0CD00868006840F001000B6818603C
:1014B00005E00868006840F001000B681860002033
:1014C000C0E70000000001400004004000080040A8
:1014D000000C0040000401400040014000180040A2
:1014E0002DE9F04104460D46002700BF94F83C006A
:1014F000012802D10220BDE8F081012084F83C00DF
:1015000000BF022084F83D002068866826F0770638
:1015100026F47F46206886602868502833D00CDC8B
:10152000202850D004DC00284BD0102851D149E0AD
:10153000302849D040284CD139E060282DD070287F
:1015400007D0B0F5805F03D0B0F5005F41D10DE06A
:1015500041E0D5E902136A68206800F055FE206872
:10156000866846F077062068866034E0D5E9021385
:101570006A68206800F048FE2068806840F4804077
:101580002168886027E0EA686968206800F02CFF1D
:101590005021206800F043FE1DE0EA686968206879
:1015A00000F035FF6021206800F039FE13E0EA68A2
:1015B0006968206800F018FF4021206800F02FFEC5
:1015C00009E000BF00BF00BF2968206800F027FEC7
:1015D00001E0012700BF00BF012084F83D0000BFEB
:1015E000002084F83C0000BF384684E7704770B59F
:1015F00004462068C5682068066906F002000228D3
:1016000019D105F00200022815D1401F2168086198
:10161000012020772068806900F0030018B120467F
:10162000FFF7E4FF05E0204600F0C8F8204600F090
:101630007CF90020207706F00400042819D105F079
:101640000400042815D1C0432168086102202077D6
:101650002068806900F4407018B12046FFF7C6FF8B
:1016600005E0204600F0AAF8204600F05EF90020D0
:10167000207706F00800082819D105F0080008288E
:1016800015D1C04321680861042020772068C06913
:1016900000F0030018B12046FFF7A8FF05E0204640
:1016A00000F08CF8204600F040F90020207706F08A
:1016B0001000102819D105F01000102815D1C043D2
:1016C00021680861082020772068C06900F4407014
:1016D00018B12046FFF78AFF05E0204600F06EF8BB
:1016E000204600F022F90020207706F0010048B1E2
:1016F00005F0010030B16FF001002168086120465B
:1017000000F014F906F08000802809D105F080006F
:10171000802805D1C043216808612046FFF7BCFD41
:1017200006F04000402809D105F04000402805D1CE
:10173000C04321680861204600F00AF906F0200045
:10174000202809D105F02000202805D1C0432168B8
:1017500008612046FFF7A1FD70BD000010B586B0FE
:101760000446142101A8FEF708FE114920688842AA
:101770001CD100BF002000900E48006840F080009F
:101780000C4908600846006800F08000009000BF27
:1017900000BF40200190022002900020039004909E
:1017A0000920059001A90448FEF790FF06B010BD7E
:1017B0000018004030380240001C024070472DE9FC
:1017C000F04104460D461646002700BF94F83C0041
:1017D000012802D10220BDE8F081012084F83C00FC
:1017E00000BF36B1042E1BD0082E31D00C2E5ED196
:1017F00045E02946206800F01BFD2068806940F024
:101800000800216888612068806920F00400216850
:10181000886120688069296908432168886148E0F7
:101820002946206800F03CFD2068806940F4006093
:10183000216888612068806920F48060216888615F
:1018400020688069296940EA01202168886130E0C8
:101850002946206800F062FD2068C06940F0080059
:101860002168C8612068C06920F004002168C8614F
:101870002068C069296908432168C86119E02946C0
:10188000206800F087FD2068C06940F4006021688E
:10189000C8612068C06920F480602168C861206840
:1018A000C069296940EA01202168C86101E0012777
:1018B00000BF00BF00BF002084F83C0000BF3846D6
:1018C00089E710B504460CB9012010BD94F83D001D
:1018D00028B9002084F83C00204600F025F80220BA
:1018E00084F83D00211D206800F01AFC012084F8D6
:1018F000460000BF84F83E0001213F2001554020F2
:1019000001554120015500BF00BF012084F842006D
:1019100043200155442001554520015500BF0120B9
:1019200084F83D000020D0E77047704710B50446AA
:10193000054920680968884204D14FF48041034872
:10194000FEF7CCFF10BD0000140000200014024080
:1019500070477047704700002DE9F84F0446206833
:1019600005682068C668206847694FF00009CA46C4
:1019700005F00F09B9F1000F0AD105F0200038B1C8
:1019800006F0200020B1204600F0A5FDBDE8F88F4C
:10199000B9F1000F7CD007F0010018B906F490707F
:1019A000002875D005F0010030B106F4807018B140
:1019B000606C40F00100606405F0040030B107F095
:1019C000010018B1606C40F00200606405F0020094
:1019D00030B107F0010018B1606C40F004006064A1
:1019E00005F0080048B106F0200010B907F001002A
:1019F00018B1606C40F008006064606C002846D04C
:101A000005F0200028B106F0200010B1204600F0BB
:101A100062FD20684069C0F3801A606C00F0080025
:101A200010B9BAF1000F2DD0204600F00EFD20684D
:101A3000406900F04000402820D100BF00BF21686D
:101A4000143151E8001F21F040002168143141E8B1
:101A50000002002AF3D100BFE06B50B17748E16B80
:101A60000865E06BFEF703FE88B1E06B016D884707
:101A70000DE02046FFF76EFF09E009E02046FFF782
:101A800069FF04E02046FFF765FF002060647DE702
:101A9000206B012878D105F01000002874D006F0E2
:101AA00010000028FAD000BF0020009020680068D5
:101AB000009020684068009000BF00BF2068406927
:101AC00000F04000402860D1E06B006840681FFAD9
:101AD00080F8B8F1000F56D0A08D404553DDA4F832
:101AE0002E80E06BC069B0F5807F43D000BF00BF9F
:101AF00021680C3151E8001F21F4807021680C31FD
:101B000041E80002002AF3D100BF00BF00BF2168F6
:101B1000143151E8001F21F001002168143141E81F
:101B20000002002AF3D100BF00BF00BF21681431BA
:101B300051E8001F21F040002168143141E8000203
:101B4000002AF3D100BF202084F842000020206347
:101B500000BF00BF21680C3151E8001F21F01000C8
:101B600021680C3141E80002002AF3D100BFE06B8C
:101B7000FEF727FD02206063A08DE28D801A81B2FE
:101B80002046FFF7E6FE01E742E0A08DE18D401A16
:101B90001FFA80F8E08DD0B3B8F1000F37D000BF46
:101BA00000BF21680C3151E8001F21F490702168BA
:101BB0000C3141E80002002AF3D100BF00BF00BF92
:101BC0002168143151E8001F21F00100216814310F
:101BD00041E80002002AF3D100BF202084F842002F
:101BE0000020206300BF00BF21680C3151E8001FB6
:101BF00021F0100021680C3141E80002002AF3D1E5
:101C000000BF0220606341462046FFF7A2FEBDE60A
:101C100005F0800030B106F0800018B1204600F0D9
:101C20000FFEB3E605F0400030B106F0400018B1F9
:101C3000204600F040FCA9E600BFA7E637240008D4
:101C400010B504460CB9012010BDA06900B100E038
:101C500000BF94F8410028B9002084F840002046D5
:101C600000F02AF8242084F841002068C06820F49D
:101C700000502168C860204600F0ACFC2068006974
:101C800020F49040216808612068406920F02A0013
:101C9000216848612068C06840F400502168C8602D
:101CA00000206064202084F8410084F84200002075
:101CB000606300BFC8E7000010B586B00446142179
:101CC00001A8FEF75AFB1F492068884238D100BF9F
:101CD000002000901C48006840F020001A4908606D
:101CE0000846006800F02000009000BF00BF00BF61
:101CF0000020009014481438006840F04000124959
:101D0000143908600846006800F04000009000BFE9
:101D100000BF4FF484400190022002900020039005
:101D2000032004900820059001A90848FEF7CEFC86
:101D3000002211464720FEF76FFE4720FEF758FEAF
:101D400006B010BD001401404438024000180240A3
:101D500070B504460D46164694F8420020280BD173
:101D600005B10EB9012070BD00202063324629461E
:101D7000204600F045FDF6E70220F4E77047704783
:101D800000BFFEE700B587B0142102A8FEF7F5FA00
:101D900000BF002001905048006840F040004E49CC
:101DA00008600846006800F04000019000BF00BFD6
:101DB00000BF002001900846006840F00100086064
:101DC0000846006800F00100019000BF00BF00BF9E
:101DD000002001900846006840F080000860084636
:101DE000006800F08000019000BF00BF00BF00202D
:101DF00001900846006840F002000860084600684C
:101E000000F00200019000BF00BF00BF0020019061
:101E10000846006840F0100008600846006800F0BE
:101E20001000019000BF00BF00BF002001900846D5
:101E3000006840F0200008600846006800F02000BC
:101E4000019000BF00BF002202212448FEF750FD90
:101E500000224FF400612248FEF74AFD00224FF4B1
:101E600080412048FEF744FD042002904FF4881082
:101E700003900220049002A91B48FEF727FC0220D1
:101E800002900120039000200490059002A91348BD
:101E9000FEF71CFC4FF4006002900120039000202C
:101EA0000490059002A90E48FEF710FC4FF4804004
:101EB00002900120039000200490059002A9094897
:101EC000FEF704FC002211460820FEF7A5FD0820BD
:101ED000FEF78EFD07B000BD30380240001802400A
:101EE00000100240001402400004024000B58BB014
:101EF00000200790089009900A901C216846FEF780
:101F00003CFA1B481B49086042F227304860002118
:101F1000184881606321C160002101618161FFF780
:101F200017FA08B1FEF74AFB4FF48050079007A953
:101F30001048FFF7D5FA08B1FEF740FB0D48FFF750
:101F4000C0FC08B1FEF73AFB602000900020019031
:101F500002900490002269460648FFF730FC08B161
:101F6000FEF72CFB0348FFF7F9FB0BB000BD0000A8
:101F7000001800405C00002000B587B000200390EE
:101F8000049005900690019002904FF08040144913
:101F9000086042F22730486000211148816042F217
:101FA0000F71C160002101618161FFF7D1F908B1B2
:101FB000FEF704FB4FF48050039003A90848FFF795
:101FC0008FFA08B1FEF7FAFA00200190029001A9F9
:101FD0000348FFF763F908B1FEF7F0FA07B000BD58
:101FE0001400002010B50B480B4908604FF4165040
:101FF0004860002108488160C16001610C21416195
:1020000000218161C161FFF71BFE08B1FEF7D6FA1E
:1020100010BD000000140140A400002000BFFEE736
:1020200000BFFEE77047704710B5FEF76DFC10BDAE
:1020300000B593B0302107A8FEF79FF9142102A83C
:10204000FEF79BF900BF002001902648006840F091
:102050008050244908600846006800F080500190D4
:1020600000BF00BF00BF002001901F48006840F47F
:1020700040401D4908600846006800F44040019057
:1020800000BF00BF012007900004089002200D90BF
:1020900041050E9106210F91B42110910221119159
:1020A0000421129107A8FEF78FFE08B1FEF786FA09
:1020B000FEF704FD08B1FEF781FA0F20029002201E
:1020C0000390002004904FF4A05005904FF48050EE
:1020D0000690052102A8FEF737FD08B1FEF76EFA5B
:1020E00013B000BD40380240007000400348006853
:1020F00040F47000014908607047000088ED00E07E
:1021000010B50248FFF773FA10BD0000140000205C
:1021100010B50248FFF76BFA10BD00005C0000200C
:1021200010B502682D4B98420ED0B0F1804F0BD005
:102130002B4B984208D02B4B984205D02A4B984203
:1021400002D02A4B984203D122F070024B681A4306
:10215000224B984220D0B0F1804F1DD0204B9842A6
:102160001AD0204B984217D01F4B984214D01F4BC7
:10217000984211D01E4B98420ED01E4B98420BD065
:102180001D4B984208D01D4B984205D01C4B9842DD
:1021900002D01C4B984203D122F44072CB681A4300
:1021A00022F080034C6943EA040202608B68C36238
:1021B0000B688362094B984202D00C4B984201D1C4
:1021C0000B69036301234361036903F001031BB13E
:1021D000036923F00103036110BD0000000001400A
:1021E0000004004000080040000C004000040140D2
:1021F00000400140004401400048014000180040F8
:10220000001C00400020004030B50C46816821F4DD
:102210007F4142EA032525432943816030BD0A46B8
:10222000816821F0700142F0070319438160704713
:1022300030B5026A056A25F00105056243688469C4
:1022400024F0700424F003040D682C4322F00202F1
:102250008D682A43104DA84200D103E00F4DA842DB
:1022600006D100BF22F00802CD682A4322F0040202
:10227000094DA84202D0094DA84207D123F480732A
:1022800023F400734D692B438D692B4343608461B4
:102290004D684563026230BD00000140000401400A
:1022A00030B5026A056A25F0100505624368846945
:1022B00024F4E04424F440740D6844EA052422F038
:1022C00020028D6842EA0512124DA84200D103E0B7
:1022D000114DA84207D100BF22F08002CD6842EA2A
:1022E000051222F040020B4DA84202D00A4DA8422E
:1022F00009D123F4806323F400634D6943EA850325
:102300008D6943EA8503436084614D688563026299
:1023100030BD0000000001400004014030B5026AF9
:10232000056A25F4807505624368C46924F0700469
:1023300024F003040D682C4322F400728D6842EAF5
:102340000522124DA84200D103E0114DA84207D149
:1023500000BF22F40062CD6842EA052222F48062C6
:102360000A4DA84202D00A4DA84209D123F4805355
:1023700023F400534D6943EA05138D6943EA0513BD
:102380004360C4614D68C563026230BD0000014016
:102390000004014030B5036A056A25F480550562E2
:1023A0004468C26922F4E04222F440720D6842EAB5
:1023B000052223F400538D6843EA0533084DA842F3
:1023C00002D0084DA84204D124F480444D6944EA67
:1023D00085144460C2614D680564036230BD00002D
:1023E000000001400004014030B50B461446026A6B
:1023F000056A25F001050562816921F0F00141EAD5
:10240000041122F00A021A438161026230BD30B524
:102410000B461446026A056A25F0100505628169BB
:1024200021F4704141EA043122F0A00242EA031291
:102430008161026230BD70B50546AC6B0020E0855D
:10244000E0842046FFF786FA70BD00BF00BF026837
:102450000C3252E8002F22F4907102680C3242E8EC
:102460000013002BF3D100BF00BF00BF026814327D
:1024700052E8002F22F001010268143242E80013F2
:10248000002BF3D100BF016B01290ED100BF00BFAB
:1024900002680C3252E8002F22F0100102680C3260
:1024A00042E80013002BF3D100BF202180F8421036
:1024B00000210163704710B504462068C06820F011
:1024C00040002168C860202084F841002046FFF7C2
:1024D00056FC002010BDF8B5044694F842002228AE
:1024E00075D1A068B0F5805F0CD1206950B9002586
:1024F000A66A20684068C0F308003080A06A801C8B
:10250000A06215E0A56A0026A068B0F5805F03D040
:10251000A06828B9206918B920684068287004E0CC
:102520002068406800F07F002870A06A401CA0620C
:10253000E08D401E80B2E085002846D12068C0684A
:1025400020F020002168C8602068C06820F48070F6
:102550002168C8602068406920F001002168486156
:10256000202084F8420000206063206B012826D1DF
:102570000020206300BF00BF21680C3151E8001F1C
:1025800021F0100021680C3141E80002002AF3D14B
:1025900000BF2068006800F0100010280AD100BFBA
:1025A000002000902068006800902068406800903B
:1025B00000BF00BFA18D2046FFF7CBF902E0204607
:1025C000FFF7DCFB0020F8BD01E00020FBE7022064
:1025D000F9E700002DE9F84F04462068006920F46F
:1025E0004050E1680843216808612169A0680843F8
:1025F00061690843E169084300902068C06849F2B6
:102600000C618843009908432168C86020684069CC
:1026100020F44070A1690843216848617649206828
:10262000884203D075492068884203D1FEF764FBD5
:10263000814602E0FEF750FB8146E069B0F5004FAD
:102640006CD102206168A0FB015003461920A9FB50
:10265000007001462A463846FDF718FE6421B0FB9B
:10266000F1F04FEA001A02206168A0FB01510B460D
:102670001920A9FB00712A463846FDF707FE83465C
:1026800002206168A0FB015003461920A9FB0071DC
:102690002A463846FDF7FAFD6421B0FBF1F000EB65
:1026A000C00101EB0010ABEB8000322101EBC00058
:1026B0006421B0FBF1F000F0F8000AEB400A0220C0
:1026C0006168A0FB015003461920A9FB0070014678
:1026D0002A463846FDF7DAFD834602206168A0FBF2
:1026E000015003461920A9FB00712A463846FDF720
:1026F000CDFD6421B0FBF1F000EBC00101EB001057
:10270000ABEB8000322101EBC0006421B0FBF1F0A3
:1027100000F007005044216888606AE00420616886
:10272000A0FB015003461920A9FB007001462A4670
:102730003846FDF7ABFD824604206168A0FB0150DE
:1027400003461920A9FB007001462A463846FDF7CA
:102750009DFD6421B0FBF1F000EBC00101EB001026
:10276000AAEB8000322101EB00106421B0FBF1F0F4
:1027700000F0F00A04206168A0FB017003461920F4
:10278000A9FB00513A462846FDF780FD6421B0FBC5
:10279000F1F00AEB001A04206168A0FB01510B461E
:1027A0001920A9FB00712A463846FDF76FFD8346C4
:1027B00004206168A0FB015003461920A9FB0070AA
:1027C00001462A463846FDF761FD6421B0FBF1F071
:1027D00000EBC00101EB0010ABEB8000322101EBFC
:1027E00000106421B0FBF1F000F00F0050442168AC
:1027F0008860BDE8F88F000000100140001401401F
:1028000010B5034699629A85DA8500205864222023
:1028100083F84200186928B11868C06840F48070D5
:102820001C68E0601868406940F001001C68606145
:102830001868C06840F020001C68E060002010BDEF
:10284000014691F84100212828D18868B0F5805FC1
:102850000BD1086948B90A6A1088C0F308000B68F0
:102860005860086A801C086205E00B6A581C086200
:1028700018780B685860C88C401E80B2C88458B95C
:102880000868C06820F080000B68D8600868C068DD
:1028900040F040000B68D860002070470220FCE741
:1028A00010B50348FDF730FE0248FFF755F810BD9C
:1028B000EC000020A400002000BFFEE702480068F2
:1028C000C0F30220704700000CED00E010B50028B6
:1028D00004DB0A07130E054A135406E00A07140E18
:1028E000034A00F00F031B1FD45410BD00E400E0A6
:1028F00018ED00E0FEF714F8FFF79AFBFFF742FA35
:10290000FFF73AFBFFF76EFBFFF7F0FAFDF740FE2B
:1029100000BFFEE74FF04070E1EE100A7047000084
:10292000000000000000010203040607080900007F
:1029300000000102030400005829000800000020E4
:1029400014000000E80100086C29000814000020B1
:1029500084070000040200080000000010000000CE
:0C296000010000000024F4000000000052
:04000005080001AD41
:00000001FF
