:020000040000FA
:10800000582B01008582000093B000009BAA00005D
:1080100091B000009987000051BC000000000000F2
:10802000000000000000000000000000C58100000A
:10803000918900000000000021820000FDB20000D4
:108040009F8200009F8200009F8200009F820000AC
:108050009F8200009F8200009F8200009F8200009C
:108060009F8200009F8200009F8200009F8200008C
:10807000A58800009F820000B18800009F82000058
:108080009F820000BD8800009F820000A987000039
:108090009D8700009F8200009F8200009F82000059
:1080A0009F8200009F8200009F8200009F8200004C
:1080B0009F8200009F8200009F8200009F8200003C
:1080C0009F8200009F8200009F8200009F8200002C
:1080D0009F820000F1BA0000ADBB0000B9BB0000F8
:1080E0009F8200009F8200009F8200009F8200000C
:1080F0009F8200009F8200009F8200009F820000FC
:108100009F8200009F8200009F8200009F820000EB
:108110009F8200009F8200009F8200009F820000DB
:108120009F820000C9880000D58800009F8200005F
:108130009F8200009F8200009F820000C187000094
:10814000B58700009F8200009F8200009F82000090
:108150009F820000E18800009F82000045BC000073
:108160009F8200009F8200009F8200009F8200008B
:108170009F8200009F8200009F820000000000009C
:108180009F8200009F820000A9B600009F8200002D
:108190009F8200009F8200009F8200009F8200005B
:1081A00000000000000000009F820000DFF810D0F7
:1081B00000F022FA00480047C1C90000AFF3008078
:1081C000582B01002C4B19680868B0E8F04F80F379
:1081D0000988BFF36F8F4FF0000080F3118870475C
:1081E0000000000008480068006880F308884FF02D
:1081F000000080F3148862B661B6BFF34F8FBFF3FF
:108200006F8F00DF00BF00BF08ED00E0DFF80C005B
:10821000016841F470010160704700BF88ED00E023
:10822000EFF30980BFF36F8F134B1A681EF0100F26
:1082300008BF20ED108A20E9F04F106009B44FF01C
:10824000500080F31188BFF34F8FBFF36F8F05F09D
:108250004BF84FF0000080F3118809BC19680868DA
:10826000B0E8F04F1EF0100F08BFB0EC108A80F39A
:108270000988BFF36F8F704798DB0000EFF305802C
:10828000704700000648804706480047FEE7FEE7C3
:10829000FEE7FEE7FEE7FEE7FEE7FEE7FEE7FEE7B6
:1082A000B5B30000AD8100002DE9F05F0546002068
:1082B00092469B4688460646814640241BE0284657
:1082C00041464746224600F0F2F853465A46C01A45
:1082D000914110D311461846224600F0D9F82D1AC4
:1082E00067EB01084F4622460120002100F0D0F83C
:1082F00017EB00094E41201EA4F10104DFDC4846C3
:1083000031462A464346BDE8F09F40EA01039B07F9
:1083100003D009E008C9121F08C0042AFAD203E0FA
:1083200011F8013B00F8013B521EF9D27047D2B25E
:1083300001E000F8012B491EFBD270470022F6E74E
:1083400010B513460A4604461946FFF7F0FF2046CB
:1083500010BD2DE9FE4F81EA030404F0004421F032
:10836000004100944FF0000B23F0004350EA010459
:108370005ED052EA03045BD0C3F30A54C1F30A553A
:108380002C44A4F2F3340194A0FB0254C1F3130172
:1083900041F48011C3F3130343F4801301FB02443F
:1083A00000FB034E840A970A44EA815447EA835744
:1083B000A4FB076802958D0A05FB07854FEA932CFD
:1083C00004FB0C542705029D4FEA065847EA16376E
:1083D000B5EB08056EEB070C870E920E47EA811786
:1083E00042EA8312A7FB0201B6EB0B0164EB000427
:1083F0002B0D43EA0C335E1844EB1C50DA46514611
:10840000E7FB0201C5F313044FEA0B3343EA1453AD
:108410004FEA0432019C43EA0603A4F10C040294DF
:10842000009CCDE900B400F098F803B0BDE8F08FEF
:1084300000200146F9E70EB5C10F80EAE07008445C
:10844000CA07002140F233438DE80E000A460B466E
:1084500000F083F803B000BD01F0004330B421F018
:10846000004150EA010206D00A0DA2F56072C1F384
:108470001301002A02DC30BC00207047440F44EA9C
:10848000C104C100E01830BC00EBC25000F01FB8BE
:10849000202A04DB203A00FA02F1002070479140C4
:1084A000C2F1200320FA03F3194390407047202AB9
:1084B00004DB203A21FA02F00021704721FA02F38E
:1084C000D040C2F12002914008431946704700296C
:1084D000A8BF7047401C490008BF20F0010070474A
:1084E00010B4B0FA80FC00FA0CF050EA010404BFAA
:1084F00010BC704749B1CCF1200421FA04F411FA00
:108500000CF118BF012121430843A3EB0C01CB1D43
:108510004FEA00614FEA102042BF002010BC7047B4
:1085200000EBC35010440029A4BF10BC7047401C8E
:10853000490008BF20F0010010BC704710B5141EA0
:1085400073F1000408DA401C41F1000192185B410C
:108550001A4301D120F0010010BD2DE9F04D9246E3
:108560009B4611B1B1FA81F202E0B0FA80F22032FA
:108570009046FFF78DFF04460F4640EA0A0041EAA5
:108580000B0153465A46084313D0114653EA0100E3
:1085900019D0C8F140025046FFF789FF05460E4644
:1085A000504659464246FFF773FF084305D0012065
:1085B00004E020463946BDE8F08D0020054346EA38
:1085C000E0762C4337430A986305E40AA0EB0800E1
:1085D0000022FD0A44EA47540A3002D50020014631
:1085E000E9E7010510196941DDE90845001969410C
:1085F000BDE8F04DA2E70000064C074D06E0E0683C
:1086000040F0010394E8070098471034AC42F6D3D9
:10861000FFF7D0FD08DB000018DB000000B589B0D3
:108620004FF486710091002108220291CDE90312D6
:108630008DF81800FE208DF819008DF81A108DF8AD
:108640001B10079108AB06AA6946024800F0DAF948
:1086500009B000BD58DE000000B589B040F2051138
:108660000091002108220291CDE903128DF8180033
:108670008DF819108DF81A108DF81B10079108ABA2
:1086800006AA6946024800F0BDF909B000BD000025
:1086900058DE000070B58AB04FF48675039500254A
:1086A0000695DDE90E468DF804008DF80510059558
:1086B000100A08258DF8060007958DF80830200A65
:1086C0008DF809008DF807208DF80A408DF80B60B1
:1086D0006B4601AA03A9024800F094F90AB070BDE4
:1086E00058DE000000EE100A9FED141A00B5F8EEF7
:1086F000C00A89B03220009080EE810ADFED100AB6
:10870000002008220290CDE90302079008AB20EE7A
:10871000200ABDEEC00A10EE101A0A0A8DF81820C1
:108720008DF819108DF81A008DF81B0006AA6946FD
:10873000044800F067F909B000BD00000000B44330
:1087400000FEFF4658DE000030B589B040F20D143F
:108750000294002408250494CDE905458DF8000015
:1087600052018DF80110100A8DF802005B01180A01
:108770008DF804008DF805308DF803208DF8064043
:108780008DF8074008AB6A4602A9024800F03AF9A2
:1087900009B030BD58DE0000FEE70000014800F0DF
:1087A0009ABA000058DE0000014800F094BA0000B8
:1087B00058DE0000014800F08EBA000080DE0000A4
:1087C000014800F088BA000080DE000038B50E4C89
:1087D0004FF4007525600025A560E560082525613A
:1087E0000A4C050A25706070080AA070E170100A32
:1087F00020716271180AA071E3716B46224602492A
:10880000034800F0FFF838BD14E3000058DB000017
:1088100058DE000038B50E4C40F2FF1525600025EB
:10882000A560E560082525610A4C050A2570607081
:10883000080AA070E170100A20716271180AA07114
:10884000E3716B4622460249034800F0DBF838BD6D
:10885000FCE2000050DB000080DE000038B50E4C6A
:108860004FF4007525600025A560E56008252561A9
:108870000A4C050A25706070080AA070E170100AA1
:1088800020716271180AA071E3716B462246024999
:10889000034800F0B7F838BDFCE2000050DB0000F0
:1088A00080DE0000014800F033BD000078E10000E8
:1088B000014800F02DBD000018E10000014800F063
:1088C00027BD0000B8E00000014800F021BD000015
:1088D00038E20000014800F01BBD000058E0000035
:1088E000014800F015BD0000D8E100000168182320
:1088F000CAB2103AB2FBF3F2054B6FF30901032A37
:108900009B5CC36500D9091D81650846704700005E
:1089100050D7000010B5014600208B698A6A4FF0DD
:10892000C07453B1B3F5005F15D072B1012A0CD0F9
:10893000022A0AD0032A09D104E01AB1012A06D07A
:10894000022A03D1C96AC90100D5012010BDC96A34
:10895000A142FAD010BD002AF7D0012AF2D0022A93
:10896000F3D0032AF3D010BD30B50468256825F490
:1089700080252560046863608368402B036803D00A
:1089800099600068C26030BD9A600068C16030BD07
:10899000704772B6FEE7000010B558B1084C491E8A
:1089A0000BD310F8013B5340DBB234F8133083EAA9
:1089B0001222F4E74FF6FF7010BD104610BD000004
:1089C000CCD8000010B5054C03E010F8013B534033
:1089D000E25C491EF9D2104610BD0000CCD7000061
:1089E00090F82020012A07D0022A05D0416A41F4DC
:1089F0008021416201207047006842690A43426158
:108A000000207047F0B590F820500468A468012D4C
:108A100005D0022D03D0416A41F4802157E014F0C3
:108A2000406F01D1E5004FD5C4F301640125A54095
:108A30001D608B684FF4C0759BB1CE6833434E68A0
:108A400043EAC603066805EB0417F3514FF4C273FB
:108A5000076803EB04130E69FE50097D012905D058
:108A600009E00E88CB6843EA4653EBE70168CE582D
:108A700046F48076CE501179D379567941EA036174
:108A800093791B0443EA062319434FF4C67603681F
:108A900006EB041699511178D37841EA0361937873
:108AA00052781B0443EA022211434FF4C473026854
:108AB00003EB0413D150006805EB0411425842F057
:108AC000010242500020F0BD416A41F400114162B0
:108AD0000120F0BD10B590F82020012A07D0022A0D
:108AE00005D0416A41F480214162012010BD3B481C
:108AF000D0F8002242F00102C0F80022D0F8002293
:108B000022F47C52C0F80022D0F800224B6A42EADC
:108B10000322C0F800220A7D02F01F0301229A40BE
:108B2000D0F81C329343C0F81C32CB69B3B9D0F8EB
:108B30000C329343C0F80C328C894B6864F31F43AA
:108B40004C6900EBC404C4F840320C890B6864F330
:108B50001F434C6900EBC404C4F84432CB69012BB9
:108B600016D1D0F80C321343C0F80C320C884B6885
:108B700064F31F434C6900EBC404C4F840320C8911
:108B8000CB6864F31F434C6900EBC404C4F844325F
:108B90008B69002BD0F804320ED01343C0F8043296
:108BA0000B69002BD0F8143208D01343C0F81432EC
:108BB000096A012904D008E09343EFE79343F5E7FE
:108BC000D0F81C121143C0F81C12D0F8001221F08A
:108BD0000101C0F80012002010BD00000064004038
:108BE000704770B590F82040012C05D0022C03D0BE
:108BF000416A41F4802128E0046809B32469A4078C
:108C000020D04FF4D874056804EB01142D5915F0E9
:108C10000405956005682D591AD0ED085560056862
:108C20002C5904F00204D4604FF4DA74056804EBA4
:108C300001142E5906F00F06082E0CD308250DE05E
:108C4000E468DCE7416A41F400114162012070BD33
:108C50006D0D1560E3E72D5905F00F0515610568E9
:108C60002D59C5F30725956105682C59240C5461CD
:108C70004FF4DC72046802EB0112A4581C70046803
:108C8000A458240A5C700468A458240C9C700468DE
:108C9000A258120EDA704FF4DE72046802EB011271
:108CA000A4581C710468A458240A5C710468A45870
:108CB000240C9C710468A258120EDA71006829B164
:108CC000016941F020010161002070BDC16841F0DF
:108CD0002001C160F8E72DE9F05F05460068002437
:108CE0004669D0F804908768D0F80CB0D0F810A08E
:108CF000D0F81880F10748D0F90714D0012181601D
:108D0000B80703D5284600F0A2FA0CE0780702D590
:108D10004FF4006407E0380702D54FF4805402E0B6
:108D2000284600F093FAF80516D529684FF48070AC
:108D30008860B80503D5284600F08BFA0CE078056A
:108D400002D544F4005407E0380502D544F48044C9
:108D500002E0284600F07CFAF80316D529684FF4A3
:108D600080308860B80303D5284600F074FA0CE020
:108D7000780302D544F4004407E0380302D544F4F4
:108D8000803402E0284600F065FA300707D55FEA34
:108D9000CB6004D52968102044F40074C8607007C3
:108DA0004FF0080707D55FEA0B7004D52868C76045
:108DB000284600F0A7F9B00706D52868C0688007E4
:108DC00002D0284600F0A0F9700607D55FEACA6015
:108DD00004D52968102044F480640861B00607D5E2
:108DE0005FEA0A7004D528680761284600F000FA97
:108DF000F00606D528680069800702D0284600F0F2
:108E0000F8F9B00308D55FEAC96005D529681020D4
:108E10004860284600F0EEF9F00307D55FEA0970D4
:108E200004D528684760284600F016FA300446D575
:108E30005FEA497040D5F00504D55FEAC87001D0FB
:108E400044F00104B00504D55FEA887001D544F010
:108E50000204700504D55FEA487001D544F00404AB
:108E6000300529D518F0700F26D008F07000402882
:108E700015D006DC102809D020280AD0302816D1B9
:108E80000AE050280ED0602811D10EE044F008040A
:108E90000DE044F010040AE044F0200407E044F040
:108EA000400404E044F0800401E044F48074286845
:108EB000816921F070018161296804204860002CDB
:108EC00005D0686A204368622846FFF789FEBDE83E
:108ED000F09F70B5040003D094F8200010B104E0B6
:108EE000012070BD204600F081F82068016841F043
:108EF0000101016000F08CFC0546052604E000F04D
:108F000087FC401B0A2811D820684068C007F6D0AB
:108F10002068016821F00201016000F079FC05463B
:108F20000BE000F075FC401B0A2806D9606A40F48B
:108F30000030606284F82060D2E7206840688007D3
:108F4000EFD4207E0128206801683DD021F0800107
:108F50000160607E01282068016838D021F040015E
:108F60000160A07E01282068016833D021F0200133
:108F70000160E07E0128206801682ED041F01001D8
:108F80000160207F01282068016829D021F00801B4
:108F90000160607F01282068016824D021F004016D
:108FA0000160D4E902010843D4E9041211430843E3
:108FB0006168491E08432168C86100206062012081
:108FC00084F82000002070BD41F08001C0E741F02E
:108FD0004001C5E741F02001CAE721F01001CFE7C9
:108FE00041F00801D4E741F00401D9E7F0B587B0BA
:108FF000044614216846FFF7A1F93D493D4ADFF8D0
:10900000ECE00868D4F800C03A4B03240225092696
:1090100010320027401CF44529D10860012807D1EF
:10902000106840F000701060106800F0007005904B
:10903000186840F00800186018688DE8B00000F06B
:109040000800CDE90460694603942B4800F0E4FA77
:1090500000220521132000F04DFC132000F03CFC01
:1090600000220521142000F045FC14203AE0DFF82E
:109070008CE0F44538D1D2F800C04CF0806CC2F8D6
:1090800000C0D2F800C001280CF0806CCDF814C0EC
:10909000086007D1106840F000701060106800F0A0
:1090A00000700590186840F0020018601868694662
:1090B00000F0020005904FF440508DE8A100CDE98A
:1090C00003460F4800F0A8FA002205213F2000F0D7
:1090D00011FC3F2000F000FC00220521402000F0A0
:1090E00009FC402000F0F8FB07B0F0BD0064004030
:1090F00030DB000030380240000C024000680040C5
:10910000000402407047000010B58AB004466B4668
:1091100002AA0021FFF765FD3149206888423ED14F
:10912000029840F20222A0F2022190420FD007DC06
:10913000972824D0A0F5007001381BD1294808E0F9
:10914000012919D0022915D126481E3001E02548F1
:109150000A3001880181BDF8001049BA0180BDF8CC
:10916000021049BA4180BDF8041049BA81809DF8C7
:10917000061081710AB010BD1A481430E9E71A4888
:1091800081880180BDF8001049BA4180BDF8021005
:1091900049BA8171BDF8041049BA8180EAE71349E0
:1091A0008842E7D10298A0F201200828E2D2DFE845
:1091B00000F005080404140B0E11DBE709484630E3
:1091C000C7E708485030C4E706483230C1E70548D1
:1091D0002830BEE703485A30BBE702483C30B8E7C6
:1091E0000064004098E2000048DB00000068004096
:1091F00070477047704770B5044690F8200001280A
:1092000004D0606A40F40020606217E0022084F815
:1092100020002068016821F00101016000F0F8FAE7
:1092200005460DE000F0F4FA401B0A2808D9606AF0
:1092300040F400306062052084F82000012070BDF9
:1092400020684068C007EDD1606270BD704770470C
:10925000704770477047704770472DE9F0410446EA
:10926000876D00F0D5FA054694F8350000260228EF
:1092700006D08020606584F834600120BDE8F0816C
:109280002068016821F0160101602068416921F021
:1092900080014161206C08B9A06C20B12068016890
:1092A00021F0080101602068016821F001010160DE
:1092B0000CE000F0ADFA401B052807D920206065BE
:1092C000032084F8350084F83460D7E7206800680C
:1092D000C007EED194F85C103F208840B8600120B0
:1092E00084F8350084F834600020C7E790F8351022
:1092F000022903D08021416501207047052180F8B3
:1093000035100068016821F00101016000207047FC
:109310002DE9F84304464FF00009CDF8009063486A
:109320004FF41651A56D0068B0FBF1F72E6894F864
:109330005C20082101FA02F030420FD02068026858
:1093400052070BD5026822F00402026094F85C0018
:109350008140A960606D40F00100606594F85C1088
:109360004FF0010808FA01F0304208D0216849693D
:10937000090604D5A860606D40F00200606594F8AD
:109380005C1004208840304208D0216809688907B1
:1093900004D5A860606D40F00400606594F85C102E
:1093A00010208840304218D021680968090714D578
:1093B000A86020680168490304D50068000308D547
:1093C000A16C07E00168C90503D4016821F0080118
:1093D0000160216C09B12046884794F85C10202078
:1093E0008840304231D021680968C9062DD5A8606F
:1093F00094F8350005282068016806D0490347D550
:10940000006800031DD4616C1CE021F016010160AE
:109410002068416921F080014161206C08B9A06C8D
:1094200020B12068016821F00801016094F85C1007
:109430003F208840A86084F8358084F83490216DFE
:109440001FE0E16B09B120468847606D00282BD0F2
:10945000606DC00714D0052084F8350020680168CD
:1094600021F0010101600098401C0090B84203D82F
:1094700020680068C007F6D184F8358084F83490FD
:10948000E16C002910D001B02046BDE8F043084748
:109490000168C905D5D4016821F01001016084F884
:1094A000358084F83490CCE7BDE8F88344DB0000D5
:1094B0002DE9F041044600F0ABF905465CB102200D
:1094C00084F83500002684F834602068016821F0B3
:1094D000010101600DE00120BDE8F08100F098F984
:1094E000401B052805D920206065032084F835003D
:1094F000F2E720680068C007F0D121680A682048B8
:109500000240D4E901031843D4E903352B4318433F
:1095100063691843A3691843E3691843236A18432E
:109520001043626A042A03D1D4E90B231A4310437F
:10953000086020684069656A20F0070128460D43ED
:10954000012704280CD1A06A0543E06A40B12046F7
:10955000FFF7E0F920B14020606584F83570BAE784
:10956000206845612046FFF7C1F994F85C203F214F
:1095700091408160666584F835700020ACE700009A
:109580003F8010F02DE9F0410446866D90F83400DC
:10959000002501280DD0012084F8340094F835709E
:1095A0000020012F07D084F8340002252846BDE8AA
:1095B000F0810220FBE7022784F8357060652046C1
:1095C000FFF7D2F994F85C103F208840B060206823
:1095D000016841F016010160206C20B1206801682B
:1095E00041F0080101602068016841F0010101605B
:1095F000DCE7000070B5044600F00AF90546601C7F
:1096000002D004480078044400F002F9401BA04254
:10961000FAD370BD38DB00002DE9F84FDFF8B091C8
:109620000022A9F1040B03274FF00F0C09F1040AE3
:10963000ABF1040E01250B6895402B40AB426ED177
:109640000C7904F00304012C01D0022C15D186689A
:10965000540007FA04F826EA0806D1F80C8008FA44
:1096600004F848EA0608C0F808804468AC430D795D
:10967000C5F300159540254345600C79E443A407E4
:1096800008D0C568540007FA04F6B5438E68A640B2
:109690002E43C6600C7904F00304022C11D1D408C7
:1096A00000EB8406356A5407E40E0CFA04F825EA48
:1096B0000805D1F8108008FA04F848EA0508C6F849
:1096C00020800568540007FA04F6B5430E7906F0C9
:1096D0000306A6402E4306604C6814F4403F70D049
:1096E0003C4C256845F480452560246822F003053C
:1096F00004F480440094384C05EB0408D8F808586A
:109700009407260F0CFA06F4A543344CA04201D16D
:1097100000242EE0324CA04202D1012429E050E086
:10972000304CA04201D1022423E02F4CA04201D1B1
:1097300003241EE02D4CA04201D1042419E02C4C3E
:10974000A04201D1052414E02A4CA04201D10624F4
:109750000FE0294CA04201D107240AE0274CA04287
:1097600001D1082405E0264CA04201D1092400E0E3
:109770000A24B4402C43C8F80848D9F800404D46A4
:109780004E689C43F60200D51C432C60DAF800407A
:1097900055464E689C43B60200D51C432C60DBF84E
:1097A00000405D464E689C43B60300D51C432C60C8
:1097B000DEF8004075464E689C43F60300D51C4316
:1097C0002C60521C102AFFF435AFBDE8F88F000062
:1097D000083C014044380240003001400000024093
:1097E0000004024000080240000C02400010024049
:1097F0000014024000180240001C024000200240F9
:10980000002402400AB1816170470904FBE70000AF
:10981000014880687047000038DB0000024881681A
:10982000027811448160704738DB00000B4810B5A6
:10983000016841F400710160016841F480610160D8
:10984000016841F480710160032000F073F80F207B
:1098500000F006F800F024F8002010BD003C0240A3
:1098600070B50D4D04464FF47A712878B1FBF0F0D5
:109870000A490968B1FBF0F000F03EFB48B9102C32
:1098800007D200222146501E00F034F800206C6000
:1098900070BD012070BD000038DB000044DB00001B
:1098A0000C4882B0016841F480410160006800F416
:1098B000804000900748001F016841F0805101601E
:1098C0000068002200F0805000900F21901E02B02E
:1098D00000F010B844380240002809DB00F01F02F5
:1098E000012191404009800000F1E020C0F8001102
:1098F00070470000F0B40E4B1B68C3F30223C3F1A2
:109900000704042C00D904241D1D072D01D20023B7
:1099100000E0DB1E012606FA04F56D1E0D409D4099
:109920009E40761E164045EA0601F0BC02F01CBAC5
:109930000CED00E0064A00F0070110684FF6FF0347
:10994000184040EA012003490843106070470000B6
:109950000CED00E00000FA052DE9F8431748016816
:1099600041F0805101600068DFF8548000F08050C1
:1099700001270090C8F84070FFF74AFF04464FF4F3
:109980007A75104E04E0FFF743FF001BA8420DD884
:109990007068C003F7D5C8F84470FFF739FF044674
:1099A00007E0FFF735FF001BA84202D90320BDE8FE
:1099B000F88370688003F4D50020F8E7403802404F
:1099C00000000E42007000402DE9F0470D460400F3
:1099D00065D0DFF81491D9F80000EFB200F00F0065
:1099E000A84207D289F80070D9F8000000F00F00F3
:1099F000A84254D120683D4E810712D5400703D5B7
:109A0000306840F4E05030602078000703D53068BB
:109A100040F4604030603068A16820F0F0000843F6
:109A200030602078C0072DD030496068083901289F
:109A300012D0022813D0032811D009688907002901
:109A40002DDA316821F0030101433160FFF7E0FEB8
:109A5000804641F2883A0EE009688903EFE7096819
:109A60008901ECE7FFF7D4FEA0EB0801514502D9CC
:109A70000320BDE8F0873068616800F00C00B0EBAF
:109A8000810FEFD1D9F80010484601F00F01A9422B
:109A900007D90770006800F00F00A84201D001202C
:109AA000E7E72078400705D53068E16820F4E0500A
:109AB000084330602078000706D53068216920F41B
:109AC000604040EAC100306000F038F83168084A70
:109AD000C1F30311515CC84006490860064800689C
:109AE000FFF7BEFE0020C4E7003C024008380240F9
:109AF00058D7000044DB00003CDB00000448054967
:109B000000680968044AC1F38221515CC84070476B
:109B100044DB00000838024068D7000004480549CB
:109B200000680968044AC1F34231515CC84070477B
:109B300044DB00000838024068D70000154810B523
:109B4000006810F00C01144813D0144B04290FD0F6
:109B500008290ED10F4C241F216801F03F02216813
:109B6000490207D52068C0F38810A0FB030106E076
:109B7000184610BD2168C1F38811A1FB0001002324
:109B8000FEF792FB2168C1F30141491C4900B0FB7B
:109B9000F1F010BD083802400024F400001BB700AB
:109BA0002DE9F84F040075D02078DFF838A3C007FE
:109BB000AAF1040548D00AF104000168C1F381014B
:109BC000012908D00068C0F3810002280AD1DAF820
:109BD0000000400206D52868800335D5606800285B
:109BE000E1D031E06068B0F5803F10D0B0F5A02F33
:109BF000286810D020F480302860286820F4802065
:109C000028606068A0B1FFF703FE06460CE02868F4
:109C100040F48030F4E740F480202860F7E7FFF755
:109C2000F7FD801B642871D828688003F7D50BE006
:109C3000FFF7EEFD064604E0FFF7EAFD801B64280F
:109C4000F1D828688003F7D42078DFF89C92800749
:109C50004FF0000B3DD5A348001D016811F00C0F1B
:109C600008D00068C0F3810002280AD1DAF80000A9
:109C7000400206D42868800715D5E068012809D17C
:109C800011E0E068B8B10120C9F80000FFF7C0FD9D
:109C9000064605E022E1FFF7BBFD801B0228C2D883
:109CA00028688007F7D52868216920F0F80040EA85
:109CB000C10028600DE0C9F800B0FFF7A9FD064615
:109CC00004E0FFF7A5FD801B02281FD82868800745
:109CD000F7D42078000722D5824F84486169703715
:109CE00071B101210160FFF793FD064604E0FFF723
:109CF0008FFD801B022809D838688007F7D50EE051
:109D0000C0F800B0FFF784FD064605E082E0FFF7EB
:109D10007FFD801B02287DD838688007F7D4207823
:109D2000400765D56F484FF000083C300068C00020
:109D30000BD46C483C30016841F0805101600068F0
:109D40004FF0010800F080500090694F3868C0055E
:109D50000FD4386840F480703860FFF759FD06462C
:109D600004E0FFF755FD801B022853D83868C00572
:109D7000F7D55C4FA0686C3701280FD005283868EC
:109D800010D020F001003860386820F004003860FE
:109D9000A068B0B1FFF73CFD06460EE0386840F021
:109DA0000100F4E740F004003860F7E7FFF730FD0A
:109DB000811B41F28830814263D838688007F5D52D
:109DC0000DE0FFF725FD064606E0FFF721FD811BAC
:109DD00041F28830814254D838688007F5D4B8F110
:109DE000000F05D03F483C30016821F080510160F0
:109DF000A069B8B33B49091D0968C1F38101022973
:109E000046D00228584606D0C9F86000FFF700FD8A
:109E1000044639E035E04F46C9F86000FFF7F8FC2A
:109E2000064604E0FFF7F4FC801B022829D82868C6
:109E30008001F7D4D4E907010843A16A2D4A4908F3
:109E400002EB0141626A41EA8211084394F82C1046
:109E500040EA0161CAF8001001203866FFF7D8FC1B
:109E6000044605E03CE0FFF7D3FC001B022808D8BD
:109E700028688001F7D533E0FFF7CAFC001B0228F1
:109E800002D90320BDE8F88F28688001F4D427E0C8
:109E90000128F7D0DAF80000E26900F4800191426D
:109EA0001CD1226A00F03F01914217D147F6C071E0
:109EB000626A0140B1EB821F10D1A26A4FF0FF33FA
:109EC00000F4403103EB5202B1EB024F06D194F89B
:109ED0002C1000F07060B0EB016F01D00120D1E7D1
:109EE0000020CFE70438024000004742800E47427E
:109EF000007000400000FFFF10B5401EB0F1807FF1
:109F000001D3012010BD4FF0E02460610F216017E4
:109F100001F02AFF0020A06107202061002010BD71
:109F200070B590F83C20012A32D0012580F83C50D1
:109F3000022280F83D2002685368946823F070067E
:109F40000B6833435360134B02689A4214D0B2F14A
:109F5000804F11D0104B9A420ED0104B9A420BD02A
:109F60000F4B9A4208D00F4B9A4205D00E4B9A42A3
:109F700002D00E4B9A4204D1496824F08003194361
:109F8000916080F83D50002180F83C10084670BD7B
:109F9000022070BD000001400004004000080040A5
:109FA000000C004000040140004001400018004047
:109FB00010B5040003D094F83D0010B107E0012073
:109FC00010BD002084F83C00204600F01FF802205D
:109FD00084F83D00211D206801F0F4F9012084F887
:109FE000460084F83E0084F83F0084F8400084F87E
:109FF000410084F8420084F8430084F8440084F867
:10A00000450084F83D00002010BD000008B5006840
:10A01000B0F1804F08D10548016841F001010160AD
:10A02000006800F00100009008BD000040380240C8
:10A0300070B5044690F83C000025012817D0012691
:10A0400084F83C60022084F83D002068826822F099
:10A05000770222F47F4282600868502838D00DDCF5
:10A0600020284FD005DC90B3102811D14AE00220FF
:10A0700070BD302846D040280AD13BE060282FD060
:10A0800070280DD0B0F5805F03D0B0F5005F12D01E
:10A09000012584F83D60002084F83C00284670BD0E
:10A0A000CB68D1E90121206801F005FA20688168B8
:10A0B00041F0770109E0CB68D1E90121206801F086
:10A0C000FAF92068816841F480418160E1E719E094
:10A0D000CA684968206801F0C3FA5021206806E088
:10A0E000CA684968206801F0CCFA6021206801F054
:10A0F000ECF9CEE7CA684968206801F0B1FA40215E
:10A100002068F4E7226801461046F0E710B586B0F3
:10A11000044614216846FEF711F92068B0F1804F1B
:10A1200014D10B480021026842F00102026000686D
:10A1300000F00100059002200090CDE9010101200E
:10A14000CDE9031069460348FFF766FA06B010BD73
:10A15000303802400000024070B5044690F83C00E0
:10A1600000260D4601280FD0012084F83C006AB17A
:10A17000042A1DD0082A2FD00C2A3FD00126002007
:10A1800084F83C00304670BD022070BD206801F0AC
:10A19000A5F92068816941F0080181612068816921
:10A1A00021F004018161206881692A69114311E06D
:10A1B000206801F0C3F92068816941F40061816180
:10A1C0002068816921F480618161206881692A6940
:10A1D00041EA02218161D2E7206801F0E5F92068B7
:10A1E000C16941F00801C1612068C16921F0040121
:10A1F000C1612068C1692A69114311E0206801F03A
:10A2000007FA2068C16941F40061C1612068C16931
:10A2100021F48061C1612068C1692A6941EA022193
:10A22000C161ACE710B5040003D094F83D0010B153
:10A2300007E0012010BD002084F83C00204600F01B
:10A240001EF8022084F83D00211D206801F0BAF8B4
:10A25000012084F8460084F83E0084F83F0084F82A
:10A26000400084F8410084F8420084F8430084F8F8
:10A27000440084F8450084F83D00002010BD70477C
:10A2800010B5044649B104290AD008290BD094F826
:10A29000410001280AD0012010BD94F83E00F8E7E3
:10A2A00094F83F00F5E794F84000F2E70220B1B3DC
:10A2B000042938D0082939D084F8410001222068C7
:10A2C00001F0ECF81B4920681B4A884201D09042FB
:10A2D00003D1436C43F4004343642068884213D0A5
:10A2E000B0F1804F10D0154988420DD014498842F2
:10A2F0000AD01449884207D0904205D012498842BA
:10A3000002D01249884204D1816801F00701062970
:10A3100003D0016841F001010160002010BDFFE79A
:10A3200084F83E00CAE784F83F00C7E784F840009D
:10A33000C4E70000000001400004014000040040A8
:10A3400000080040000C00400040014000180040A0
:10A35000704710B504460068406994F84110C0F396
:10A36000C010212911D180B12068143050E8001F9D
:10A3700021F0800140E80012002AF5D1A06B08B15D
:10A38000FEF76BFF204601F03BFA2068406994F825
:10A390004210C0F38010222911D180B120681430FE
:10A3A00050E8001F21F0400140E80012002AF5D1DA
:10A3B000E06B08B1FEF751FF204601F0FAF90020EA
:10A3C00010BD7047F8B5016804460868CA684B6953
:10A3D00010F00F0F4FF0000559D003F0010602F402
:10A3E0009077374365D0C10705D0D10503D5616C9F
:10A3F00041F001016164410705D5D90703D0616CC3
:10A4000041F002016164810705D5D90703D0616C71
:10A4100041F004016164010707D502F020013143D6
:10A4200003D0616C41F008016164616C00293AD08D
:10A43000800604D5900602D5204601F0EFF9206889
:10A440004069616CC0F38010090700D460B32046F6
:10A4500001F0AFF920684069400621D5206814302A
:10A4600050E8001F21F0400140E80012002AF5D119
:10A47000E06BA8B16E490165E06BFEF737FF00287D
:10A4800011D0E06B016D01B0BDE8F04008478306D4
:10A490000FD593060DD52046BDE8F84001F0BEB9B2
:10A4A0002046FFF78EFFF8BD2046FFF78AFF656460
:10A4B000F8BD266B2023012E7DD1C6067BD5D6069E
:10A4C00079D508684868009048694FF00206400650
:10A4D00041D5E16B086840680004000CE8D0A28D0B
:10A4E0008242E5D9E085C869B0F5807F2DD020682B
:10A4F0000C3050E8001F21F4807140E80012002A5F
:10A50000F5D12068143050E8001F21F0010140E827
:10A510000012002AF5D12068143050E8001F21F005
:10A52000400140E80012002AF5D184F8423025634A
:10A5300020680C3050E8001F21F0100140E80012A4
:10A54000002AF5D1E06BFEF788FE6663A08DE18DF1
:10A55000401A81B22AE0A08DE18D401A81B2E08DCF
:10A560000028A5D00029A3D020680C3050E8002F87
:10A5700022F4907240E80027002FF5D120681430B3
:10A5800050E8002F22F0010240E80027002FF5D10B
:10A5900084F84230256320680C3050E8002F22F008
:10A5A000100240E80023002BF5D166632046FFF738
:10A5B000CFFEF8BDFFE705062BD5150629D594F883
:10A5C00041002128F5D1A068B0F5805F01D1206954
:10A5D000B0B1206A411C2162216800784860E08C9B
:10A5E000401E0004000CE084E3D12068C16821F023
:10A5F0008001C1602068C16841F04001C160D8E7B6
:10A60000206A0088C0F308004860206A801C20622D
:10A61000E5E74006CDD55006CBD5CA68204622F0E6
:10A620004002CA6084F8413000F036FAC1E7000009
:10A63000B5B6000070B5040004D094F841000025C0
:10A6400010B106E0012070BD84F84050204600F0B3
:10A6500023F8242084F841002068C16821F40051C7
:10A66000C160204601F03CF92068016921F4904165
:10A6700001612068416921F02A0141612068C168B7
:10A6800041F40051C1606564202084F8410084F8E1
:10A6900042006563002070BD2DE9F04F87B004468D
:10A6A00014216846FDF74AFEBD48BC4A2368DFF81E
:10A6B000F0C21038022103270025934222D1DCF892
:10A6C000002042F08042CCF80020DCF8002002F0AC
:10A6D00080420592026842F010020260006800F0B9
:10A6E00010000590F8018DE8A30008200490694649
:10A6F000AC48FEF791FF002205215220FFF7FAF83F
:10A7000052205AE0DFF8A082DFF894E207220EF12F
:10A71000040E4FF000694FF4403A4FF48066434511
:10A7200050D1DEF800C04CF0100CCEF800C0DEF8BE
:10A73000003003F010030593036843F00203036045
:10A74000036803F002030593036843F00103036009
:10A7500000688B4600F0010005908020CDE9000BD9
:10A7600002AB904683E8A00169469048FEF754FF8B
:10A770007010CDE9000B02AB694683E8A0018C485C
:10A78000FEF74AFF8C4F8B483860C7E90195C7E94F
:10A79000035680157D61C7E90650C7E908A538460C
:10A7A000FEF786FE08B1FEF7F4F8E7630022052104
:10A7B0002520BC63FFF79EF82520FFF78DF807B032
:10A7C000BDE8F08FDFF8F4814FF0400B434535D101
:10A7D000DCF8003043F40033CCF80030DCF8003013
:10A7E00003F400330593036843F008030360006833
:10A7F000049200F00800059060208DE8A3006946EF
:10A800006F48FEF709FF6C4F6E486037C7E9035683
:10A810007D61BD61C7E9075A7D6287E8010A384654
:10A82000FEF746FE08B1FEF7B4F8A7630022052143
:10A830002620BC63FFF75EF82620BEE7DFF888819C
:10A84000434555D1DCF80030A84643F48023CCF8CA
:10A850000030DCF8003003F480230593036843F0F4
:10A86000080303600068049200F0080005904FF4AC
:10A8700040708DE8A30069465148FEF7CDFE4E4872
:10A880005049C0304F46C0E9035645618561C0E973
:10A89000075A4839456280E88208B1465646FEF7B5
:10A8A00007FE08B1FEF775F84348484DC030A06375
:10A8B000846344487838C5E90007C5F80880C5E9CD
:10A8C0000389C5F81480C5F81880C5E907862846AD
:10A8D000C5F82480FEF7ECFD08B1FEF75AF8E563F1
:10A8E000002205212720AC63FFF704F8272064E746
:10A8F000374A93427FF463AFDEF8003043F0200321
:10A90000CEF80030DEF8002002F020020592026846
:10A9100042F040020260006800F0400005904FF4F1
:10A9200084408DE8A3000820049069462948FEF77A
:10A9300073FE264F1F4860376030C7E903567D61BC
:10A94000BD61FD613D624FF020687D6287E80109CD
:10A950003846FEF7ADFD08B1FEF71BF8A763BC63F0
:10A960001A4F1448C03718383860C7E90185C7E95D
:10A9700003567D61BD61FD613D6238467D62FEF733
:10A9800097FD08B1FEF705F8E7630022052147208F
:10A99000BC63FEF7AFFF47200FE7000000780040E0
:10A9A0004038024000100240001001400004024004
:10A9B000000002404064024058E0000000440040B3
:10A9C000000C0240A06002400048004078E1000016
:10A9D000001401400018024090F84230202B01D0B2
:10A9E0000220704721B11AB10023036300F0FEBFBB
:10A9F00001207047704770472DE9F843044690F8EE
:10AA000041001F4615460E46202802D00220BDE810
:10AA1000F8838EB185B100206064212084F8410064
:10AA2000FEF7F6FEA5848146E584A0684FF0200875
:10AA3000B0F5805F02D003E00120E8E7206910B1A3
:10AA4000354600260EE000250CE08021204601F06E
:10AA500017F8A0B9BDB115F8010B21684860E08C6A
:10AA6000401EE084E08C4B464FF000020097002827
:10AA7000EBD14FF04001204601F002F840B184F8DC
:10AA800041800320C3E736F8020BC0F30800E4E777
:10AA900084F841800020BAE77047FEE72DE9F041D5
:10AAA00004004FF0000609D05E4D2068C5F817007D
:10AAB0002079E8762078A52803D0AFE0FA20BDE819
:10AAC000F0810521204601F033F9012701284BD1FF
:10AAD00061782046093101F00DF9012844D1B4F81C
:10AAE0000500012640F20222A0F202214FF48173F8
:10AAF000904265D017DC984251D00ADC01283CD046
:10AB0000022840D0032841D0A0F5807001382BD115
:10AB100040E0B0F5827F47D0A0F58070053847D07F
:10AB2000FC2821D147E0042960D006DC01294CD063
:10AB3000022951D0032917D151E005295CD00629FB
:10AB400062D0994210D13848D4F8071040F8221F3B
:10AB5000D4F80B104160D4F80F108160007A4007E0
:10AB600002D532A001F0F8F82E4809341730B0F8B9
:10AB70000100015DA5294BD04DE0B4F80700A88184
:10AB8000607AA873F0E7E079A870EDE72422E11D70
:10AB900028481EE0D4F80700C5F80F00E4E7D4F811
:10ABA0000700C5F81300DFE7B4F807006881DBE7AA
:10ABB000E079E870D8E71F481A22E11D243008E048
:10ABC0001C481022E11D3E3003E01A481022E11D0E
:10ABD0004E30FDF79AFBC7E7E0792871C4E7B4F877
:10ABE0000700A5F80500607AE871BDE7E079A87173
:10ABF0000009B9D16F70B7E7D4F80700C5F8220093
:10AC0000B4F80B00E884AFE7B4F80700A883ABE71B
:10AC10002044FFF743FF0EB12F7001E000202870A1
:10AC200030464CE76CDB0000E4E70000636C6963CE
:10AC30006B0000003EE900000F4810B50D490160AF
:10AC40000321416000214FF400228160C0E903121A
:10AC5000D2004261017641768176C17601774177F3
:10AC6000FEF737F9002803D0BDE81040FDF791BE8C
:10AC700010BD00000064004058DE00000F4810B511
:10AC80000D4901600321416000214FF430228160B1
:10AC9000C0E903124FF48012426101764176817659
:10ACA000C17601774177FEF714F9002803D0BDE89B
:10ACB0001040FDF76EBE10BD0068004080DE000051
:10ACC000214808B5016841F480010160016801F480
:10ACD00080010091016841F40011016000680022C8
:10ACE00000F40010009005210C20FEF703FE0C205C
:10ACF000FEF7F2FD002205210E20FEF7FBFD0E20DF
:10AD0000FEF7EAFD002205211120FEF7F3FD1120D8
:10AD1000FEF7E2FD002205213920FEF7EBFD392088
:10AD2000FEF7DAFD002205213A20FEF7E3FD3A2086
:10AD3000FEF7D2FD002205214520FEF7DBFDBDE830
:10AD400008404520FEF7C8BD3038024010B5A4B019
:10AD50001C221C496846FDF7D8FA0021684601F01C
:10AD600069FE194C17491C2220611C3107A8FDF708
:10AD7000CCFA002107A801F05DFE124920601C22D8
:10AD800038310EA8FDF7C1FA00210EA801F052FEDD
:10AD90000C4960601C22543115A8FDF7B6FA002159
:10ADA00015A801F047FE0749A0601C2270311CA8BD
:10ADB000FDF7ABFA00211CA801F03CFEE06024B0D6
:10ADC00010BD0000C4D600001CDB00002DE9F043DC
:10ADD00087B014216846FDF7B1FA3A4800240168AB
:10ADE00041F040010160016801F0400105910168F6
:10ADF00041F001010160016801F001010591016864
:10AE000041F002010160016801F002010591016851
:10AE100041F008010160016801F008010591016835
:10AE200041F020010160016801F0200105910168F5
:10AE300041F080010160016801F080010591016825
:10AE400041F01001016000681F4F00F0100044F253
:10AE500003050590002229463846FEF7D3FCDFF8AB
:10AE60006C8000223C214046FEF7CCFCDFF860906D
:10AE7000EE10002231464846FEF7C4FC009501253D
:10AE8000CDE90154694638460394FEF7C5FB3C20E2
:10AE90000090CDE90154694640460394FEF7BCFB9F
:10AEA00040208DE8310069460A48FEF7B5FB009660
:10AEB000CDE90154694648460394FEF7ADFB07B05F
:10AEC000BDE8F0833038024000140240001C02400C
:10AED000001002400000024010B58EB0002407941C
:10AEE000089409940A940B941C2168460C94FDF76D
:10AEF00025FA1E484FF080410160A721C0E90114E6
:10AF000042F20F71C0E903148461FFF751F808B1F0
:10AF1000FDF73FFD4FF48050079007A91348FFF756
:10AF200087F808B1FDF735FD1048FFF77BF908B148
:10AF3000FDF72FFD0B940BA90C480C94FEF7F0FFC6
:10AF400008B1FDF726FD6020CDE90004029404223B
:10AF5000694606480494FFF7FFF808B1FDF719FDAC
:10AF60000248FFF7D3F80EB010BD0000A8DE0000C5
:10AF70000C4810B50A4901604FF4E13141600021ED
:10AF800081600C22C160C0E904128161C161FFF7D8
:10AF900051FB002803D0BDE81040FDF7FABC10BDFE
:10AFA00000780040F0DE00000D4810B50B4901604C
:10AFB0000C49416000214FF40052C0E90212D21046
:10AFC00002610C22C0E90521C161FFF733FB0028B3
:10AFD00003D0BDE81040FDF7DCBC10BD00100140FF
:10AFE00038DF0000A08601000C4810B50A49016056
:10AFF0004FF4E1314160002181600C22C160C0E961
:10B0000004128161C161FFF715FB002803D0BDE880
:10B010001040FDF7BEBC10BD0044004080DF0000C2
:10B020000C4810B50A4901604FF4E131416000213C
:10B0300081600C22C160C0E904128161C161FFF727
:10B04000F9FA002803D0BDE81040FDF7A2BC10BDFE
:10B0500000480040C8DF00000C4810B50A490160F4
:10B060004FF4E1314160002181600C22C160C0E9F0
:10B0700004128161C161FFF7DDFA002803D0BDE849
:10B080001040FDF786BC10BD0014014010E0000028
:10B09000FEE7FEE7A0B1D0ED101AC0ED111A90ED59
:10B0A0000F1A80ED101AC0ED060A80ED070A30EE87
:10B0B000C00A80ED0F0A017829B101293BD078E060
:10B0C0009FED3D0A7047D0ED010A60EE801AC0ED99
:10B0D000091AD0ED0A0A90ED022A42EE000A30EE7B
:10B0E000410AC0ED0A0A90ED0D2A80ED0E2A90ED7E
:10B0F0000C2A80ED0D2A80ED0C0A90ED031A21EE4A
:10B10000001A80ED0B1A90ED050AF4EEC00AF1EE7C
:10B1100010FA09DCB1EE400AF4EEC00AF1EE10FAC2
:10B1200002D390ED0A0A01E080ED0A0A31EE800AAE
:10B1300030EE010A2BE070EE410A90ED012A60EE3C
:10B14000820AC0ED090A90ED022A22EE002A80ED63
:10B150000A2AD0ED0D2A70EE820AC0ED0E2AD0ED3B
:10B160000C2AC0ED0D2AF0EE002A01EE620A30EE44
:10B17000210A80ED0C0A90ED031A21EE000A80ED01
:10B180000B0A30EE800AD0ED080A30EE200A80ED7E
:10B19000080AD0ED040AB4EEE00AF1EE10FA06DC7B
:10B1A000F1EE600AB4EEE00AF1EE10FA01D2C0ED61
:10B1B000080A90ED080A704700000000002828D017
:10B1C000002A26D0017092ED001A80ED011A92ED4E
:10B1D000011A80ED021A92ED021A80ED031A80ED39
:10B1E000040A9FED0C0AC0ED050A80ED0E0A80ED01
:10B1F0000D0A80ED0C0A80ED080A80ED0B0A80ED47
:10B200000A0A80ED090A80ED110A80ED100A80ED2E
:10B210000F0A70470000000030B5144C23685D69C8
:10B2200045F040055D612368DC6844F01004DC6093
:10B230000F4C23681D6825F001051D6023681D68FB
:10B24000ED07F7D125680B4BAB602368D860206809
:10B250000161206842602068016841F4802101603A
:10B260002068016841F00101016030BD38DF000055
:10B2700058E0000004100140FFF702B8DFED190AA2
:10B28000B5EEC00AF1EE10FA02D29FED170A06E001
:10B2900010EE102A154B9A4201DDB0EE600A9FEDC8
:10B2A000141A006820EE011A81EE200A30EE200AFE
:10B2B00049B104290DD0BCEEC00A082910EE101ABD
:10B2C0000DD001647047BCEEC00A10EE101A416345
:10B2D0007047BCEEC00A10EE101A81637047C1635C
:10B2E000704700000000FA43000000000000FA432D
:10B2F0000000FA44012001F091FBFBE710B5FEF7D6
:10B300008DFA02F009F9012803D0BDE8104002F0DF
:10B3100093B810BD30B593B030216846FDF70EF8F4
:10B3200014210CA8FDF70AF820480025016841F017
:10B3300080510160006800F0805011901C48016845
:10B3400041F4404101600068022400F44040119043
:10B3500001200090000401908001CDE90640062004
:10B360000890B420CDE9090404200B906846FEF74C
:10B3700017FC08B172B6FEE7FEF7EEFA08B172B636
:10B38000FEE70CA90F2081E831004FF4A0500F9088
:10B390004FF48050109005210CA8FEF715FB0028F3
:10B3A00001D072B6FEE713B030BD00004038024055
:10B3B000007000400248016841F47001016070476C
:10B3C00088ED00E0F0B50268294D2A4E2A4FDFF8DB
:10B3D000ACC02B4B4FF0804EA84209D0704507D02F
:10B3E000B04205D0B84203D0604501D0984203D1A5
:10B3F00022F070044A682243A8421BD0704519D03D
:10B40000B04217D0B84215D0604513D0984211D041
:10B410001C4CA0420ED01C4CA0420BD01B4CA04296
:10B4200008D01B4CA04205D01A4CA04202D01A4CA6
:10B43000A04203D122F44074CA6822434C6922F02E
:10B440008002224302608A68C2620A688262A8425D
:10B4500001D0984201D1096901630121416101696B
:10B46000C90703D0016921F001010161F0BD0000AD
:10B47000000001400004004000080040000C0040B3
:10B4800000040140004001400044014000480140E8
:10B4900000180040001C00400020004010B501F0E2
:10B4A0001F010123046A8B409C430462036A8A40A3
:10B4B0001343036210BD10B5846842EA032224F4EA
:10B4C0007F440A432243826010BD826822F07002EA
:10B4D0000A4342F00701816070470000F0B5026A3C
:10B4E000036A23F00103036243688469114E24F068
:10B4F00073050C68104F2C4322F002058A682A431A
:10B50000B04201D0B84205D122F00805CA682A43EA
:10B5100022F00402B04201D0B84205D14D6923F4B3
:10B5200040731D438B692B434360846149684163C9
:10B530000262F0BD0000014000040140F0B5026A63
:10B54000036A23F010030362436884690D6824F4DE
:10B55000E64444EA05248D6822F0200242EA0512FE
:10B560000F4D104EA84201D0B04206D1CF6822F054
:10B57000800242EA071222F04002A84201D0B04203
:10B5800007D14D6923F4406343EA85038D6943EA9B
:10B59000850343608461496881630262F0BD0000F5
:10B5A0000000014000040140F0B5026A036A23F480
:10B5B000807303624368C46922F4007224F0730547
:10B5C0000C68124E2C438D6842EA05220E4DA842AB
:10B5D00001D0B04206D1CF6822F4006242EA0722CD
:10B5E00022F48062A84201D0B04207D14D6923F411
:10B5F000405343EA05138D6943EA05134360C46170
:10B600004968C1630262F0BD0000014000040140CE
:10B6100030B5036A026A22F4805202624268C46949
:10B620000D6824F4E64444EA05248D6823F40053AD
:10B6300043EA0533084DA84202D0084DA84204D180
:10B640004D6922F4804242EA85124260C461496831
:10B650000164036230BD00000000014000040140AD
:10B6600010B5046A036A23F001030362836923F0BF
:10B67000F00343EA021324F00A020A4383610262E0
:10B6800010BD10B5036A046A24F0100404628469D2
:10B6900023F0A00324F4704444EA023243EA011187
:10B6A0008261016210BD00000148FEF78BBE000000
:10B6B000F0DE000010B5806B0021C185C184FEF76B
:10B6C00080FE10BD70B5846B2068406994F841100D
:10B6D000C0F3C0100025212904D118B1E58420460B
:10B6E00000F08EF82068406994F84210C0F3801092
:10B6F000222904D118B1E585204600F05AF8606C83
:10B7000040F0100060642046FEF75BFE70BD10B58F
:10B710000146806B096809684FF00003C9052ED403
:10B72000C38501680C3151E8002F22F4807241E892
:10B730000024002CF5D10168143151E8002F22F0CB
:10B74000010241E80024002CF5D10168143151E8D0
:10B75000002F22F0400241E80024002CF5D12021E6
:10B7600080F84210016B012909D101680C3151E8C0
:10B77000002F22F0100241E80024002CF5D1436391
:10B78000016B012902D0FFF735F910BD818DFEF75D
:10B79000DFFD10BD10B5806B01214163016B0129F4
:10B7A00002D0FFF728F910BD818D4908FEF7D0FDC2
:10B7B00010BD01680C3151E8002F22F4907241E86D
:10B7C0000023002BF5D10168143151E8002F22F03D
:10B7D000010241E80023002BF5D1016B012909D1B9
:10B7E00001680C3151E8002F22F0100241E80023DB
:10B7F000002BF5D1202180F8421000210163704711
:10B8000001680C3151E8002F22F0C00241E800230A
:10B81000002BF5D1202180F84110704708B590F831
:10B820004210222901D0022008BD81684FF48053C4
:10B83000994201D1026922B1826A99421BD049B171
:10B840000AE00268816A5268C2F308020A80816ACB
:10B85000891C08E0016971B10168496801F07F0144
:10B860001170816A491C8162C18D491E0904090C4D
:10B87000C18503D01BE001684968F1E70168CA6827
:10B8800022F02002CA600168CA6822F48072CA608D
:10B8900001684A6922F001024A61202180F84210C1
:10B8A00000214163026B012A03D0FFF7A3F80020B7
:10B8B00008BD016301680C3151E8002F22F010022D
:10B8C00041E80023002BF5D101680A68D20602D5B1
:10B8D0000A6849680091818DFEF73AFDE7E70000AC
:10B8E00070B5044600680169E26821F440511143D3
:10B8F0000161A1682069E269014360691043014365
:10B900002068C26849F20C639A430A43C260206807
:10B910004169A26921F440711143416131492068B4
:10B92000884202D03049884202D1FEF7F7F801E0A0
:10B93000FEF7E4F8E2690023192164253226B2F506
:10B94000004F626828D0A0FB0101930F9200FCF722
:10B95000ABFC0146B0FBF5F06FF01802504301EB71
:10B96000800006EB0010B0FBF5F000F0F002B1FB38
:10B97000F5F002EB0012B1FBF5F06FF0180358433D
:10B9800001EB800006EB0010B0FBF5F000F00F00BB
:10B9900021681044886070BDA0FB010192185B41D2
:10B9A000FCF782FC0146B0FBF5F00201B1FBF5F0BB
:10B9B0006FF01803584301EB800006EBC000B0FBAA
:10B9C000F5F000F0F80002EB4002B1FBF5F058434F
:10B9D00001EB800006EBC000B0FBF5F000F00700C3
:10B9E000D6E70000001001400014014037B582B0D6
:10B9F0001346039A826204468385002060642221F4
:10BA000084F84210E56B1B49E963E56B1A49296428
:10BA1000E56B1A49E964E16B08652168E06B091D73
:10BA2000FDF7B0FD2068016840680090206948B1CA
:10BA300020680C3050E8001F41F4807140E800128B
:10BA4000002AF5D12068143050E8001F41F00101B0
:10BA500040E80012002AF5D12068143050E8001F99
:10BA600041F0400140E80012002AF5D105B0002065
:10BA700030BD00000FB7000095B70000C5B600004C
:10BA80002DE9F8431F4690460D460446089E23E0E4
:10BA9000701C21D0FDF7BCFEC01BB0421AD8CEB13D
:10BAA0002068C168490717D5802D15D0402D13D0C7
:10BAB0000168C94309070FD4016800254068009058
:10BAC0002046FFF776FE0820606484F8405001208D
:10BAD000BDE8F8830320FBE72068006835EA000032
:10BAE00004D000204045D3D00020F1E70120F9E741
:10BAF00010B50348FEF766FCBDE8104000F002B840
:10BB000038DF0000234818B400680168890604D5AE
:10BB100001684068009018BC70471F490968C90651
:10BB2000F9D5016840681D4A0090106801681C4CF6
:10BB3000090301684FF0320321F00101016011682F
:10BB40004868C0F1320080B220804B600FD4116889
:10BB50000B6843F400230B6011680A6842F001028D
:10BB60000A601928D7D10F4901F12E000EE00E49C5
:10BB70008B6A23F400238B6211680A6842F0010289
:10BB80000A601928C7D1074901F1600018BC01F00B
:10BB9000ABB9000038DF00000010014058E00000A1
:10BBA00060DB0000E4E70000006002400148FEF7AF
:10BBB00009BC000080DF000038B51D48006801683E
:10BBC000C943C9062FD40168406800901848FEF7A1
:10BBD000C0FB184908684268174CC2F1C80292B20B
:10BBE0002280C8234360086801680903016802D401
:10BBF00041F4002101E021F4002101600F491048C7
:10BC0000FCF783FB0E48FEF749FF218811B10B4872
:10BC1000FCF794FBC8210A48FCF790FBC8220749AF
:10BC20000348FEF7D9FEBDE838400148FEF7CABB1D
:10BC3000C8DF000078E1000034DB00009CE9000070
:10BC400076E800000148FEF7BDBB000010E00000F0
:10BC5000FEE7000041F2883001F0E2FA04211F48BB
:10BC6000FFF70AFB1E4D1F4C00F016FC6060B0F998
:10BC70001400002806DA012210212846FDF7C2FD33
:10BC8000012205E0002210212846FDF7BBFD00221D
:10BC900004212846FDF7B6FD6068B0F90E000028C3
:10BCA00005DD4FF0690020809FED0F0A05E00DDAF9
:10BCB0004FF04B009FED0D0A20804FF00401074824
:10BCC000FFF7DCFA6420FDF795FCCDE79FED080A4D
:10BCD00004210248FFF7D2FAC6E70000A8DE000000
:10BCE000001C024064DB00000000D24200009642CB
:10BCF0000000B44230B50C46050014D0022C12D915
:10BD00000A48A11E02892846FCF746FE2919C2B23C
:10BD100011F8023C9A4206D111F8011CB1EB102F28
:10BD200001D1012030BD002030BD00006CDB0000DF
:10BD300030B50C4605000CD0022C0AD9FF22611E3A
:10BD4000FCF740FE291911F8011C814201D10120A4
:10BD500030BD002030BD0000014A024900F023B888
:10BD600029C4000000DC00000907090E002804DBDC
:10BD700000F1E02080F80014704700F00F0000F19F
:10BD8000E02080F8141D704702E008C8121F08C1A7
:10BD9000002AFAD170477047002001E001C1121F4C
:10BDA000002AFBD170472DE9F04116460F460446A4
:10BDB000002503E03946B047641C6D1C207800283C
:10BDC000F8D12846BDE8F08100B58BB000200121F4
:10BDD000CDE9060108910090019002900390059032
:10BDE000049069460C48FCF775FE0B48FDF703FA12
:10BDF00002210948FCF7F4FD0E20099005906946E0
:10BE00000648FCF767FE0548FDF7F5F902210348EF
:10BE1000FCF7E6FD0BB000BD58DE000080DE000040
:10BE200070B514462DED028B002829D0002927D0AB
:10BE3000002C25D0002B23D0144A9FED158A1278B0
:10BE40007AB1012A12D0022A1AD11D461A4600F0F0
:10BE50009DF92868B0F9220000280CDAB0EE000A3B
:10BE60000CE080ED008A81ED008A0CE081ED008A13
:10BE700080ED008A07E006DDB8EE000A84ED000AD6
:10BE8000BDEC028B70BD84ED008AF9E762DB000037
:10BE90000000000030B500281CD0016800230F4AC4
:10BEA000B1F90A10012461B1A1F500759F3D06D0DA
:10BEB00040F29F25E94206D10221117009E0147079
:10BEC00007E0137007E0117829B1012901D0022998
:10BED00000D1037130BD047130BD000062DB000091
:10BEE0007FB504469FED4C0A00200090019002901F
:10BEF0000390D4ED7B1A94ED7C1AD4ED7D0AB1EE5B
:10BF0000612A014672EE412A9FED442A40EE822AC0
:10BF1000CDED002A71EEC12A40EE822ACDED012A34
:10BF200071EE812A9FED3E2A31EE611A684640EE9D
:10BF3000822A00EE821ACDED022A8DED031A2279B3
:10BF4000012A11D100EB810201EB810392ED000A7D
:10BF500004EB8303491CBDEEC00AC9B2042910EEEC
:10BF6000102A1A83EED37FBD00EB8102D2ED000AC6
:10BF700001EB810204EB8202C2ED050AF0EEE00A59
:10BF8000B4EEE00AF1EE10FA01D2B0EE600A491CFC
:10BF9000C9B20429E8D310EE100AB0F1814F12DDC6
:10BFA000B1EE001A0020C1EE000A00EB800104EBA4
:10BFB0008101401C91ED050AC0B2042820EE200A40
:10BFC00081ED050AF1D3002505EB850004EB800027
:10BFD000D0ED050A90ED040A05EBC50004EBC000A6
:10BFE0005830FFF757F86D1CEDB2042DECD300204C
:10BFF00000EBC00104EBC10100EB800291ED1E0AD1
:10C0000004EB8202401CBDEEC00AC0B2042810EE50
:10C01000101A1183ECD37FBD00000000EB5138BE35
:10C02000AF4761BE00284DD00021DFED270A9FED0C
:10C03000271A01EB810200EB82029368B3F9023008
:10C0400000EE103A01EBC10300EBC303B8EEC00AE7
:10C05000491CC9B2042920EE200A82ED040A93ED9E
:10C06000220A20EE010A82ED030AE2D3D0ED091A7A
:10C0700090ED041AD0ED0E0A31EEC10AB1EE411A6C
:10C0800031EE611A30EE202A90ED130A71EE201A7B
:10C0900071EE600A72EE402AB5EE002A71EE801A47
:10C0A00030EEC00ADFED0A0A62EE822A61EE821AE1
:10C0B00020EE020AC0ED782AC0ED791A80EE201A2F
:10C0C00080ED7A1A704700000A01DA390000FA435D
:10C0D000CDCC4C3E70B504002DED028B4BD0012031
:10C0E000207100F0D9F99FED258ADFED258A002522
:10C0F0002060284600F0A6F905EB850104EB8101DC
:10C10000F0EE480A886005EBC50004EBC000B0EE15
:10C11000680A1C4A00215830FFF750F86D1CEDB238
:10C12000042DE6D317499FED188A083904F5E0700D
:10C13000B0EE480A00F05FF91249B0EE480A091F54
:10C1400004F5E87000F057F9B0EE000A84ED7F0ABC
:10C15000B8EE000A84ED800AB7EE080A84ED810A81
:10C16000BFEE080A84ED820A2046BDEC028BBDE8D2
:10C170007040FFF757BFBDEC028B70BD0000FA4462
:10C1800000007A4678D700006F12033B2DE9F0419A
:10C190000E462DED048B144607461168B1F91620A2
:10C1A000002A13DD91F82A104FF0FF35C80701D09F
:10C1B000012004E0880701D5284600E000204A0756
:10C1C00001D5012511E009070FD40DE00DDAB1F911
:10C1D000040000F10A02152A00D20020B1F908502B
:10C1E00005F10A01152900D20025FCF724F99FED7D
:10C1F000238B53EC182BFCF7ACF8FCF72DF909EE68
:10C20000100A6842FCF717F953EC182BFCF7A1F859
:10C21000FCF722F908EE100AB0EE490A04F5E070C6
:10C2200000F0C2F8B0EE480A04F5E87000F0BCF87F
:10C2300019EE100A134A14499FED140A904205DAC8
:10C2400019EE100A884201D284ED710A18EE100A24
:10C25000904205DA18EE100A884201D284ED750A80
:10C2600094ED710A87ED000A94ED750AB1EE400A6B
:10C2700086ED000ABDEC048BBDE8F08100000000F3
:10C280000000E03F90C2F53C90C2F5BC0000000009
:10C2900010B504002DED028B84B021D003469FED34
:10C2A0001F8A02AA8DED008A8DED018A8DED028A2A
:10C2B00001A96846FFF7B4FD2079A8B101280FD184
:10C2C0009DED000A84ED7B0A9DED010A84ED7C0A58
:10C2D0009DED020A84ED7D0A84ED718A84ED758AF4
:10C2E00004B0BDEC028B10BD9DED020A84ED7D0A09
:10C2F00094ED7F1AD4ED800A9DED000A00F084F8D9
:10C3000084ED7B0A94ED811AD4ED820A9DED010A39
:10C3100000F07AF884ED7C0AE2E7000000000000FB
:10C320001CB54FF4FA7000F07BFF1E48FFF7D2FEF9
:10C330000320FCF791F900200090034601220190B0
:10C3400003211046FCF7A6F90120FCF767F96FF00E
:10C3500009030A2203210120FCF7F6F90020FCF76B
:10C36000C1F9104C0F48FFF795FD0E48427901794D
:10C370008A4200D041710B48FFF754FE0948FFF78D
:10C3800087FF0848FFF7ACFDB4F95430B4F94020FA
:10C39000B4F92C10B4F91800FCF718FA022000F0D8
:10C3A0003FFFDFE72CE3000010B510EE103A03600A
:10C3B0008168C26800EE101A00EE902A446830EEE0
:10C3C000201A00EE101AC0EE010A00EE104A20EE0C
:10C3D000801A00EE901A00EE102A70EE801A00EE1D
:10C3E000102AC0EE210A00EE103A00EE801A11EE7B
:10C3F000101A416010BD10EE102AC26009688160F9
:10C400000021016041607047B4EEE00AF1EE10FADD
:10C4100002D2B0EE600A7047B4EEC10AF1EE10FA33
:10C42000F9DDB0EE410A704738B504468DF80000DA
:10C430000223012269460248FEF7DEFA204638BD93
:10C4400010E0000038B1012807D0022808D00328E6
:10C4500009D0002070470548704704480A307047EB
:10C4600002481430704701481E30704798E20000BF
:10C4700000487047D4E2000000487047DEE2000048
:10C4800000487047E8E2000000487047CAE2000038
:10C4900000487047C0E2000000487047E4E7000031
:10C4A00000487047F2E2000010B504005ED0D4ED01
:10C4B0000F0A94ED0E0A04F58870FEF7EBFDD4ED3B
:10C4C000140A94ED130A04F5AC70FEF7E3FDD4ED05
:10C4D000190A94ED180A04F5D070FEF7DBFDD4EDCF
:10C4E0001E0A94ED1D0A04F5F470FEF7D3FDD4ED99
:10C4F000050A94ED040A04F18000FEF7CBFDD4EDAB
:10C500000A0A94ED090A04F1C800FEF7C3FD94ED90
:10C510004C0ABDEEC00A10EE100AA4F8400094EDDB
:10C520005E0ABDEEC00A10EE100AA4F8540094EDA5
:10C53000700ABDEEC00A10EE100AA4F8680094ED6F
:10C54000820ABDEEC00A10EE100AA4F87C0094ED39
:10C55000280ABDEEC00A10EE100A24F8180F94ED58
:10C56000340ABDEEC00A10EE100AA08210BD000011
:10C5700000285BD08168B1F9021000EE101AB8EE05
:10C58000C00A80ED040AD0ED2C0A9FED290A60EE66
:10C59000800AC0ED030AC169B1F9021000EE901AD9
:10C5A000F8EEE00AC0ED090AD0ED3E0A60EE800A1E
:10C5B000C0ED080A016BB1F9021000EE901AF8EE16
:10C5C000E00AC0ED0E0AD0ED500A60EE800AC0ED20
:10C5D0000D0A416CB1F9021000EE901AF8EEE00A73
:10C5E000C0ED130AD0ED620A60EE800AC0ED120AB7
:10C5F000816DB1F9021000EE901AF8EEE00AC0ED7C
:10C60000180AD0ED740A60EE800AC0ED170AC16EF8
:10C61000B1F9021000EE901AF8EEE00AC0ED1D0A22
:10C62000D0ED860A20EE800A80ED1C0A70470000DB
:10C630000000FA4310B504002DED028B62D00020FB
:10C640002070FFF729FF6060FFF716FFA060FFF77B
:10C6500017FFE061FFF718FF2063FFF719FF606421
:10C66000FFF706FFA065FFF71BFF9FED288ADFEDB0
:10C67000288AE066F0EE480AB0EE680A254A0021F2
:10C6800004F18000FEF79AFD224AF0EE480AB0EE6F
:10C69000680A0C32002104F1C800FEF78FFD1D4A24
:10C6A000F0EE480AB0EE680A303A002104F58870CE
:10C6B000FEF784FD174AF0EE480AB0EE680A243A05
:10C6C000002104F5AC70FEF779FD124AF0EE480A3D
:10C6D000B0EE680A183A002104F5D070FEF76EFD3E
:10C6E0000C4AF0EE480AB0EE680A0C3A002104F554
:10C6F000F470FEF763FDBDEC028B2046BDE81040F0
:10C70000FFF736BFBDEC028B10BD00000000FA44FD
:10C7100000007A46B4D7000070B504002DED028BFE
:10C7200063D020789FED740A012818D06568B5F9A8
:10C730001600DFED721A9FED722ADFED720A9FED8F
:10C74000721ADFED722A9FED723A002868DD95F8C3
:10C75000280078B1C4ED0F1AC4ED141A26E084ED58
:10C760000F0A84ED140A84ED190A84ED1E0A84ED83
:10C77000050A52E095F8290020B184ED0F2A84EDD6
:10C78000142A13E095F82B00810704D5C4ED0F0A95
:10C7900084ED141A0AE0400704D584ED0F1AC4EDA5
:10C7A000140A03E084ED0F0A84ED140A95F82B00B7
:10C7B000010702D5C4ED192A06E0C00602D584EDB2
:10C7C000193A01E084ED190A95F82A0084ED1E0A51
:10C7D000000695F82A008106DFED4E0A9FED4E1AFD
:10C7E00006D5C4ED0A0A84ED051ABDEC028B70BDB6
:10C7F000C00604D584ED0A1AC4ED050AF5E784EDF8
:10C80000050A95F82B00410602D5C4ED0A0AECE7AB
:10C81000800602D584ED0A1AE7E784ED0A0AE4E708
:10C82000E3DAB5F906006FF09501884204DAC4ED49
:10C830000F1AC4ED141A1FE0962804DD84ED0F2AA8
:10C8400084ED142A18E0B5F90C00A0F500729F3AA7
:10C8500008D040F29F22D04209D184ED0F1AC4EDD6
:10C86000140A09E0C4ED0F0A84ED141A04E018B9A3
:10C8700084ED0F0A84ED140AB5F90200884202DA49
:10C88000C4ED192A06E0962802DD84ED193A01E08C
:10C8900084ED190A84ED1E0AB5F904009FED1F8B83
:10C8A000962801DC884215DAFBF7C5FD53EC182BFE
:10C8B000FBF74FFDFBF7D0FDA062B5F90400404245
:10C8C000FBF7B9FD53EC182BFBF743FDFBF7C4FD59
:10C8D00060618AE784ED050AB5F91E00884201DB34
:10C8E00096289ADDFBF7A7FD53EC182BFBF731FDDB
:10C8F000FBF7B2FDA06278E70000000000401C4694
:10C9000000401CC600606A4600606AC60080BB44E6
:10C910000080BBC40000FA440000FAC40C022B875C
:10C9200016D917404FF4FA7000F07AFC1848FFF758
:10C9300081FE184D164C16484168B1F90A10A942FB
:10C9400001D1002100E0012101701148FFF710FE24
:10C950000F48FFF7E1FE0E48FFF7A6FDB4F97C3063
:10C96000B4F95420B4F94010B4F96800FBF752FF51
:10C970000023B4F92C10B4F918001A46FBF76EFF27
:10C980000A2000F04DFC022000F04AFCD3E7000032
:10C9900038E5000061FDFFFF07480068C16841F00D
:10C9A0001001C160C82205490348FEF715F80A20A6
:10C9B00000F034F8FBE70000C8DF00009CE900004D
:10C9C000FCF734FFFEF7A6FCFEF700FAFEF778F955
:10C9D000FEF7EAFAFEF740FBFEF72EF9FEF74EF9F6
:10C9E000FEF702FBFEF7C4FAFEF71AFBFEF774FA35
:10C9F000FFF7EAF900F070FAFFF74EFD034908600F
:10CA0000FEF7A4F900F011F8FEE7000018DB0000C3
:10CA100001460020842900D0C81C704710B500B919
:10CA2000012000F0FDFB002010BD10B500F01EFC41
:10CA3000002010BD7FB50D4604464169B0F90800DD
:10CA400081B1A16971B1FFF7E3FFD4E905128DE867
:10CA50000700D4E900102B46226900F030FD039056
:10CA600004B070BDFFF7D4FF03A9CDE90001208A0F
:10CA70002B4682B2D4E9001000F0F4FC012801D06A
:10CA80000020EDE70398EBE72DE9F041184E0F4643
:10CA90000446F5683068001D00F0FAFA38B93068CD
:10CAA00090F82C1001208840316981433161601C6D
:10CAB00007D137B13168BDE8F0410E48091D00F0DB
:10CAC0002BBB30682C44AC424460316805D2B06B5B
:10CAD000BDE8F041091D00F007BB706B091D00F0B7
:10CAE00003FBB06A844200D2B462BDE8F08100006A
:10CAF00098DB000040EB00002DE9F041054600F016
:10CB000017FB2E4EB068401CB06030682C4F10B13F
:10CB1000706940B32DE03560B068012829D1002448
:10CB200004EB840007EB800000F0D0FA641C072CB3
:10CB3000F6D323488C3000F0C9FA2148A03000F029
:10CB4000C5FA1F48B43000F0C1FA1D48C83000F0E3
:10CB5000BDFA1B48DC3000F0B9FA19488C3070631C
:10CB60001430B06305E03068E96AC06A884200D8D2
:10CB70003560706A0121401C7062E86A3269814048
:10CB80001143316100EB800007EB8000291D00F0AC
:10CB9000C3FA00F0EDFA706900280CD03068E96A39
:10CBA000C06A884207D207494FF080500860BFF33F
:10CBB0004F8FBFF36F8FBDE8F081000098DB00005E
:10CBC00064EA000004ED00E010B5044690F851005E
:10CBD00058B101280CD002280FD0502080F31188C2
:10CBE000BFF34F8FBFF36F8FFEE7206B00F0D4FAD7
:10CBF0002046BDE8104000F0CFBA10BD10484FF4F9
:10CC00007051420706D0C01D0D4920F00700411A9F
:10CC1000C1F570510B4A00230144C2E900030839F1
:10CC2000183A21F0070111604B600B600B1AC0E944
:10CC3000001393604FF00040536050617047000054
:10CC400054EB0000ECDB0000134E144DA6F1C807B6
:10CC50004FF08058DFF8489011E000F069FAF06872
:10CC6000C468201D00F014FAA868401EA860686817
:10CC7000401E686000F07CFA2046FFF7A5FF686858
:10CC80000028EAD138680128F9D9C9F80080BFF333
:10CC90004F8FBFF36F8FF2E72CEB000098DB0000A3
:10CCA00004ED00E02DE9F0479A46DDE9098481466C
:10CCB0006FF00303206B03EB82021044089D20F009
:10CCC0000706700707D0502080F31188BFF34F8FFD
:10CCD000BFF36F8FFEE7002761B1002023180A5CC5
:10CCE00083F834200A5C12B1401C1028F6D384F873
:10CCF000437001E084F83470072D00D30625E56207
:10CD0000C4E91157201D00F0ECF904F1180000F0FF
:10CD1000E8F92461C5F107006462A061E76484F862
:10CD2000507052464946304600F0C0F82060B8F1D5
:10CD3000000F01D0C8F80040BDE8F08730B51149B8
:10CD400000E011460A688242FBD34B685C188442BB
:10CD500003D1406818444860084643681C18944250
:10CD600009D1084C183C2468A24209D052681A44E0
:10CD700042600A6812680260814200D0086030BDDB
:10CD80000460F9E7ECDB00000648416B096829B153
:10CD9000416BC968C9684968816270474FF0FF31CB
:10CDA000FAE7000098DB000008484068401C4FF09C
:10CDB000500080F3118804D0BFF34F8FBFF36F8F03
:10CDC000FEE7BFF34F8FBFF36F8FFEE7F4DB00008A
:10CDD0002DE9F0410546002600F07EFA324F386812
:10CDE00008B9FFF70BFF786905424ED1C5B3083586
:10CDF00068070ED005F00700C0F108000544680779
:10CE000007D0502080F31188BFF34F8FBFF36F8F8F
:10CE1000FEE72DB37868854237D823491831084694
:10CE2000046801E0214604466068A84202D22068F6
:10CE30000028F7D13868844227D00E68206808603F
:10CE400060680836411B10290FD96019420708D0C5
:10CE5000502080F31188BFF34F8FBFF36F8FFEE731
:10CE600013E041606560FFF769FF61687868401A08
:10CE70007860BA68904200D2B860786901430020B7
:10CE8000C4E90001F868401CF86000F0B9FB7007C5
:10CE900007D0502080F31188BFF34F8FBFF36F8FFF
:10CEA000FEE73046BDE8F081D4DB000010B5031F7B
:10CEB0004FF080741C601B1F21F001011960191FC5
:10CEC000044B0B6014390A60091F6FF002024438EA
:10CED0000A6010BDA9CD000002493222A1F1320042
:10CEE000FEF79AB944E800002DE9FF4F00287DD0F5
:10CEF00000297BD002780F2A78D102780A80427804
:10CF0000837842EA0322C2F30A024A8003928278BB
:10CF1000C378D20803F03F0342EA43128A80934663
:10CF2000C2780379920942EA8302437903F001034C
:10CF300042EA8322CA80029242798379520803F03E
:10CF40000F0342EAC3120A8101928279C37912095E
:10CF500003F07F0342EA03124A819646C279037ABC
:10CF6000D20942EA4302437A03F0030342EA43222E
:10CF70008A810092427A837A920803F01F0342EA80
:10CF80008312CA819246827AC37A520942EAC30264
:10CF90000A829146027B437B03F0070342EA03289F
:10CFA000A1F81280427B837BD20803F03F0342EA60
:10CFB000431CA1F814C0827BC37B920942EA83021E
:10CFC000037C03F0010342EA8327CF82027C437C87
:10CFD000520803F00F0342EAC3160E83427C837C9F
:10CFE000120903F07F0342EA031500E04EE04D838F
:10CFF000827CC37CD20942EA4302037D03F003032F
:10D0000042EA43248C83027D437D920803F01F0390
:10D0100042EA8313CB83427D807D520942EAC000FD
:10D02000039AA8F58068A2F580624A80ABF5806219
:10D030008A80029AACF5806CA2F58062CA80019A5F
:10D04000A7F58067A2F580620A81AEF580624A8109
:10D05000009AA6F58066A2F580628A81AAF58062B0
:10D06000CA81A9F580620A82A1F81280A1F814C0D1
:10D07000CF820E83A5F580654D83A4F580648C83F3
:10D08000A3F58063CB83A0F580600884BDE8FF8FA3
:10D09000D0E9013201699A60D0E901235A604A68F7
:10D0A000824201D182684A60002202610868401E03
:10D0B0000860086870470000034B036003F15400E8
:10D0C000086080201060704704DC000000F1080157
:10D0D0004FF0FF32C0E90112C1600161002101601F
:10D0E000704700210161704730B50C68621C02D0A6
:10D0F00000F1080202E0026904E01A4653681D6864
:10D10000A542FAD953684B6099608A605160086102
:10D110000168491C016030BD42684A6093688B60B9
:10D1200093685960916008610168491C016070470B
:10D13000502080F31188BFF34F8FBFF36F8F0A49E0
:10D140004868401C486001280CD10848006810F06D
:10D15000FF0F07D0502080F31188BFF34F8FBFF32C
:10D160006F8FFEE770470000F4DB000004ED00E085
:10D170000849486828B1401E486001D180F31188F1
:10D180007047502080F31188BFF34F8FBFF36F8F2C
:10D19000FEE70000F4DB000070B500282AD0164D31
:10D1A000A0F1080460686969084207D1502080F343
:10D1B0001188BFF34F8FBFF36F8FFEE722683AB13C
:10D1C000502080F31188BFF34F8FBFF36F8FFEE7BE
:10D1D0008843606000F080F86068696808446860AF
:10D1E0002046FFF7ABFD2869401C2861BDE8704070
:10D1F00000F006BA70BD0000D4DB00004FF0E02064
:10D2000000210161816105494FF47A720968B1FB1F
:10D21000F2F1491E416107210161704744DB0000C2
:10D2200010B5020014D00F48006B38B1502080F3C5
:10D230001188BFF34F8FBFF36F8FFEE700F04CF8FC
:10D2400000211046FFF720FC00F0DAF9002807D192
:10D2500005494FF080500860BFF34F8FBFF36F8FC9
:10D2600010BD000098DB000004ED00E010B586B0B2
:10D270000024039405AA04A903A80494FFF71CFF43
:10D28000DDE903010094CDE9011000230EA110484F
:10D29000059A00F014F90F490028C86211D05020F7
:10D2A00080F31188BFF34F8FBFF36F8F4FF0FF30C4
:10D2B000886201204861CC6006B0BDE8104000F0F3
:10D2C00041B806B010BD000049444C4500000000C4
:10D2D00049CC000098DB00000248016B491C016347
:10D2E0007047000098DB0000144A106B10B1012059
:10D2F000D06170470020D06110691149B0FA80F008
:10D30000C0F11F0000EB800051F820306BB101EB41
:10D31000800000F10803416849684160994201D1E9
:10D3200049684160C86810607047502080F31188D8
:10D33000BFF34F8FBFF36F8FFEE7000098DB000055
:10D3400064EA00001CB537480168374A914207D1AA
:10D35000502080F31188BFF34F8FBFF36F8FFEE72C
:10D3600000683149491E884207D1502080F3118856
:10D37000BFF34F8FBFF36F8FFEE72C490878019002
:10D38000FF20087008788DF800009DF800009DF8D7
:10D39000002000F0F000904207D0502080F3118868
:10D3A000BFF34F8FBFF36F8FFEE79DF80000204C57
:10D3B00000F0500020700720A06006E0401EA06032
:10D3C0009DF8000040008DF800009DF80000000668
:10D3D000A068F3D4032807D0502080F31188BFF34E
:10D3E0004F8FBFF36F8FFEE74FF44070A06001983E
:10D3F00008700C482030016841F470010160016838
:10D4000041F070410160FFF7F9FE00206060FAF71B
:10D41000FDFE0848016841F040410160FAF7E2FE74
:10D4200000201CBD00ED00E071C20F4100E400E0EF
:10D43000F4DB000034EF00E010B5502080F31188D9
:10D44000BFF34F8FBFF36F8F00F074F818B104492A
:10D450004FF080500860002080F3118810BD00005C
:10D4600004ED00E02DE9FF5F8346DDE90E87994674
:10D4700016468A469000FFF7ABFC05001CD05420EE
:10D48000FFF7A6FC040014D00020256384F85100A7
:10D49000CDE90240CDE900874B4632465146584619
:10D4A000FFF700FC2046FFF727FB012004B0BDE892
:10D4B000F09F2846FFF770FE4FF0FF30F6E7F0B51B
:10D4C00085B00546DDE90B040A9EA8B1E4B15427F6
:10D4D00000972063022084F851000020CDE902402B
:10D4E00004AF2846CDE90067FFF7DCFB2046FFF7D5
:10D4F00003FB049805B0F0BD502080F31188BFF302
:10D500004F8FBFF36F8FFEE7502080F31188BFF37A
:10D510004F8FBFF36F8FFEE70548416919B1006B6C
:10D5200018B10020704701207047022070470000AA
:10D5300098DB00002DE9F0412F4F0026386B28B111
:10D54000B869401CB8613046BDE8F081FD686D1CCB
:10D55000FD6013D1786B006838B1502080F31188DA
:10D56000BFF34F8FBFF36F8FFEE7786BB96B7963B3
:10D57000B863386A401C3862FFF706FCB86ADFF807
:10D580007C80854209D3786B0068A0B1786BC06855
:10D59000C4686068854211D2B8623868C06A00EB1E
:10D5A000800158F82100012800D90126F8690028D7
:10D5B000C9D00126C7E74FF0FF30EDE7201DFFF788
:10D5C00067FDA06A18B104F11800FFF761FDE06A79
:10D5D00001213A6981401143396100EB800108EB78
:10D5E0008100211DFFF798FDE06A3968C96A884209
:10D5F000C9D30126C7E7000098DB000064EA0000F9
:10D600002DE9F0472C4D00242746286B38B1FFF751
:10D610008FFD286B401E2863286B40B146E05020E8
:10D6200080F31188BFF34F8FBFF36F8FFEE7A868B9
:10D6300022490126D0B3A1F1B4098846D8F80010D8
:10D64000E9B1D8F80C00C46804F11800FFF720FD18
:10D65000201DFFF71DFDE06A2A6906FA00F111435B
:10D66000296100EB800109EB8100211DFFF754FDCA
:10D67000E06A2968C96A8842E0D3EE61DEE70CB14E
:10D68000FFF782FBAC693CB1FFF754FF00B1EE61DC
:10D69000641EF9D10020A861E86938B10849012762
:10D6A00038070860BFF34F8FBFF36F8FFFF760FD40
:10D6B0003846BDE8F087000098DB000018EB00005A
:10D6C00004ED00E0FCDA0000F5B20000000000000C
:10D6D00000000000800000000000000000000000CA
:10D6E000F0DA000021C3000001000000000000008B
:10D6F000000200000000000000000000D8DA000076
:10D7000025C9000001000000000000000002000028
:10D710000000000000000000E4DA000055BC00003A
:10D720000100000000000000800000000000000078
:10D7300000000000CCDA000099C9000001000000E0
:10D740000000000080000000000000000000000059
:10D750000006101600061016000000000000000071
:10D760000102030406070809000000000102030487
:10D77000ABAA2A3EABAAAA3E00606A46000020413E
:10D780000000000000002041000000000000000038
:10D7900000002041000000000000000000002041C7
:10D7A0000000000000000000000020410000000018
:10D7B0000000000000002041000000000000000008
:10D7C000000020410000000000000000005EBCE2FC
:10D7D000613FDD83C29C7E20A3FD1F419DC3217F4D
:10D7E000FCA2401E5F01E3BD3E6082DC237D9FC141
:10D7F000421CFEA0E1BF5D0380DE3C62BEE0025C35
:10D80000DF81633D7C22C09E1D43A1FF4618FAA420
:10D8100027799BC584DA3866E5BB5907DB8567390C
:10D82000BAE406581947A5FB7826C49A653BD98700
:10D83000045AB8E6A7F91B45C6987A24F8A6441AF4
:10D8400099C7257B3A6486D85B05E7B98CD2306EE0
:10D85000EDB3510F4E10F2AC2F7193CD114FADF3CC
:10D86000702ECC92D38D6F31B2EC0E50AFF1134DC0
:10D87000CE90722C6D33D18F0C52B0EE326C8ED0B4
:10D88000530DEFB1F0AE4C1291CF2D73CA947628A0
:10D89000ABF517490856B4EA6937D58B5709EBB58C
:10D8A00036688AD495CB2977F4AA4816E9B7550B80
:10D8B00088D6346A2B7597C94A14F6A8742AC89674
:10D8C000154BA9F7B6E80A54D7896B3500008911C2
:10D8D00012239B322446AD573665BF74488CC19DD8
:10D8E0005AAFD3BE6CCAE5DB7EE9F7F881100801B8
:10D8F00093331A22A5562C47B7753E64C99C408DB8
:10D90000DBBF52AEEDDA64CBFFF976E802218B3053
:10D91000100299132667AF763444BD554AADC3BC97
:10D92000588ED19F6EEBE7FA7CC8F5D983310A2077
:10D9300091121803A7772E66B5543C45CBBD42AC77
:10D94000D99E508FEFFB66EAFDD874C904428D530F
:10D9500016619F702004A9153227BB364CCEC5DF57
:10D960005EEDD7FC6888E1997AABF3BA85520C4337
:10D9700097711E60A1142805B3373A26CDDE44CF37
:10D98000DFFD56ECE9986089FBBB72AA06638F72D3
:10D9900014409D512225AB343006B9174EEFC7FE17
:10D9A0005CCCD5DD6AA9E3B8788AF19B87730E62F7
:10D9B00095501C41A3352A24B1163807CFFF46EEF7
:10D9C000DDDC54CDEBB962A8F99A708B088481959F
:10D9D0001AA793B62CC2A5D33EE1B7F04008C919E7
:10D9E000522BDB3A644EED5F766DFF7C89940085A7
:10D9F0009BB712A6ADD224C3BFF136E0C1184809C7
:10DA0000D33B5A2AE55E6C4FF77D7E6C0AA583B442
:10DA1000188691972EE3A7F23CC0B5D14229CB38A6
:10DA2000500AD91B666FEF7E744CFD5D8BB502A466
:10DA300099961087AFF326E2BDD034C1C3394A2886
:10DA4000D11A580BE77F6E6EF55C7C4D0CC685D7FE
:10DA50001EE597F42880A1913AA3B3B2444ACD5B66
:10DA60005669DF78600CE91D722FFB3E8DD604C726
:10DA70009FF516E4A9902081BBB332A2C55A4C4B46
:10DA8000D7795E68E11C680DF33F7A2E0EE787F6C2
:10DA90001CC495D52AA1A3B03882B193466BCF7A26
:10DAA0005448DD59622DEB3C700EF91F8FF706E6E6
:10DAB0009DD414C5ABB122A0B9923083C77B4E6A06
:10DAC000D5585C49E33D6A2CF11E780F6A7564678E
:10DAD000655461736B00000067696D62616C54612D
