:020000040800F2
:10000000600700204D020008E315000811150008E4
:10001000E1150008430400089D16000800000000D8
:10002000000000000000000000000000E7150008CC
:100030005D04000800000000E5150008E91500084F
:1000400067020008670200086702000867020008EC
:1000500067020008670200086702000867020008DC
:1000600067020008670200086702000867020008CC
:1000700067020008670200086702000867020008BC
:1000800067020008670200086702000867020008AC
:1000900045040008670200086702000867020008BC
:1000A000670200086702000867020008670200088C
:1000B000670200086702000867020008670200087C
:1000C000670200086702000867020008670200086C
:1000D000670200086702000867020008670200085C
:1000E000670200086702000867020008670200084C
:1000F000670200086702000867020008670200083C
:10010000670200086702000867020008670200082B
:10011000670200086702000867020008670200081B
:10012000670200086702000867020008670200080B
:1001300067020008670200086702000867020008FB
:1001400051040008670200086702000867020008FF
:1001500067020008670200086702000867020008DB
:1001600067020008670200086702000867020008CB
:10017000670200086702000867020008000000002C
:1001800067020008670200086702000867020008AB
:10019000670200086702000867020008670200089B
:1001A00000000000000000006702000800F002F8F4
:1001B00000F03CF80AA090E8000C82448344AAF1C5
:1001C0000107DA4501D100F031F8AFF2090EBAE8C3
:1001D0000F0013F0010F18BFFB1A43F0010318477B
:1001E000D4160000F4160000103A24BF78C878C175
:1001F000FAD8520724BF30C830C144BF04680C602D
:10020000704700000023002400250026103A28BF74
:1002100078C1FBD8520728BF30C148BF0B60704778
:100220001FB501F039FB1FBD10B510BD00F0CFF8B0
:100230001146FFF7F5FF01F0FFFA00F0EDF803B407
:10024000FFF7F2FF03BC00F0F5F800000948804713
:1002500009480047FEE7FEE7FEE7FEE7FEE7FEE7A8
:10026000FEE7FEE7FEE7FEE704480549054A064BC0
:10027000704700008D160008AD01000860010020E5
:1002800060070020600300206003002053EA020C96
:1002900000F069802DE9F04B4FF00006002B1FBFE6
:1002A000B3FA83F503FA05F424FA05F65E4012BFAB
:1002B0001643B2FA82F502FA05F4C5F120051EBF15
:1002C00022FA05FC44EA0C04203556EA044C4FEAB5
:1002D000144418BF641C4FF000084FF0000990420E
:1002E00071EB030C39D3002919BFB1FA81F701FA78
:1002F00007F6B0FA80F700FA07F6C7F120071EBF2D
:1003000020FA07FC46EA0C062037B6FBF4FCA7EB04
:100310000507103F07F01F0BCBF120060CFA0BFB73
:100320002CFA06F644BFB3460026202FA4BF5E4633
:100330004FF0000B5BEA060C08BF4FF0010B19EB06
:100340000B09ABFB027C48EB0608C01B06FB02CC8A
:100350000BFB03CC71EB0C01C1E70B460246414697
:100360004846BDE8F08B13B54FF000004FF0000198
:10037000AFF30080BDE81C4070474FF0000200B5AD
:10038000134694469646203922BFA0E80C50A0E8B8
:100390000C50B1F12001BFF4F7AF090728BFA0E866
:1003A0000C5048BF0CC05DF804EB890028BF40F832
:1003B000042B08BF704748BF20F8022B11F0804F74
:1003C00018BF00F8012B704770477047704775469B
:1003D00000F02CF8AE4605006946534620F00700B1
:1003E000854618B020B5FFF73FFFBDE820404FF02D
:1003F00000064FF000074FF000084FF0000B21F00F
:100400000701AC46ACE8C009ACE8C009ACE8C009DB
:10041000ACE8C0098D46704710B50446AFF30080C4
:100420002046BDE81040FFF70ABF000000487047B3
:10043000FC00002001491820ABBEFEE726000200A8
:100440007047FEE7014800F088B900001C0000205A
:10045000014800F082B9000044000020704772B6E5
:10046000FEE790F82020012A07D0022A05D0416A31
:1004700041F48021416201207047006842690A43CB
:10048000426100207047F0B590F820500468A468DD
:10049000012D05D0022D03D0416A41F4802157E09F
:1004A00014F0406F01D1E5004FD5C4F3016401257C
:1004B000A5401D608B684FF4C0759BB1CE68334377
:1004C0004E6843EAC603066805EB0417F3514FF480
:1004D000C273076803EB04130E69FE50097D0129FE
:1004E00005D009E00E88CB6843EA4653EBE7016884
:1004F000CE5846F48076CE501179D379567941EAB8
:10050000036193791B0443EA062319434FF4C6762B
:10051000036806EB041699511178D37841EA036118
:10052000937852781B0443EA022211434FF4C473B8
:10053000026803EB0413D150006805EB0411425824
:1005400042F0010242500020F0BD416A41F4001126
:1005500041620120F0BD000010B590F82020012A72
:1005600007D0022A05D0416A41F48021416201206E
:1005700010BD3B48D0F8002242F00102C0F8002232
:10058000D0F8002222F47C52C0F80022D0F80022D9
:100590004B6A42EA0322C0F800220A7D02F01F03E0
:1005A00001229A40D0F81C329343C0F81C32CB6928
:1005B000B3B9D0F80C329343C0F80C328C894B6835
:1005C00064F31F434C6900EBC404C4F840320C8947
:1005D0000B6864F31F434C6900EBC404C4F8443255
:1005E000CB69012B16D1D0F80C321343C0F80C3272
:1005F0000C884B6864F31F434C6900EBC404C4F8D7
:1006000040320C89CB6864F31F434C6900EBC4048F
:10061000C4F844328B69002BD0F804320ED0134357
:10062000C0F804320B69002BD0F8143208D0134301
:10063000C0F81432096A012904D008E09343EFE7B7
:100640009343F5E7D0F81C121143C0F81C12D0F800
:10065000001221F00101C0F80012002010BD0000BE
:1006600000640040704770B590F82040012C05D020
:10067000022C03D0416A41F4802128E0046809B3C8
:100680002469A40720D04FF4D874056804EB011442
:100690002D5915F00405956005682D591AD0ED08FF
:1006A000556005682C5904F00204D4604FF4DA74E4
:1006B000056804EB01142E5906F00F06082E0CD322
:1006C00008250DE0E468DCE7416A41F4001141626D
:1006D000012070BD6D0D1560E3E72D5905F00F0584
:1006E000156105682D59C5F30725956105682C59D5
:1006F000240C54614FF4DC72046802EB0112A4581C
:100700001C700468A458240A5C700468A458240C63
:100710009C700468A258120EDA704FF4DE720468FE
:1007200002EB0112A4581C710468A458240A5C71DD
:100730000468A458240C9C710468A258120EDA7143
:10074000006829B1016941F020010161002070BDFC
:10075000C16841F02001C160F8E72DE9F05F05466E
:10076000006800244669D0F804908768D0F80CB07F
:10077000D0F810A0D0F81880F10748D0F90714D0AD
:1007800001218160B80703D5284600F04EFA0CE03D
:10079000780702D54FF4006407E0380702D54FF41C
:1007A000805402E0284600F03FFAF80516D5296883
:1007B0004FF480708860B80503D5284600F037FAFA
:1007C0000CE0780502D544F4005407E0380502D562
:1007D00044F4804402E0284600F028FAF80316D5D5
:1007E00029684FF480308860B80303D5284600F0AC
:1007F00020FA0CE0780302D544F4004407E0380303
:1008000002D544F4803402E0284600F011FA3007A3
:1008100007D55FEACB6004D52968102044F4007442
:10082000C86070074FF0080707D55FEA0B7004D562
:100830002868C760284600F097F9B00706D52868F1
:10084000C068800702D0284600F090F9700607D5EE
:100850005FEACA6004D52968102044F48064086106
:10086000B00607D55FEA0A7004D5286807612846F4
:1008700000F0ACF9F00606D528680069800702D0C0
:10088000284600F0A4F9B00308D55FEAC96005D591
:10089000296810204860284600F09AF9F00307D52F
:1008A0005FEA097004D528684760284600F0C2F95D
:1008B000300446D55FEA497040D5F00504D55FEABB
:1008C000C87001D044F00104B00504D55FEA887017
:1008D00001D544F00204700504D55FEA487001D5E3
:1008E00044F00404300529D518F0700F26D008F024
:1008F0007000402815D006DC102809D020280AD026
:10090000302816D10AE050280ED0602811D10EE010
:1009100044F008040DE044F010040AE044F0200420
:1009200007E044F0400404E044F0800401E044F4B3
:1009300080742868816921F0700181612968042030
:100940004860002C05D0686A204368622846FFF79B
:1009500089FEBDE8F09F70B5040003D094F8200034
:1009600010B104E0012070BD204600F081F820683D
:10097000016841F00101016000F066FA05460526B4
:1009800004E000F061FA401B0A2811D82068406892
:10099000C007F6D02068016821F00201016000F074
:1009A00053FA05460BE000F04FFA401B0A2806D91F
:1009B000606A40F40030606284F82060D2E720680A
:1009C00040688007EFD4207E0128206801683DD070
:1009D00021F080010160607E01282068016838D024
:1009E00021F040010160A07E01282068016833D019
:1009F00021F020010160E07E0128206801682ED0EE
:100A000041F010010160207F01282068016829D091
:100A100021F008010160607F01282068016824D06E
:100A200021F004010160D4E902010843D4E9041271
:100A3000114308436168491E08432168C8610020CA
:100A40006062012084F82000002070BD41F0800128
:100A5000C0E741F04001C5E741F02001CAE721F0BD
:100A60001001CFE741F00801D4E741F00401D9E7D4
:100A7000F0B587B0044614216846FFF77EFC35497F
:100A8000354ADFF8CCE00868D4F800C0324B0324C4
:100A90000225092610320027401CF44521D10860A8
:100AA000012807D1106840F000701060106800F055
:100AB00000700590186840F00800186018688DE80C
:100AC000B00000F00800CDE90460694603942348B3
:100AD00000F0C4F800221146142000F023FA14207C
:100AE00032E0DFF87CE0F44530D1D2F800C04CF0C1
:100AF000806CC2F800C0D2F800C001280CF0806CF5
:100B0000CDF814C0086007D1106840F00070106084
:100B1000106800F000700590186840F0020018603E
:100B20001868694600F0020005904FF440508DE8C7
:100B3000A100CDE903460B4800F090F800221146D1
:100B4000402000F0EFF9402000F0DEF907B0F0BDE2
:100B5000006400400000002030380240000C0240D9
:100B600000680040000402407047000010B58AB0E1
:100B700004466B4602AA0021FFF775FD0298401E4D
:100B8000C1B206291CD20F4A2068904201EB8100B5
:100B900001D10D4901E00C493C3101EB40000188D5
:100BA0000181BDF8001049BA0180BDF8021049BAB0
:100BB0004180BDF8041049BA81809DF8061081710A
:100BC0000AB010BD006400408400002070477047E8
:100BD000704770B5044690F82000012804D0606A80
:100BE00040F40020606217E0022084F820002068B2
:100BF000016821F00101016000F026F905460DE0D1
:100C000000F022F9401B0A2808D9606A40F400303D
:100C10006062052084F82000012070BD20684068D3
:100C2000C007EDD1606270BD704770477047704774
:100C3000704770477047000070B5044600F004F933
:100C40000546601C02D004480078044400F0FCF81B
:100C5000401BA042FAD370BD040000202DE9F84FDC
:100C6000DFF8B0910022A9F1040B03274FF00F0C1D
:100C700009F1040AABF1040E01250B6895402B40E5
:100C8000AB426ED10C7904F00304012C01D0022C8C
:100C900015D18668540007FA04F826EA0806D1F848
:100CA0000C8008FA04F848EA0608C0F8088044688E
:100CB000AC430D79C5F300159540254345600C798B
:100CC000E443A40708D0C568540007FA04F6B54306
:100CD0008E68A6402E43C6600C7904F00304022CF3
:100CE00011D1D40800EB8406356A5407E40E0CFADF
:100CF00004F825EA0805D1F8108008FA04F848EA53
:100D00000508C6F820800568540007FA04F6B543C4
:100D10000E7906F00306A6402E4306604C6814F4D4
:100D2000403F70D03C4C256845F4804525602468E0
:100D300022F0030504F480440094384C05EB0408C9
:100D4000D8F808589407260F0CFA06F4A543344C3B
:100D5000A04201D100242EE0324CA04202D1012455
:100D600029E050E0304CA04201D1022423E02F4C76
:100D7000A04201D103241EE02D4CA04201D1042445
:100D800019E02C4CA04201D1052414E02A4CA042C9
:100D900001D106240FE0294CA04201D107240AE02A
:100DA000274CA04201D1082405E0264CA04201D1E5
:100DB000092400E00A24B4402C43C8F80848D9F8B4
:100DC00000404D464E689C43F60200D51C432C6003
:100DD000DAF8004055464E689C43B60200D51C43E5
:100DE0002C60DBF800405D464E689C43B60300D59E
:100DF0001C432C60DEF8004075464E689C43F603A9
:100E000000D51C432C60521C102AFFF435AFBDE8FE
:100E1000F88F0000083C0140443802400030014097
:100E2000000002400004024000080240000C0240A2
:100E3000001002400014024000180240001C024052
:100E400000200240002402400148806870470000F2
:100E500004000020024881680278114481607047D4
:100E6000040000200B4810B5016841F400710160D6
:100E7000016841F480610160016841F480710160A2
:100E8000032000F06FF80F2000F006F800F024F8BF
:100E9000002010BD003C024070B50D4D04464FF4DB
:100EA0007A712878B1FBF0F00A490968B1FBF0F0DB
:100EB00000F01AFB48B9102C07D200222146501E20
:100EC00000F030F800206C6070BD012070BD0000A3
:100ED00004000020100000200A4808B5016841F411
:100EE00080410160006800F4804000900548001FC8
:100EF000016841F080510160006800F0805000906E
:100F000008BD000044380240002809DB00F01F0241
:100F1000012191404009800000F1E020C0F800115B
:100F200070470000F0B40E4B1B68C3F30223C3F1FB
:100F30000704042C00D904241D1D072D01D2002311
:100F400000E0DB1E012606FA04F56D1E0D409D40F3
:100F50009E40761E164045EA0601F0BC00F09FBB9D
:100F60000CED00E0064A00F0070110684FF6FF03A1
:100F7000184040EA01200349084310607047000010
:100F80000CED00E00000FA052DE9F8431748016870
:100F900041F0805101600068DFF8548000F080501B
:100FA00001270090C8F84070FFF74EFF04464FF449
:100FB0007A75104E04E0FFF747FF001BA8420DD8DA
:100FC0007068C003F7D5C8F84470FFF73DFF0446CA
:100FD00007E0FFF739FF001BA84202D90320BDE854
:100FE000F88370688003F4D50020F8E740380240A9
:100FF00000000E42007000402DE9F0470D4604004D
:1010000065D0DFF81491D9F80000EFB200F00F00BE
:10101000A84207D289F80070D9F8000000F00F004C
:10102000A84254D120683D4E810712D5400703D510
:10103000306840F4E05030602078000703D5306815
:1010400040F4604030603068A16820F0F000084350
:1010500030602078C0072DD03049606808390128F9
:1010600012D0022813D0032811D00968890700295B
:101070002DDA316821F0030101433160FFF7E4FE0E
:10108000804641F2883A0EE009688903EFE7096873
:101090008901ECE7FFF7D8FEA0EB0801514502D922
:1010A0000320BDE8F0873068616800F00C00B0EB09
:1010B000810FEFD1D9F80010484601F00F01A94285
:1010C00007D90770006800F00F00A84201D0012086
:1010D000E7E72078400705D53068E16820F4E05064
:1010E000084330602078000706D53068216920F475
:1010F000604040EAC100306000F018F83168084AEA
:10110000C1F30311515CC8400649086006480068F5
:10111000FFF7C2FE0020C4E7003C0240083802404E
:10112000A21800081000002008000020154810B583
:10113000006810F00C01144813D0144B04290FD090
:1011400008290ED10F4C241F216801F03F022168AD
:10115000490207D52068C0F38810A0FB030106E010
:10116000184610BD2168C1F38811A1FB00010023BE
:10117000FFF78CF82168C1F30141491C4900B0FB1D
:10118000F1F010BD083802400024F400001BB70045
:101190002DE9F84F040075D02078DFF838A3C00798
:1011A000AAF1040548D00AF104000168C1F38101E5
:1011B000012908D00068C0F3810002280AD1DAF8BA
:1011C0000000400206D52868800335D560680028F5
:1011D000E1D031E06068B0F5803F10D0B0F5A02FCD
:1011E000286810D020F480302860286820F48020FF
:1011F00028606068A0B1FFF727FE06460CE028686B
:1012000040F48030F4E740F480202860F7E7FFF7EF
:101210001BFE801B642871D828688003F7D50BE07B
:10122000FFF712FE064604E0FFF70EFE801B64285F
:10123000F1D828688003F7D42078DFF89C928007E3
:101240004FF0000B3DD5A348001D016811F00C0FB5
:1012500008D00068C0F3810002280AD1DAF8000043
:10126000400206D42868800715D5E068012809D116
:1012700011E0E068B8B10120C9F80000FFF7E4FD13
:10128000064605E022E1FFF7DFFD801B0228C2D8F9
:1012900028688007F7D52868216920F0F80040EA1F
:1012A000C10028600DE0C9F800B0FFF7CDFD06468B
:1012B00004E0FFF7C9FD801B02281FD828688007BB
:1012C000F7D42078000722D5824F844861697037AF
:1012D00071B101210160FFF7B7FD064604E0FFF799
:1012E000B3FD801B022809D838688007F7D50EE0C7
:1012F000C0F800B0FFF7A8FD064605E082E0FFF762
:10130000A3FD801B02287DD838688007F7D4207899
:10131000400765D56F484FF000083C300068C000BA
:101320000BD46C483C30016841F08051016000688A
:101330004FF0010800F080500090694F3868C005F8
:101340000FD4386840F480703860FFF77DFD0646A2
:1013500004E0FFF779FD801B022853D83868C005E8
:10136000F7D55C4FA0686C3701280FD00528386886
:1013700010D020F001003860386820F00400386098
:10138000A068B0B1FFF760FD06460EE0386840F097
:101390000100F4E740F004003860F7E7FFF754FD80
:1013A000811B41F28830814263D838688007F5D5C7
:1013B0000DE0FFF749FD064606E0FFF745FD811BFE
:1013C00041F28830814254D838688007F5D4B8F1AA
:1013D000000F05D03F483C30016821F0805101608A
:1013E000A069B8B33B49091D0968C1F3810102290D
:1013F00046D00228584606D0C9F86000FFF724FD01
:10140000044639E035E04F46C9F86000FFF71CFD9F
:10141000064604E0FFF718FD801B022829D828683B
:101420008001F7D4D4E907010843A16A2D4A49088D
:1014300002EB0141626A41EA8211084394F82C10E0
:1014400040EA0161CAF8001001203866FFF7FCFC91
:10145000044605E03CE0FFF7F7FC001B022808D833
:1014600028688001F7D533E0FFF7EEFC001B022867
:1014700002D90320BDE8F88F28688001F4D427E062
:101480000128F7D0DAF80000E26900F48001914207
:101490001CD1226A00F03F01914217D147F6C0717A
:1014A000626A0140B1EB821F10D1A26A4FF0FF3394
:1014B00000F4403103EB5202B1EB024F06D194F835
:1014C0002C1000F07060B0EB016F01D00120D1E76B
:1014D0000020CFE70438024000004742800E474218
:1014E000007000400000FFFF10B5401EB0F1807F8B
:1014F00001D3012010BD4FF0E02460610F2160177F
:1015000000F0CDF80020A06107202061002010BD70
:10151000FEE700000E4810B50C4901600321416050
:1015200000214FF440228160C0E90312416101763D
:1015300041768176C17601774177FFF70CFA002872
:1015400003D0BDE81040FEF78ABF10BD0064004024
:101550001C0000200E4810B50C49016005214160B7
:1015600000214FF4C0228160C0E90312416101767D
:1015700041768176C17601774177FFF7ECF9002853
:1015800003D0BDE81040FEF76ABF10BD0068004000
:1015900044000020114808B5016841F001010160D4
:1015A000016801F001010091016841F0080101604A
:1015B000016801F008010091016841F080010160BB
:1015C000016801F080010091016841F002010160B1
:1015D000006800F00200009008BD000030380240B2
:1015E000FEE7FEE770477047FFF734BC30B593B0B5
:1015F00030216846FEF7C1FE14210CA8FEF7BDFE9F
:1016000020480025016841F080510160006800F029
:10161000805011901C48016841F44041016000680D
:10162000022400F440401190012000900004019039
:101630008001CDE9064006200890B420CDE90904D8
:1016400004200B906846FFF7A3FD08B172B6FEE7D1
:10165000FFF79AFC08B172B6FEE70CA90F2081E8EB
:1016600031004FF4A0500F904FF48050109005219E
:101670000CA8FFF7C1FC002801D072B6FEE713B03A
:1016800030BD000040380240007000400248016850
:1016900041F470010160704788ED00E0FEE7090742
:1016A000090E002804DB00F1E02080F800147047E8
:1016B00000F00F0000F1E02080F8141D70470000DA
:1016C00030B40E4C4FF4007525600025A560E56030
:1016D000082525610A4C050A25706070080AA0706B
:1016E000E170100A20716271180AA071E37122463C
:1016F00030BC002301490348FEF7C5BE6C00002042
:10170000140000201C00002030B40E4C40F2FF15E5
:1017100025600025A560E560082525610A4C050ABD
:1017200025706070080AA070E170100A2071627163
:10173000180AA071E371224630BC00230149034816
:10174000FEF7A1BE6C000020140000201C00002049
:1017500030B40E4C4FF4007525600025A560E5609F
:10176000082525610A4C050A25706070080AA070DA
:10177000E170100A20716271180AA071E3712246AB
:1017800030BC002301490348FEF77DBE6C000020F9
:10179000140000204400002030B40E4C40F2FF152D
:1017A00025600025A560E560082525610A4C050A2D
:1017B00025706070080AA070E170100A20716271D3
:1017C000180AA071E371224630BC00230149034886
:1017D000FEF759BE6C0000201400002044000020D9
:1017E00000B58BB000200121CDE9060108910090E1
:1017F0000190029003900590049069460C48FEF712
:10180000ABFE0B48FFF7E5F902210948FEF729FE78
:101810000E200990059069460648FEF79DFE054892
:10182000FFF7D7F902210348FEF71BFE0BB000BDFE
:101830001C00002044000020FFF714FBFFF7D6FE39
:10184000FFF7A8FEFFF766FEFFF784FEFFF7C8FF6D
:101850004FF448744FF42F754FF416764FF4FA771F
:1018600023462A4631463846FFF72AFF00231A4608
:1018700031463846FFF748FF23462A463146384668
:10188000FFF766FF00231A4631463846FFF784FF0C
:101890000220FFF7D1F9E3E74FF04070E1EE100AC4
:1018A000704700000000000000000102030406076A
:1018B00008090000D4180008000000201C000000E7
:1018C000E8010008F01800081C0000204407000090
:1018D00004020008000000000100000010000000E9
:1018E000000000000024F4000000000000000000E0
:04000005080001AD41
:00000001FF
