:020000040800F2
:1000000040500020810200080B300008132A00082D
:100010000930000895070008BD3B000800000000FB
:10002000000000000000000000000000C101000806
:100030008D090008000000001D020008753200084C
:100040009B0200089B0200089B0200089B0200081C
:100050009B0200089B0200089B0200089B0200080C
:100060009B0200089B0200089B0200089B020008FC
:10007000A10800089B020008AD0800089B020008C8
:100080009B020008B90800089B020008A5070008A9
:10009000990700089B0200089B0200089B020008C9
:1000A0009B0200089B0200089B0200089B020008BC
:1000B0009B0200089B0200089B0200089B020008AC
:1000C0009B0200089B0200089B0200089B0200089C
:1000D0009B0200085D3A0008193B0008253B000818
:1000E0009B0200089B0200089B0200089B0200087C
:1000F0009B0200089B0200089B0200089B0200086C
:100100009B0200089B0200089B0200089B0200085B
:100110009B0200089B0200089B0200089B0200084B
:100120009B020008C5080008D10800089B020008CF
:100130009B0200089B0200089B020008BD07000804
:10014000B10700089B0200089B0200089B02000800
:100150009B020008DD0800089B020008B13B000874
:100160009B0200089B0200089B0200089B020008FB
:100170009B0200089B0200089B0200080000000090
:100180009B0200089B020008153600089B0200082D
:100190009B0200089B0200089B0200089B020008CB
:1001A00000000000000000009B020008DFF80CD0F7
:1001B00000F020FA00480047754800084050002031
:1001C0002C4B19680868B0E8F04F80F30988BFF33A
:1001D0006F8F4FF0000080F311887047000000001F
:1001E00008480068006880F308884FF0000080F33A
:1001F000148862B661B6BFF34F8FBFF36F8F00DF15
:1002000000BF00BF08ED00E0DFF80C00016841F41A
:1002100070010160704700BF88ED00E0EFF30980D6
:10022000BFF36F8F134B1A681EF0100F08BF20ED3D
:10023000108A20E9F04F106009B44FF0500080F3AD
:100240001188BFF34F8FBFF36F8F04F0A7FF4FF0FC
:10025000000080F3118809BC19680868B0E8F04F05
:100260001EF0100F08BFB0EC108A80F30988BFF3AE
:100270006F8F704780000020EFF30580704700000B
:100280000648804706480047FEE7FEE7FEE7FEE730
:10029000FEE7FEE7FEE7FEE7FEE7FEE721330008A4
:1002A000AD0100082DE9F05F0546002092469B460F
:1002B00088460646814640241BE02846414647467C
:1002C000224600F0F2F853465A46C01A914110D324
:1002D00011461846224600F0D9F82D1A67EB01089E
:1002E0004F4622460120002100F0D0F817EB00090C
:1002F0004E41201EA4F10104DFDC484631462A4667
:100300004346BDE8F09F40EA01039B0703D009E0A4
:1003100008C9121F08C0042AFAD203E011F8013BF1
:1003200000F8013B521EF9D27047D2B201E000F84A
:10033000012B491EFBD270470022F6E710B5134689
:100340000A4604461946FFF7F0FF204610BD2DE986
:10035000FE4F81EA030404F0004421F000410094C0
:100360004FF0000B23F0004350EA01045ED052EA44
:1003700003045BD0C3F30A54C1F30A552C44A4F21E
:10038000F3340194A0FB0254C1F3130141F4801132
:10039000C3F3130343F4801301FB024400FB034E39
:1003A000840A970A44EA815447EA8357A4FB076802
:1003B00002958D0A05FB07854FEA932C04FB0C542C
:1003C0002705029D4FEA065847EA1637B5EB0805A0
:1003D0006EEB070C870E920E47EA811742EA8312F2
:1003E000A7FB0201B6EB0B0164EB00042B0D43EA03
:1003F0000C335E1844EB1C50DA465146E7FB020111
:10040000C5F313044FEA0B3343EA14534FEA0432A3
:10041000019C43EA0603A4F10C040294009CCDE97C
:1004200000B400F098F803B0BDE8F08F002001465A
:10043000F9E70EB5C10F80EAE0700844CA07002151
:1004400040F233438DE80E000A460B4600F083F875
:1004500003B000BD01F0004330B421F0004150EA88
:10046000010206D00A0DA2F56072C1F31301002A41
:1004700002DC30BC00207047440F44EAC104C100D4
:10048000E01830BC00EBC25000F01FB8202A04DB9B
:10049000203A00FA02F1002070479140C2F1200397
:1004A00020FA03F3194390407047202A04DB203AD6
:1004B00021FA02F00021704721FA02F3D040C2F184
:1004C000200291400843194670470029A8BF704791
:1004D000401C490008BF20F00100704710B4B0FA7A
:1004E00080FC00FA0CF050EA010404BF10BC704715
:1004F00049B1CCF1200421FA04F411FA0CF118BF2F
:10050000012121430843A3EB0C01CB1D4FEA0061FD
:100510004FEA102042BF002010BC704700EBC350D0
:1005200010440029A4BF10BC7047401C490008BFFC
:1005300020F0010010BC704710B5141E73F10004C8
:1005400008DA401C41F1000192185B411A4301D1C5
:1005500020F0010010BD2DE9F04D92469B4611B1EF
:10056000B1FA81F202E0B0FA80F220329046FFF751
:100570008DFF04460F4640EA0A0041EA0B0153464C
:100580005A46084313D0114653EA010019D0C8F166
:1005900040025046FFF789FF05460E465046594631
:1005A0004246FFF773FF084305D0012004E02046D0
:1005B0003946BDE8F08D0020054346EAE0762C433D
:1005C00037430A986305E40AA0EB08000022FD0AFD
:1005D00044EA47540A3002D500200146E9E7010504
:1005E00010196941DDE9084500196941BDE8F04D80
:1005F000A2E70000064C074D06E0E06840F001036A
:1006000094E8070098471034AC42F6D3FFF7D2FDC8
:10061000BC590008DC59000800B589B04FF4867158
:100620000091002108220291CDE903128DF81800F3
:10063000FE208DF819008DF81A108DF81B10079107
:1006400008AB06AA6946024800F0DAF909B000BD15
:100650004003002000B589B040F20511009100214F
:1006600008220291CDE903128DF818008DF81910B7
:100670008DF81A108DF81B10079108AB06AA694671
:10068000024800F0BDF909B000BD000040030020A1
:1006900070B58AB04FF48675039500250695DDE99F
:1006A0000E468DF804008DF805100595100A0825F2
:1006B0008DF8060007958DF80830200A8DF809009E
:1006C0008DF807208DF80A408DF80B606B4601AA63
:1006D00003A9024800F094F90AB070BD400300205D
:1006E00000EE100A9FED141A00B5F8EEC00A89B0AA
:1006F0003220009080EE810ADFED100A00200822EF
:100700000290CDE90302079008AB20EE200ABDEE6F
:10071000C00A10EE101A0A0A8DF818208DF8191068
:100720008DF81A008DF81B0006AA6946044800F0EF
:1007300067F909B000BD00000000B44300FEFF46A9
:100740004003002030B589B040F20D14029400241B
:1007500008250494CDE905458DF8000052018DF877
:100760000110100A8DF802005B01180A8DF80400D0
:100770008DF805308DF803208DF806408DF8074080
:1007800008AB6A4602A9024800F03AF909B030BD48
:1007900040030020FEE70000014800F090BA00008E
:1007A00040030020014800F08ABA00004003002006
:1007B000014800F084BA000068030020014800F0FE
:1007C0007EBA00006803002038B50E4C4FF4007567
:1007D00025600025A560E560082525610A4C050A0D
:1007E00025706070080AA070E170100A20716271B3
:1007F000180AA071E3716B4622460249034800F0D3
:10080000FFF838BDFC070020400000204003002016
:1008100038B50E4C40F2FF1525600025A560E56057
:10082000082525610A4C050A25706070080AA07029
:10083000E170100A20716271180AA071E3716B46B1
:1008400022460249034800F0DBF838BDE4070020E7
:10085000380000206803002038B50E4C4FF40075B6
:1008600025600025A560E560082525610A4C050A7C
:1008700025706070080AA070E170100A2071627122
:10088000180AA071E3716B4622460249034800F042
:10089000B7F838BDE40700203800002068030020C6
:1008A000014800F029BD000060060020014800F06A
:1008B00023BD000000060020014800F01DBD00001F
:1008C000A0050020014800F017BD0000200700200F
:1008D000014800F011BD000040050020014800F073
:1008E0000BBD0000C006002001681823CAB2103AF0
:1008F000B2FBF3F2054B6FF30901032A9B5CC3655E
:1009000000D9091D8165084670470000045600089B
:1009100010B5014600208B698A6A4FF0C07453B14C
:10092000B3F5005F15D072B1012A0CD0022A0AD0AB
:10093000032A09D104E01AB1012A06D0022A03D100
:10094000C96AC90100D5012010BDC96AA142FAD007
:1009500010BD002AF7D0012AF2D0022AF3D0032AD0
:10096000F3D010BD30B50468256825F480252560D6
:10097000046863608368402B036803D09960006853
:10098000C26030BD9A600068C16030BD704772B609
:10099000FEE7000010B558B1084C491E0BD310F803
:1009A000013B5340DBB234F8133083EA1222F4E700
:1009B0004FF6FF7010BD104610BD000080570008B4
:1009C00010B5054C03E010F8013B5340E25C491EB2
:1009D000F9D2104610BD00008056000890F8202083
:1009E000012A07D0022A05D0416A41F480214162E0
:1009F00001207047006842690A4342610020704745
:100A0000F0B590F820500468A468012D05D0022D9F
:100A100003D0416A41F480214DE014F0406F01D1D0
:100A2000E50045D5C4F301640125A5401D608B6830
:100A30004FF4C0759BB1CE6833434E6843EAC6039A
:100A4000066805EB0417F3514FF4C273076803EB14
:100A500004130E69FE50097D012905D009E00E88B6
:100A6000CB6843EA4653EBE70168CE5846F48076FC
:100A7000CE501179D2F805304FF4C67641EA032101
:100A8000036806EB041699511178D2F801204FF44F
:100A9000C47341EA0221026803EB0413D1500068D9
:100AA00005EB0411425842F0010242500020F0BD13
:100AB000416A41F4001141620120F0BD10B590F887
:100AC0002020012A07D0022A05D0416A41F4802162
:100AD0004162012010BD3B48D0F8002242F00102E3
:100AE000C0F80022D0F8002222F47C52C0F8002284
:100AF000D0F800224B6A42EA0322C0F800220A7DA5
:100B000002F01F0301229A40D0F81C329343C0F830
:100B10001C32CB69B3B9D0F80C329343C0F80C3215
:100B20008C894B6864F31F434C6900EBC404C4F820
:100B300040320C890B6864F31F434C6900EBC4041A
:100B4000C4F84432CB69012B16D1D0F80C321343D0
:100B5000C0F80C320C884B6864F31F434C6900EBFF
:100B6000C404C4F840320C89CB6864F31F434C6959
:100B700000EBC404C4F844328B69002BD0F8043273
:100B80000ED01343C0F804320B69002BD0F8143296
:100B900008D01343C0F81432096A012904D008E0D0
:100BA0009343EFE79343F5E7D0F81C121143C0F8E5
:100BB0001C12D0F8001221F00101C0F80012002030
:100BC00010BD000000640040704770B590F82040F0
:100BD000012C05D0022C03D0416A41F4802128E089
:100BE000046809B32469A40720D04FF4D8740568B9
:100BF00004EB01142D5915F00405956005682D5975
:100C00001AD0ED08556005682C5904F00204D46030
:100C10004FF4DA74056804EB01142E5906F00F0640
:100C2000082E0CD308250DE0E468DCE7416A41F4A6
:100C300000114162012070BD6D0D1560E3E72D5973
:100C400005F00F05156105682D59C5F30725956158
:100C500005682C59240C54614FF4DC72046802EBD3
:100C60000112A4581C700468A458240A5C7004681B
:100C7000A458240C9C700468A258120EDA704FF429
:100C8000DE72046802EB0112A4581C710468A458B7
:100C9000240A5C710468A458240C9C710468A2584E
:100CA000120EDA71006829B1016941F02001016179
:100CB000002070BDC16841F02001C160F8E72DE956
:100CC000F05F0546006800244669D0F80490876804
:100CD000D0F80CB0D0F810A0D0F81880F10748D0A8
:100CE000F90714D001218160B80703D5284600F028
:100CF000A2FA0CE0780702D54FF4006407E0380749
:100D000002D54FF4805402E0284600F093FAF8052B
:100D100016D529684FF480708860B80503D5284639
:100D200000F08BFA0CE0780502D544F4005407E09B
:100D3000380502D544F4804402E0284600F07CFAED
:100D4000F80316D529684FF480308860B80303D5BE
:100D5000284600F074FA0CE0780302D544F400440D
:100D600007E0380302D544F4803402E0284600F05E
:100D700065FA300707D55FEACB6004D529681020F3
:100D800044F40074C86070074FF0080707D55FEAA5
:100D90000B7004D52868C760284600F0A7F9B00793
:100DA00006D52868C068800702D0284600F0A0F960
:100DB000700607D55FEACA6004D52968102044F49C
:100DC00080640861B00607D55FEA0A7004D5286818
:100DD0000761284600F000FAF00606D52868006989
:100DE000800702D0284600F0F8F9B00308D55FEA82
:100DF000C96005D5296810204860284600F0EEF942
:100E0000F00307D55FEA097004D5286847602846D3
:100E100000F016FA300446D55FEA497040D5F00577
:100E200004D55FEAC87001D044F00104B00504D5D0
:100E30005FEA887001D544F00204700504D55FEACA
:100E4000487001D544F00404300529D518F0700F1E
:100E500026D008F07000402815D006DC102809D0F4
:100E600020280AD0302816D10AE050280ED0602859
:100E700011D10EE044F008040DE044F010040AE043
:100E800044F0200407E044F0400404E044F080040F
:100E900001E044F480742868816921F07001816167
:100EA000296804204860002C05D0686A20436862E5
:100EB0002846FFF789FEBDE8F09F70B5040003D017
:100EC00094F8200010B104E0012070BD204600F02D
:100ED00081F82068016841F00101016000F08CFC9C
:100EE0000546052604E000F087FC401B0A2811D8BF
:100EF00020684068C007F6D02068016821F0020130
:100F0000016000F079FC05460BE000F075FC401B29
:100F10000A2806D9606A40F40030606284F82060D4
:100F2000D2E7206840688007EFD4207E012820683F
:100F300001683DD021F080010160607E01282068B9
:100F4000016838D021F040010160A07E01282068AE
:100F5000016833D021F020010160E07E0128206883
:100F600001682ED041F010010160207F0128206827
:100F7000016829D021F008010160607F0128206804
:100F8000016824D021F004010160D4E90201084382
:100F9000D4E90412114308436168491E08432168DB
:100FA000C86100206062012084F82000002070BD2C
:100FB00041F08001C0E741F04001C5E741F0200168
:100FC000CAE721F01001CFE741F00801D4E741F072
:100FD0000401D9E7F0B587B0044614216846FFF74D
:100FE000ABF93D493D4ADFF8ECE00868D4F800C0B1
:100FF0003A4B03240225092610320027401CF445F1
:1010000029D10860012807D1106840F000701060F5
:10101000106800F000700590186840F00800186033
:1010200018688DE8B00000F00800CDE9046069465A
:1010300003942B4800F0E4FA00220521132000F06D
:101040004DFC132000F03CFC00220521142000F090
:1010500045FC14203AE0DFF88CE0F44538D1D2F8B2
:1010600000C04CF0806CC2F800C0D2F800C001286B
:101070000CF0806CCDF814C0086007D1106840F007
:1010800000701060106800F000700590186840F063
:10109000020018601868694600F0020005904FF4DD
:1010A00040508DE8A100CDE903460F4800F0A8FAB2
:1010B000002205213F2000F011FC3F2000F000FC41
:1010C00000220521402000F009FC402000F0F8FB40
:1010D00007B0F0BD00640040180000203038024026
:1010E000000C02400068004000040240704700000D
:1010F00010B58AB004466B4602AA0021FFF765FDD1
:101100003149206888423ED1029840F20222A0F282
:10111000022190420FD007DC972824D0A0F5007060
:1011200001381BD1294808E0012919D0022915D11D
:1011300026481E3001E025480A3001880181BDF8AB
:10114000001049BA0180BDF8021049BA4180BDF8CB
:10115000041049BA81809DF8061081710AB010BD53
:101160001A481430E9E71A4881880180BDF8001058
:1011700049BA4180BDF8021049BA8171BDF8041026
:1011800049BA8180EAE713498842E7D10298A0F280
:1011900001200828E2D2DFE800F005080404140B5F
:1011A0000E11DBE709484630C7E708485030C4E76E
:1011B00006483230C1E705482830BEE703485A30B8
:1011C000BBE702483C30B8E70064004080070020DD
:1011D000300000200068004070477047704770B5CD
:1011E000044690F82000012804D0606A40F40020F2
:1011F000606217E0022084F820002068016821F076
:101200000101016000F0F8FA05460DE000F0F4FA83
:10121000401B0A2808D9606A40F40030606205204B
:1012200084F82000012070BD20684068C007EDD11F
:10123000606270BD70477047704770477047704775
:1012400070472DE9F0410446876D00F0D5FA054658
:1012500094F835000026022806D08020606584F8C6
:1012600034600120BDE8F0812068016821F016019A
:1012700001602068416921F080014161206C08B95A
:10128000A06C20B12068016821F00801016020688D
:10129000016821F0010101600CE000F0ADFA401B93
:1012A000052807D920206065032084F8350084F8DC
:1012B0003460D7E720680068C007EED194F85C106E
:1012C0003F208840B860012084F8350084F83460FD
:1012D0000020C7E790F83510022903D0802141652E
:1012E00001207047052180F835100068016821F061
:1012F00001010160002070472DE9F84304464FF0DA
:101300000009CDF8009063484FF41651A56D0068B0
:10131000B0FBF1F72E6894F85C20082101FA02F086
:1013200030420FD02068026852070BD5026822F0C5
:101330000402026094F85C008140A960606D40F096
:101340000100606594F85C104FF0010808FA01F0A4
:10135000304208D021684969090604D5A860606D4B
:1013600040F00200606594F85C1004208840304230
:1013700008D021680968890704D5A860606D40F02D
:101380000400606594F85C1010208840304218D04A
:1013900021680968090714D5A86020680168490315
:1013A00004D50068000308D5A16C07E00168C905F1
:1013B00003D4016821F008010160216C09B12046C5
:1013C000884794F85C1020208840304231D0216852
:1013D0000968C9062DD5A86094F83500052820684D
:1013E000016806D0490347D5006800031DD4616C2D
:1013F0001CE021F0160101602068416921F08001A4
:101400004161206C08B9A06C20B12068016821F00E
:101410000801016094F85C103F208840A86084F8BF
:10142000358084F83490216D1FE0E16B09B12046CE
:101430008847606D00282BD0606DC00714D0052050
:1014400084F835002068016821F0010101600098EE
:10145000401C0090B84203D820680068C007F6D14D
:1014600084F8358084F83490E16C002910D001B004
:101470002046BDE8F04308470168C905D5D4016896
:1014800021F01001016084F8358084F83490CCE7B5
:10149000BDE8F8832C0000202DE9F041044600F05F
:1014A000ABF905465CB1022084F83500002684F8CB
:1014B00034602068016821F0010101600DE0012025
:1014C000BDE8F08100F098F9401B052805D92020DF
:1014D0006065032084F83500F2E720680068C007E3
:1014E000F0D121680A6820480240D4E9010318437A
:1014F000D4E903352B43184363691843A3691843A0
:10150000E3691843236A18431043626A042A03D12B
:10151000D4E90B231A431043086020684069656AC8
:1015200020F0070128460D43012704280CD1A06AAA
:101530000543E06A40B12046FFF7EAF920B14020B8
:10154000606584F83570BAE7206845612046FFF78A
:10155000CBF994F85C203F2191408160666584F866
:1015600035700020ACE700003F8010F02DE9F0411D
:101570000446866D90F83400002501280DD0012026
:1015800084F8340094F835700020012F07D084F8D7
:10159000340002252846BDE8F0810220FBE702273F
:1015A00084F8357060652046FFF7DCF994F85C102C
:1015B0003F208840B0602068016841F0160101605A
:1015C000206C20B12068016841F0080101602068AA
:1015D000016841F001010160DCE7000070B50446DC
:1015E00000F00AF90546601C02D004480078044463
:1015F00000F002F9401BA042FAD370BD2000002089
:101600002DE9F84FDFF8B0910022A9F1040B032770
:101610004FF00F0C09F1040AABF1040E01250B6821
:1016200095402B40AB426ED10C7904F00304012CA1
:1016300001D0022C15D18668540007FA04F826EA76
:101640000806D1F80C8008FA04F848EA0608C0F841
:1016500008804468AC430D79C5F3001595402543D7
:1016600045600C79E443A40708D0C568540007FA24
:1016700004F6B5438E68A6402E43C6600C7904F08C
:101680000304022C11D1D40800EB8406356A5407F8
:10169000E40E0CFA04F825EA0805D1F8108008FADF
:1016A00004F848EA0508C6F820800568540007FADF
:1016B00004F6B5430E7906F00306A6402E430660F5
:1016C0004C6814F4403F70D03C4C256845F480458C
:1016D0002560246822F0030504F480440094384C0B
:1016E00005EB0408D8F808589407260F0CFA06F4FE
:1016F000A543344CA04201D100242EE0324CA0423C
:1017000002D1012429E050E0304CA04201D1022452
:1017100023E02F4CA04201D103241EE02D4CA04217
:1017200001D1042419E02C4CA04201D1052414E07D
:101730002A4CA04201D106240FE0294CA04201D13D
:1017400007240AE0274CA04201D1082405E0264CDA
:10175000A04201D1092400E00A24B4402C43C8F877
:101760000848D9F800404D464E689C43F60200D523
:101770001C432C60DAF8004055464E689C43B60284
:1017800000D51C432C60DBF800405D464E689C434E
:10179000B60300D51C432C60DEF8004075464E6849
:1017A0009C43F60300D51C432C60521C102AFFF406
:1017B00035AFBDE8F88F0000083C014044380240D6
:1017C00000300140000002400004024000080240D6
:1017D000000C0240001002400014024000180240B9
:1017E000001C024000200240002402400AB1816136
:1017F00070470904FBE7000001488068704700005B
:1018000020000020024881680278114481607047FE
:10181000200000200B4810B5016841F40071016000
:10182000016841F480610160016841F480710160E8
:10183000032000F073F80F2000F006F800F024F801
:10184000002010BD003C024070B50D4D04464FF421
:101850007A712878B1FBF0F00A490968B1FBF0F021
:1018600000F006FB48B9102C07D200222146501E7A
:1018700000F034F800206C6070BD012070BD0000E5
:10188000200000202C0000200C4882B0016841F4A8
:1018900080410160006800F4804000900748001F0C
:1018A000016841F0805101600068002200F0805022
:1018B00000900F21901E02B000F010B84438024092
:1018C000002809DB00F01F0201219140400980003F
:1018D00000F1E020C0F8001170470000F0B40E4B9A
:1018E0001B68C3F30223C3F10704042C00D90424AA
:1018F0001D1D072D01D2002300E0DB1E012606FA84
:1019000004F56D1E0D409D409E40761E164045EA32
:101910000601F0BC02F0D4B90CED00E0064A00F07C
:10192000070110684FF6FF03184040EA0120034901
:1019300008431060704700000CED00E00000FA055D
:101940002DE9F0470D46040065D0DFF81491D9F871
:101950000000EFB200F00F00A84207D289F8007033
:10196000D9F8000000F00F00A84254D120683D4E85
:10197000810712D5400703D5306840F4E05030604D
:101980002078000703D5306840F46040306030684C
:10199000A16820F0F000084330602078C0072DD007
:1019A000304960680839012812D0022813D0032872
:1019B00011D00968890700292DDA316821F0030167
:1019C00001433160FFF718FF804641F2883A0EE08C
:1019D00009688903EFE709688901ECE7FFF70CFF65
:1019E000A0EB0801514502D90320BDE8F08730681B
:1019F000616800F00C00B0EB810FEFD1D9F8001056
:101A0000484601F00F01A94207D90770006800F0AD
:101A10000F00A84201D00120E7E72078400705D554
:101A20003068E16820F4E050084330602078000717
:101A300006D53068216920F4604040EAC10030607A
:101A400000F038F83168084AC1F30311515CC8400E
:101A50000649086006480068FFF7F6FE0020C4E764
:101A6000003C0240083802400C5600082C000020C0
:101A7000240000200448054900680968044AC1F3AD
:101A80008221515CC84070472C0000200838024079
:101A90001C5600080448054900680968044AC1F357
:101AA0004231515CC84070472C0000200838024089
:101AB0001C560008154810B5006810F00C011448B9
:101AC00013D0144B04290FD008290ED10F4C241F1A
:101AD000216801F03F022168490207D52068C0F360
:101AE0008810A0FB030106E0184610BD2168C1F371
:101AF0008811A1FB00010023FEF7D4FB2168C1F38C
:101B00000141491C4900B0FBF1F010BD083802400A
:101B10000024F400001BB7002DE9F84F040075D035
:101B20002078DFF838A3C007AAF1040548D00AF1ED
:101B300004000168C1F38101012908D00068C0F3E5
:101B4000810002280AD1DAF80000400206D5286890
:101B5000800335D560680028E1D031E06068B0F5D9
:101B6000803F10D0B0F5A02F286810D020F480302E
:101B70002860286820F4802028606068A0B1FFF702
:101B80003BFE06460CE0286840F48030F4E740F461
:101B900080202860F7E7FFF72FFE801B642871D8AC
:101BA00028688003F7D50BE0FFF726FE064604E021
:101BB000FFF722FE801B6428F1D828688003F7D441
:101BC0002078DFF89C9280074FF0000B3DD5A348AA
:101BD000001D016811F00C0F08D00068C0F38100EF
:101BE00002280AD1DAF80000400206D428688007EB
:101BF00015D5E068012809D111E0E068B8B10120ED
:101C0000C9F80000FFF7F8FD064605E022E1FFF7FE
:101C1000F3FD801B0228C2D828688007F7D5286802
:101C2000216920F0F80040EAC10028600DE0C9F801
:101C300000B0FFF7E1FD064604E0FFF7DDFD801B85
:101C400002281FD828688007F7D42078000722D5FB
:101C5000824F84486169703771B101210160FFF7DB
:101C6000CBFD064604E0FFF7C7FD801B022809D81C
:101C700038688007F7D50EE0C0F800B0FFF7BCFD6C
:101C8000064605E082E0FFF7B7FD801B02287DD8FD
:101C900038688007F7D42078400765D56F484FF043
:101CA00000083C300068C0000BD46C483C30016830
:101CB00041F08051016000684FF0010800F0805051
:101CC0000090694F3868C0050FD4386840F48070C0
:101CD0003860FFF791FD064604E0FFF78DFD801B9D
:101CE000022853D83868C005F7D55C4FA0686C3718
:101CF00001280FD00528386810D020F00100386086
:101D0000386820F004003860A068B0B1FFF774FDB7
:101D100006460EE0386840F00100F4E740F00400A9
:101D20003860F7E7FFF768FD811B41F28830814298
:101D300063D838688007F5D50DE0FFF75DFD0646EE
:101D400006E0FFF759FD811B41F28830814254D8EB
:101D500038688007F5D4B8F1000F05D03F483C3013
:101D6000016821F080510160A069B8B33B49091DA9
:101D70000968C1F38101022946D00228584606D0DD
:101D8000C9F86000FFF738FD044639E035E04F46FA
:101D9000C9F86000FFF730FD064604E0FFF72CFDB0
:101DA000801B022829D828688001F7D4D4E90701CC
:101DB0000843A16A2D4A490802EB0141626A41EADF
:101DC0008211084394F82C1040EA0161CAF800100F
:101DD00001203866FFF710FD044605E03CE0FFF700
:101DE0000BFD001B022808D828688001F7D533E0D6
:101DF000FFF702FD001B022802D90320BDE8F88F7F
:101E000028688001F4D427E00128F7D0DAF8000030
:101E1000E26900F4800191421CD1226A00F03F0186
:101E2000914217D147F6C071626A0140B1EB821F3F
:101E300010D1A26A4FF0FF3300F4403103EB52029D
:101E4000B1EB024F06D194F82C1000F07060B0EBAB
:101E5000016F01D00120D1E70020CFE70438024014
:101E600000004742800E4742007000400000FFFF24
:101E700010B5401EB0F1807F01D3012010BD4FF09E
:101E8000E02460610F21601701F01AFF0020A061BB
:101E900007202061002010BD70B590F83C20012A79
:101EA00032D0012580F83C50022280F83D200268A3
:101EB0005368946823F070060B6833435360134BE8
:101EC00002689A4214D0B2F1804F11D0104B9A425E
:101ED0000ED0104B9A420BD00F4B9A4208D00F4BAA
:101EE0009A4205D00E4B9A4202D00E4B9A4204D130
:101EF000496824F080031943916080F83D50002127
:101F000080F83C10084670BD022070BD0000014002
:101F10000004004000080040000C004000040140A4
:101F2000004001400018004010B5040003D094F8B0
:101F30003D0010B107E0012010BD002084F83C00F6
:101F4000204600F01FF8022084F83D00211D206883
:101F500001F0EEF9012084F8460084F83E0084F890
:101F60003F0084F8400084F8410084F8420084F87F
:101F7000430084F8440084F8450084F83D000020C4
:101F800010BD000008B50068B0F1804F08D10548C9
:101F9000016841F001010160006800F0010000905B
:101FA00008BD00004038024070B5044690F83C007F
:101FB0000025012817D0012684F83C60022084F80F
:101FC0003D002068826822F0770222F47F4282601E
:101FD0000868502838D00DDC20284FD005DC90B39D
:101FE000102811D14AE0022070BD302846D0402888
:101FF0000AD13BE060282FD070280DD0B0F5805F6B
:1020000003D0B0F5005F12D0012584F83D600020B8
:1020100084F83C00284670BDCB68D1E901212068D6
:1020200001F0FFF92068816841F0770109E0CB6891
:10203000D1E90121206801F0F4F92068816841F4B8
:1020400080418160E1E719E0CA684968206801F0D1
:10205000BDFA5021206806E0CA684968206801F08E
:10206000C6FA6021206801F0E6F9CEE7CA6849683F
:10207000206801F0ABFA40212068F4E722680146AD
:102080001046F0E710B586B0044614216846FEF706
:1020900053F92068B0F1804F14D10B480021026839
:1020A00042F001020260006800F001000590022089
:1020B0000090CDE901010120CDE9031069460348F4
:1020C000FFF79EFA06B010BD303802400000024013
:1020D00070B5044690F83C0000260D4601280FD04C
:1020E000012084F83C006AB1042A1DD0082A2FD0B0
:1020F0000C2A3FD00126002084F83C00304670BDF9
:10210000022070BD206801F09FF92068816941F0CC
:10211000080181612068816921F0040181612068E2
:1021200081692A69114311E0206801F0BDF9206836
:10213000816941F4006181612068816921F48061D5
:102140008161206881692A6941EA02218161D2E7BF
:10215000206801F0DFF92068C16941F00801C16120
:102160002068C16921F00401C1612068C1692A6940
:10217000114311E0206801F001FA2068C16941F4BF
:102180000061C1612068C16921F48061C16120687A
:10219000C1692A6941EA0221C161ACE710B50400B6
:1021A00003D094F83D0010B107E0012010BD0020DD
:1021B00084F83C00204600F01EF8022084F83D0020
:1021C000211D206801F0B4F8012084F8460084F84D
:1021D0003E0084F83F0084F8400084F8410084F811
:1021E000420084F8430084F8440084F8450084F8F1
:1021F0003D00002010BD704710B5044649B10429C8
:102200000AD008290BD094F8410001280AD00120F7
:1022100010BD94F83E00F8E794F83F00F5E794F815
:102220004000F2E70220B1B3042938D0082939D0A0
:1022300084F841000122206801F0E6F81B4920687B
:102240001B4A884201D0904203D1436C43F40043BF
:1022500043642068884213D0B0F1804F10D01549F4
:1022600088420DD0144988420AD01449884207D0C8
:10227000904205D01249884202D01249884204D1C6
:10228000816801F00701062903D0016841F00101CE
:102290000160002010BDFFE784F83E00CAE784F823
:1022A0003F00C7E784F84000C4E700000000014099
:1022B000000401400004004000080040000C004001
:1022C0000040014000180040704710B50446006807
:1022D000406994F84110C0F3C010212911D180B198
:1022E0002068143050E8001F21F0800140E80012FF
:1022F000002AF5D1A06B08B1FEF7A3FF204601F03C
:1023000035FA2068406994F84210C0F38010222901
:1023100011D180B12068143050E8001F21F0400135
:1023200040E80012002AF5D1E06B08B1FEF789FF02
:10233000204601F0F4F9002010BD7047F8B501689F
:1023400004460868CA684B6910F00F0F4FF000058B
:1023500059D003F0010602F49077374365D0C107E6
:1023600005D0D10503D5616C41F0010161644107DD
:1023700005D5D90703D0616C41F002016164810782
:1023800005D5D90703D0616C41F0040161640107F0
:1023900007D502F02001314303D0616C41F0080100
:1023A0006164616C00293AD0800604D5900602D59C
:1023B000204601F0E9F920684069616CC0F38010A3
:1023C000090700D460B3204601F0A9F920684069EC
:1023D000400621D52068143050E8001F21F040014C
:1023E00040E80012002AF5D1E06BA8B16E49016502
:1023F000E06BFEF76FFF002811D0E06B016D01B0BC
:10240000BDE8F040084783060FD593060DD520465A
:10241000BDE8F84001F0B8B92046FFF78EFFF8BDDF
:102420002046FFF78AFF6564F8BD266B2023012E46
:102430007DD1C6067BD5D60679D508684868009058
:1024400048694FF00206400641D5E16B08684068D4
:102450000004000CE8D0A28D8242E5D9E085C8696D
:10246000B0F5807F2DD020680C3050E8001F21F49B
:10247000807140E80012002AF5D12068143050E83D
:10248000001F21F0010140E80012002AF5D1206868
:10249000143050E8001F21F0400140E80012002AEB
:1024A000F5D184F84230256320680C3050E8001FD5
:1024B00021F0100140E80012002AF5D1E06BFEF790
:1024C000C0FE6663A08DE18D401A81B22AE0A08D26
:1024D000E18D401A81B2E08D0028A5D00029A3D05B
:1024E00020680C3050E8002F22F4907240E800275A
:1024F000002FF5D12068143050E8002F22F001029F
:1025000040E80027002FF5D184F842302563206889
:102510000C3050E8002F22F0100240E80023002B7E
:10252000F5D166632046FFF7CFFEF8BDFFE705064D
:102530002BD5150629D594F841002128F5D1A0689E
:10254000B0F5805F01D12069B0B1206A411C2162E1
:10255000216800784860E08C401E0004000CE08494
:10256000E3D12068C16821F08001C1602068C168A2
:1025700041F04001C160D8E7206A0088C0F308003C
:102580004860206A801C2062E5E74006CDD55006F1
:10259000CBD5CA68204622F04002CA6084F8413098
:1025A00000F036FAC1E700002136000870B50400DB
:1025B00004D094F84100002510B106E0012070BD60
:1025C00084F84050204600F023F8242084F841008D
:1025D0002068C16821F40051C160204601F036F93D
:1025E0002068016921F4904101612068416921F06E
:1025F0002A0141612068C16841F40051C1606564ED
:10260000202084F8410084F842006563002070BDFA
:102610002DE9F04F87B0044614216846FDF78CFE83
:10262000BD48BC4A2368DFF8F0C2103802210327F6
:102630000025934222D1DCF8002042F08042CCF801
:102640000020DCF8002002F080420592026842F08F
:1026500010020260006800F010000590F8018DE89B
:10266000A300082004906946AC48FEF7C9FF002289
:1026700005215220FFF732F952205AE0DFF8A082FC
:10268000DFF894E207220EF1040E4FF000694FF4D8
:10269000403A4FF48066434550D1DEF800C04CF01C
:1026A000100CCEF800C0DEF8003003F010030593E4
:1026B000036843F002030360036803F00203059319
:1026C000036843F00103036000688B4600F00100DB
:1026D00005908020CDE9000B02AB904683E8A00175
:1026E00069469048FEF78CFF7010CDE9000B02ABF5
:1026F000694683E8A0018C48FEF782FF8C4F8B4827
:102700003860C7E90195C7E9035680157D61C7E9BF
:102710000650C7E908A53846FEF7BEFE08B1FEF729
:1027200036F9E763002205212520BC63FFF7D6F8C0
:102730002520FFF7C5F807B0BDE8F08FDFF8F4817A
:102740004FF0400B434535D1DCF8003043F4003303
:10275000CCF80030DCF8003003F400330593036854
:1027600043F0080303600068049200F0080005903D
:1027700060208DE8A30069466F48FEF741FF6C4F6B
:102780006E486037C7E903567D61BD61C7E9075AE6
:102790007D6287E8010A3846FEF77EFE08B1FEF743
:1027A000F6F8A763002205212620BC63FFF796F800
:1027B0002620BEE7DFF88881434555D1DCF800309C
:1027C000A84643F48023CCF80030DCF8003003F452
:1027D00080230593036843F00803036000680492B4
:1027E00000F0080005904FF440708DE8A3006946A2
:1027F0005148FEF705FF4E485049C0304F46C0E9EA
:10280000035645618561C0E9075A4839456280E849
:102810008208B1465646FEF73FFE08B1FEF7B7F80C
:102820004348484DC030A063846344487838C5E9C4
:102830000007C5F80880C5E90389C5F81480C5F804
:102840001880C5E907862846C5F82480FEF724FECF
:1028500008B1FEF79CF8E563002205212720AC6350
:10286000FFF73CF8272064E7374A93427FF463AFD1
:10287000DEF8003043F02003CEF80030DEF8002010
:1028800002F020020592026842F0400202600068F5
:1028900000F0400005904FF484408DE8A30008202C
:1028A000049069462948FEF7ABFE264F1F48603763
:1028B0006030C7E903567D61BD61FD613D624FF047
:1028C00020687D6287E801093846FEF7E5FD08B11A
:1028D000FEF75DF8A763BC631A4F1448C037183879
:1028E0003860C7E90185C7E903567D61BD61FD61B7
:1028F0003D6238467D62FEF7CFFD08B1FEF747F82E
:10290000E763002205214720BC63FEF7E7FF47206D
:102910000FE70000007800404038024000100240FD
:1029200000100140000402400000024040640240E8
:102930004005002000440040000C0240A06002401E
:1029400000480040600600200014014000180240CA
:1029500090F84230202B01D00220704721B11AB1EB
:102960000023036300F0F8BF0120704770477047F1
:102970002DE9F843044690F841001F4615460E46DF
:10298000202802D00220BDE8F8838EB185B1002056
:102990006064212084F84100FEF72EFFA584814663
:1029A000E584A0684FF02008B0F5805F02D003E016
:1029B0000120E8E7206910B1354600260EE0002529
:1029C0000CE08021204601F011F8A0B9BDB115F846
:1029D000010B21684860E08C401EE084E08C4B468F
:1029E0004FF0000200970028EBD14FF04001204645
:1029F00000F0FCFF40B184F841800320C3E736F8C3
:102A0000020BC0F30800E4E784F841800020BAE735
:102A10007047FEE72DE9F04104004FF0000609D0B1
:102A20005E4D2068C5F817002079E8762078A52843
:102A300003D0AFE0FA20BDE8F0810521204601F087
:102A400023F9012701284BD161782046093101F093
:102A5000FDF8012844D1B4F80500012640F2022215
:102A6000A0F202214FF48173904265D017DC9842A6
:102A700051D00ADC01283CD0022840D0032841D0A4
:102A8000A0F5807001382BD140E0B0F5827F47D0AF
:102A9000A0F58070053847D0FC2821D147E00429F3
:102AA00060D006DC01294CD0022951D0032917D16E
:102AB00051E005295CD0062962D0994210D13848EE
:102AC000D4F8071040F8221FD4F80B104160D4F856
:102AD0000F108160007A400702D532A001F0E8F8BB
:102AE0002E4809341730B0F80100015DA5294BD0FC
:102AF0004DE0B4F80700A881607AA873F0E7E079A8
:102B0000A870EDE72422E11D28481EE0D4F8070054
:102B1000C5F80F00E4E7D4F80700C5F81300DFE7B5
:102B2000B4F807006881DBE7E079E870D8E71F4870
:102B30001A22E11D243008E01C481022E11D3E301D
:102B400003E01A481022E11D4E30FDF7DCFBC7E719
:102B5000E0792871C4E7B4F80700A5F80500607AA9
:102B6000E871BDE7E079A8710009B9D16F70B7E7E6
:102B7000D4F80700C5F82200B4F80B00E884AFE7EA
:102B8000B4F80700A883ABE72044FFF743FF0EB17A
:102B90002F7001E00020287030464CE754000020E0
:102BA000CC0C0020636C69636B000000260E0020D3
:102BB0000F4810B50D4901600321416000214FF419
:102BC00000228160C0E90312D200426101764176A1
:102BD0008176C17601774177FEF76FF9002803D03F
:102BE000BDE81040FDF7D3BE10BD000000640040FA
:102BF000400300200F4810B50D49016003214160DA
:102C000000214FF430228160C0E903124FF480129A
:102C10004261017641768176C17601774177FEF790
:102C20004CF9002803D0BDE81040FDF7B0BE10BD40
:102C30000068004068030020214808B5016841F49D
:102C400080010160016801F480010091016841F494
:102C5000001101600068002200F4001000900521BE
:102C60000C20FEF73BFE0C20FEF72AFE0022052179
:102C70000E20FEF733FE0E20FEF722FE0022052175
:102C80001120FEF72BFE1120FEF71AFE002205216F
:102C90003920FEF723FE3920FEF712FE002205211F
:102CA0003A20FEF71BFE3A20FEF70AFE002205211D
:102CB0004520FEF713FEBDE808404520FEF700BEA4
:102CC0003038024010B5A4B01C221C496846FDF7FC
:102CD0001AFB0021684601F007FE194C17491C2217
:102CE00020611C3107A8FDF70EFB002107A801F0A9
:102CF000FBFD124920601C2238310EA8FDF703FBB2
:102D000000210EA801F0F0FD0C4960601C22543136
:102D100015A8FDF7F8FA002115A801F0E5FD07490F
:102D2000A0601C2270311CA8FDF7EDFA00211CA840
:102D300001F0DAFDE06024B010BD00007855000815
:102D4000040000202DE9F04387B014216846FDF708
:102D5000F3FA3A480024016841F04001016001683B
:102D600001F040010591016841F001010160016835
:102D700001F001010591016841F002010160016863
:102D800001F002010591016841F00801016001684C
:102D900001F008010591016841F02001016001681E
:102DA00001F020010591016841F080010160016896
:102DB00001F080010591016841F010010160006897
:102DC0001F4F00F0100044F2030505900022294631
:102DD0003846FEF70BFDDFF86C8000223C214046B0
:102DE000FEF704FDDFF86090EE1000223146484601
:102DF000FEF7FCFC00950125CDE9015469463846F3
:102E00000394FEF7FDFB3C200090CDE90154694698
:102E100040460394FEF7F4FB40208DE831006946FC
:102E20000A48FEF7EDFB0096CDE901546946484695
:102E30000394FEF7E5FB07B0BDE8F08330380240AD
:102E400000140240001C024000100240000002403A
:102E500010B58EB000240794089409940A940B943A
:102E60001C2168460C94FDF767FA1E484FF080411C
:102E70000160A721C0E9011442F20F71C0E90314F7
:102E80008461FFF751F808B1FDF781FD4FF48050E0
:102E9000079007A91348FFF787F808B1FDF777FDFA
:102EA0001048FFF77BF908B1FDF771FD0B940BA9F2
:102EB0000C480C94FEF7F0FF08B1FDF768FD6020A8
:102EC000CDE9000402940422694606480494FFF701
:102ED000FFF808B1FDF75BFD0248FFF7D3F80EB02D
:102EE00010BD0000900300200C4810B50A49016095
:102EF0004FF4E1314160002181600C22C160C0E9E2
:102F000004128161C161FFF751FB002803D0BDE8C5
:102F10001040FDF73CBD10BD00780040D8030020F4
:102F20000D4810B50B4901600C49416000214FF478
:102F30000052C0E90212D21002610C22C0E9052140
:102F4000C161FFF733FB002803D0BDE81040FDF757
:102F50001EBD10BD0010014020040020A08601000D
:102F60000C4810B50A4901604FF4E131416000217D
:102F700081600C22C160C0E904128161C161FFF768
:102F800015FB002803D0BDE81040FDF700BD10BDC3
:102F900000440040680400200C4810B50A49016054
:102FA0004FF4E1314160002181600C22C160C0E931
:102FB00004128161C161FFF7F9FA002803D0BDE86E
:102FC0001040FDF7E4BC10BD00480040B0040020F4
:102FD0000C4810B50A4901604FF4E131416000210D
:102FE00081600C22C160C0E904128161C161FFF7F8
:102FF000DDFA002803D0BDE81040FDF7C8BC10BDC5
:1030000000140140F8040020FEE7FEE7A0B1D0ED77
:10301000101AC0ED111A90ED0F1A80ED101AC0EDC4
:10302000060A80ED070A30EEC00A80ED0F0A01782B
:1030300029B101293BD078E09FED3D0A7047D0EDE2
:10304000010A60EE801AC0ED091AD0ED0A0A90ED6F
:10305000022A42EE000A30EE410AC0ED0A0A90ED63
:103060000D2A80ED0E2A90ED0C2A80ED0D2A80EDC0
:103070000C0A90ED031A21EE001A80ED0B1A90ED68
:10308000050AF4EEC00AF1EE10FA09DCB1EE400ACE
:10309000F4EEC00AF1EE10FA02D390ED0A0A01E054
:1030A00080ED0A0A31EE800A30EE010A2BE070EE64
:1030B000410A90ED012A60EE820AC0ED090A90ED06
:1030C000022A22EE002A80ED0A2AD0ED0D2A70EEA7
:1030D000820AC0ED0E2AD0ED0C2AC0ED0D2AF0EECA
:1030E000002A01EE620A30EE210A80ED0C0A90ED12
:1030F000031A21EE000A80ED0B0A30EE800AD0EDB3
:10310000080A30EE200A80ED080AD0ED040AB4EE79
:10311000E00AF1EE10FA06DCF1EE600AB4EEE00A25
:10312000F1EE10FA01D2C0ED080A90ED080A7047DE
:1031300000000000002828D0002A26D0017092ED5F
:10314000001A80ED011A92ED011A80ED021A92ED3B
:10315000021A80ED031A80ED040A9FED0C0AC0EDFF
:10316000050A80ED0E0A80ED0D0A80ED0C0A80ED57
:10317000080A80ED0B0A80ED0A0A80ED090A80ED4D
:10318000110A80ED100A80ED0F0A70470000000060
:1031900030B5144C23685D6945F040055D612368D6
:1031A000DC6844F01004DC600F4C23681D6825F0D7
:1031B00001051D6023681D68ED07F7D125680B4BDD
:1031C000AB602368D8602068016120684260206895
:1031D000016841F4802101602068016841F001012B
:1031E000016030BD20040020400500200410014093
:1031F000FFF702B8DFED190AB5EEC00AF1EE10FADA
:1032000002D29FED170A06E010EE102A154B9A42E3
:1032100001DDB0EE600A9FED141A006820EE011A7D
:1032200081EE200A30EE200A49B104290DD0BCEE0F
:10323000C00A082910EE101A0DD001647047BCEEC8
:10324000C00A10EE101A41637047BCEEC00A10EEBF
:10325000101A81637047C163704700000000FA4391
:10326000000000000000FA430000FA44012001F0D1
:103270002FFBFBE710B5FEF7C5FA02F0A7F801280F
:1032800003D0BDE8104002F031B810BD30B593B0A6
:1032900030216846FDF750F814210CA8FDF74CF8D2
:1032A0001D480025016841F080510160006800F070
:1032B000805011901948016841F440410160006854
:1032C000022400F44040119001200090000401907D
:1032D0008001CDE9064006200890A820CDE9090428
:1032E00004200B906846FEF717FC08B172B6FEE7A3
:1032F0000CA90F2081E831004FF4A0500F904FF43B
:103300008050109005210CA8FEF71AFB002801D070
:1033100072B6FEE713B030BD403802400070004086
:103320000248016841F470010160704788ED00E0D7
:10333000F0B50268294D2A4E2A4FDFF8ACC02B4B5E
:103340004FF0804EA84209D0704507D0B04205D05A
:10335000B84203D0604501D0984203D122F07004F6
:103360004A682243A8421BD0704519D0B04217D0FA
:10337000B84215D0604513D0984211D01C4CA042E1
:103380000ED01C4CA0420BD01B4CA04208D01B4CB2
:10339000A04205D01A4CA04202D01A4CA04203D140
:1033A00022F44074CA6822434C6922F0800222430E
:1033B00002608A68C2620A688262A84201D09842AA
:1033C00001D109690163012141610169C90703D084
:1033D000016921F001010161F0BD00000000014020
:1033E0000004004000080040000C004000040140C0
:1033F00000400140004401400048014000180040E6
:10340000001C00400020004010B501F01F01012306
:10341000046A8B409C430462036A8A40134303623C
:1034200010BD10B5846842EA032224F47F440A43A5
:103430002243826010BD826822F070020A4342F08B
:103440000701816070470000F0B5026A036A23F04B
:103450000103036243688469114E24F073050C680C
:10346000104F2C4322F002058A682A43B04201D053
:10347000B84205D122F00805CA682A4322F00402A6
:10348000B04201D0B84205D14D6923F440731D43C9
:103490008B692B4343608461496841630262F0BDDC
:1034A0000000014000040140F0B5026A036A23F005
:1034B00010030362436884690D6824F4E64444EA17
:1034C00005248D6822F0200242EA05120F4D104EAD
:1034D000A84201D0B04206D1CF6822F0800242EA71
:1034E000071222F04002A84201D0B04207D14D6934
:1034F00023F4406343EA85038D6943EA850343600F
:103500008461496881630262F0BD000000000140EF
:1035100000040140F0B5026A036A23F48073036279
:103520004368C46922F4007224F073050C68124EDB
:103530002C438D6842EA05220E4DA84201D0B042CC
:1035400006D1CF6822F4006242EA072222F48062A8
:10355000A84201D0B04207D14D6923F4405343EA59
:1035600005138D6943EA05134360C4614968C1636B
:103570000262F0BD000001400004014030B5036A62
:10358000026A22F4805202624268C4690D6824F41F
:10359000E64444EA05248D6823F4005343EA0533E6
:1035A000084DA84202D0084DA84204D14D6922F42A
:1035B000804242EA85124260C46149680164036244
:1035C00030BD0000000001400004014010B5046A55
:1035D000036A23F001030362836923F0F00343EAE3
:1035E000021324F00A020A438361026210BD10B57F
:1035F000036A046A24F010040462846923F0A003BF
:1036000024F4704444EA023243EA01118261016207
:1036100010BD00000148FEF791BE0000D803002055
:1036200010B5806B0021C185C184FEF786FE10BDF8
:1036300070B5846B2068406994F84110C0F3C010E5
:103640000025212904D118B1E584204600F08EF828
:103650002068406994F84210C0F38010222904D1F8
:1036600018B1E585204600F05AF8606C40F0100073
:1036700060642046FEF761FE70BD10B50146806BA8
:10368000096809684FF00003C9052ED4C385016895
:103690000C3151E8002F22F4807241E80024002C04
:1036A000F5D10168143151E8002F22F0010241E800
:1036B0000024002CF5D10168143151E8002F22F0CC
:1036C000400241E80024002CF5D1202180F842106E
:1036D000016B012909D101680C3151E8002F22F05A
:1036E000100241E80024002CF5D14363016B01294D
:1036F00002D0FFF73BF910BD818DFEF7E5FD10BD4F
:1037000010B5806B01214163016B012902D0FFF7E5
:103710002EF910BD818D4908FEF7D6FD10BD016858
:103720000C3151E8002F22F4907241E80023002B65
:10373000F5D10168143151E8002F22F0010241E86F
:103740000023002BF5D1016B012909D101680C314F
:1037500051E8002F22F0100241E80023002BF5D1A0
:10376000202180F8421000210163704701680C316C
:1037700051E8002F22F0C00241E80023002BF5D1D0
:10378000202180F84110704708B590F84210222996
:1037900001D0022008BD81684FF48053994201D1C5
:1037A000026922B1826A99421BD049B10AE00268DB
:1037B000816A5268C2F308020A80816A891C08E0A3
:1037C000016971B10168496801F07F011170816A76
:1037D000491C8162C18D491E0904090CC18503D0B1
:1037E0001BE001684968F1E70168CA6822F020021D
:1037F000CA600168CA6822F48072CA6001684A69B6
:1038000022F001024A61202180F842100021416328
:10381000026B012A03D0FFF7A9F8002008BD01635D
:1038200001680C3151E8002F22F0100241E800231A
:10383000002BF5D101680A68D20602D50A684968EA
:103840000091818DFEF740FDE7E7000070B504466A
:1038500000680169E26821F4405111430161A168E7
:103860002069E26901436069104301432068C2682E
:1038700049F20C639A430A43C26020684169A26915
:1038800021F440711143416131492068884202D0DE
:103890003049884202D1FEF7FDF801E0FEF7EAF870
:1038A000E2690023192164253226B2F5004F6268CF
:1038B00028D0A0FB0101930F9200FCF7F3FC014616
:1038C000B0FBF5F06FF01802504301EB800006EBFF
:1038D0000010B0FBF5F000F0F002B1FBF5F002EBE8
:1038E0000012B1FBF5F06FF01803584301EB8000B4
:1038F00006EB0010B0FBF5F000F00F00216810445B
:10390000886070BDA0FB010192185B41FCF7CAFC06
:103910000146B0FBF5F00201B1FBF5F06FF01803C2
:10392000584301EB800006EBC000B0FBF5F000F05F
:10393000F80002EB4002B1FBF5F0584301EB8000C8
:1039400006EBC000B0FBF5F000F00700D6E7000082
:10395000001001400014014037B582B01346039AAD
:1039600082620446838500206064222184F842102C
:10397000E56B1B49E963E56B1A492964E56B1A4954
:10398000E964E16B08652168E06B091DFDF7EEFD58
:103990002068016840680090206948B120680C30B8
:1039A00050E8001F41F4807140E80012002AF5D170
:1039B0002068143050E8001F41F0010140E8001277
:1039C000002AF5D12068143050E8001F41F0400172
:1039D00040E80012002AF5D105B0002030BD0000FB
:1039E0007B36000801370008313600082DE9F8431E
:1039F0001F4690460D460446089E23E0701C21D0C9
:103A0000FDF7FAFEC01BB0421AD8CEB12068C168DB
:103A1000490717D5802D15D0402D13D00168C94313
:103A200009070FD401680025406800902046FFF781
:103A300076FE0820606484F840500120BDE8F883D9
:103A40000320FBE72068006835EA000004D000206E
:103A50004045D3D00020F1E70120F9E710B5034835
:103A6000FEF76CFCBDE8104000F002B82004002016
:103A7000234818B400680168890604D501684068C5
:103A8000009018BC70471F490968C906F9D501683C
:103A900040681D4A0090106801681C4C09030168C9
:103AA0004FF0320321F00101016011684868C0F154
:103AB000320080B220804B600FD411680B6843F451
:103AC00000230B6011680A6842F001020A6019289D
:103AD000D7D10F4901F12E000EE00E498B6A23F475
:103AE00000238B6211680A6842F001020A601928FB
:103AF000C7D1074901F1600018BC01F04FB90000BF
:103B00002004002000100140400500204800002053
:103B1000CC0C0020006002400148FEF70FBC000002
:103B20006804002038B51D4800680168C943C9060B
:103B30002FD40168406800901848FEF7C6FB18496A
:103B400008684268174CC2F1C80292B22280C823AA
:103B50004360086801680903016802D441F4002148
:103B600001E021F4002101600F491048FCF7CBFB74
:103B70000E48FEF74FFF218811B10B48FCF7DCFB24
:103B8000C8210A48FCF7D8FBC82207490348FEF7BA
:103B9000DFFEBDE838400148FEF7D0BBB00400208E
:103BA000600600201C000020840E00205E0D002016
:103BB0000148FEF7C3BB0000F8040020FEE7000048
:103BC00041F2883001F086FA04211A48FFF710FB11
:103BD000194D1A4C00F0FAFB6060B0F9140000288F
:103BE00001DA012200E0002204212846FDF7FEFD53
:103BF0006068B0F90E00002805DD4FF069002080F4
:103C00009FED0F0A05E00DDA4FF04B009FED0D0A16
:103C100020804FF004010748FFF7ECFA6420FDF71D
:103C2000DDFCD7E79FED080A04210248FFF7E2FA1E
:103C3000D0E7000090030020001C02404C00002050
:103C40000000D242000096420000B44230B50C465B
:103C5000050014D0022C12D90A48A11E0289284658
:103C6000FCF798FE2919C2B211F8023C9A4206D11B
:103C700011F8011CB1EB102F01D1012030BD002043
:103C800030BD00005400002030B50C4605000CD0BB
:103C9000022C0AD9FF22611EFCF792FE291911F8A5
:103CA000011C814201D1012030BD002030BD000047
:103CB000014A024900F023B85D430008E8000020F3
:103CC0000907090E002804DB00F1E02080F8001449
:103CD000704700F00F0000F1E02080F8141D7047DD
:103CE00002E008C8121F08C1002AFAD170477047C5
:103CF000002001E001C1121F002AFBD170472DE90D
:103D0000F04116460F460446002503E03946B04709
:103D1000641C6D1C20780028F8D12846BDE8F0818D
:103D200000B58BB000200121CDE90601089100907B
:103D30000190029003900590049069460C48FCF7AE
:103D4000BDFE0B48FDF74BFA02210948FCF746FE81
:103D50000E200990059069460648FCF7AFFE05481D
:103D6000FDF73DFA02210348FCF738FE0BB000BD19
:103D7000400300206803002070B5002820D00029EF
:103D80001ED0002A1CD0002B1AD01C4C9FED1C0A00
:103D90002478B4B1012C19D0022C11D114461D463F
:103DA0001A4600F0AFF92868DFED160AB0F90200F4
:103DB00000EE100AB8EEC00A20EE200A84ED000AD8
:103DC00070BD80ED000A81ED000A14E01B68B3F9B4
:103DD000083003F10A04152C00D2002380ED000AFC
:103DE000584200EE900A9FED081AF8EEE00A60EEE5
:103DF000810AC1ED000A82ED000A70BD4A00002070
:103E0000000000000AD723BCA69B44BB30B50028A5
:103E10001CD0016800230F4AB1F90A10012461B1D6
:103E2000A1F500759F3D06D040F29F25E94206D1DD
:103E30000221117009E0147007E0137007E0117897
:103E400029B1012901D0022900D1037130BD0471CB
:103E500030BD00004A0000207FB504469FED4C0AAB
:103E600000200090019002900390D4ED7B1A94ED15
:103E70007C1AD4ED7D0AB1EE612A014672EE412A28
:103E80009FED442A40EE822ACDED002A71EEC12A30
:103E900040EE822ACDED012A71EE812A9FED3E2A65
:103EA00031EE611A684640EE822A00EE821ACDEDAC
:103EB000022A8DED031A2279012A11D100EB810229
:103EC00001EB810392ED000A04EB8303491CBDEE74
:103ED000C00AC9B2042910EE102A1A83EED37FBD9E
:103EE00000EB8102D2ED000A01EB810204EB8202B9
:103EF000C2ED050AF0EEE00AB4EEE00AF1EE10FAC7
:103F000001D2B0EE600A491CC9B20429E8D310EE10
:103F1000100AB0F1814F12DDB1EE001A0020C1EE9F
:103F2000000A00EB800104EB8101401C91ED050AC1
:103F3000C0B2042820EE200A81ED050AF1D3002545
:103F400005EB850004EB8000D0ED050A90ED040A36
:103F500005EBC50004EBC0005830FFF757F86D1CA7
:103F6000EDB2042DECD3002000EBC00104EBC10145
:103F700000EB800291ED1E0A04EB8202401CBDEEB4
:103F8000C00AC0B2042810EE101A1183ECD37FBD12
:103F900000000000EB5138BEAF4761BE00284DD095
:103FA0000021DFED270A9FED271A01EB810200EBCC
:103FB00082029368B3F9023000EE103A01EBC103BC
:103FC00000EBC303B8EEC00A491CC9B2042920EEB5
:103FD000200A82ED040A93ED220A20EE010A82ED06
:103FE000030AE2D3D0ED091A90ED041AD0ED0E0ABF
:103FF00031EEC10AB1EE411A31EE611A30EE202ADB
:1040000090ED130A71EE201A71EE600A72EE402AEA
:10401000B5EE002A71EE801A30EEC00ADFED0A0A12
:1040200062EE822A61EE821A20EE020AC0ED782A40
:10403000C0ED791A80EE201A80ED7A1A70470000E0
:104040000A01DA390000FA43CDCC4C3E70B50400C9
:104050002DED028B4BD00120207100F0B7F99FEDC0
:10406000258ADFED258A00252060284600F084F9A6
:1040700005EB850104EB8101F0EE480A886005EB51
:10408000C50004EBC000B0EE680A1C4A002158309D
:10409000FFF750F86D1CEDB2042DE6D317499FEDE4
:1040A000188A083904F5E070B0EE480A00F03DF9CE
:1040B0001249B0EE480A091F04F5E87000F035F91E
:1040C000B0EE000A84ED7F0AB8EE000A84ED800AA3
:1040D000B7EE080A84ED810ABFEE080A84ED820A71
:1040E0002046BDEC028BBDE87040FFF757BFBDEC2A
:1040F000028B70BD0000FA4400007A462C5600087E
:104100006F12033B70B514002DED028B0D46064671
:104110004DD0002E4BD0002D49D02068B0F90410AE
:1041200001F10A02152A00D20021B0F9080000F1BD
:104130000A02152A00D2002000EE101A4042F8EEC2
:10414000C00A9FED1C0A60EE808A00EE900A04F51A
:10415000E070F8EEE00A20EE808AB0EE680A00F027
:10416000BDF8B0EE480A04F5E87000F0B7F818EEB4
:10417000900A1149114A9FED120A884205DA18EE99
:10418000900A904201D284ED710A18EE100A88421A
:1041900005DA18EE100A904201D284ED750A94ED0A
:1041A000710A86ED000A94ED750A85ED000ABDECF2
:1041B000028B70BDA69B44BB90C2F53C90C2F5BC7F
:1041C0000000000010B504002DED028B84B021D05A
:1041D00003469FED1F8A02AA8DED008A8DED018AAC
:1041E0008DED028A01A96846FFF7C6FD2079A8B1C6
:1041F00001280FD19DED000A84ED7B0A9DED010A97
:1042000084ED7C0A9DED020A84ED7D0A84ED718ABD
:1042100084ED758A04B0BDEC028B10BD9DED020AE1
:1042200084ED7D0A94ED7F1AD4ED800A9DED000A9D
:1042300000F084F884ED7B0A94ED811AD4ED820AB3
:104240009DED010A00F07AF884ED7C0AE2E70000B7
:10425000000000001CB540F2651000F03BFF1E4856
:10426000FFF7F4FE0320FCF7F5F900200090034669
:104270000122019003211046FCF70AFA0120FCF705
:10428000CBF96FF009030A2203210120FCF75AFA47
:104290000020FCF725FA104C0F48FFF7B7FD0E4839
:1042A000427901798A4200D041710B48FFF776FECE
:1042B0000948FFF787FF0848FFF7CEFDB4F95430EF
:1042C000B4F94020B4F92C10B4F91800FCF77CFACA
:1042D000022000F0FFFEDFE71408002010B510EE0A
:1042E000103A03608168C26800EE101A00EE902A4E
:1042F000446830EE201A00EE101AC0EE010A00EEFB
:10430000104A20EE801A00EE901A00EE102A70EE8D
:10431000801A00EE102AC0EE210A00EE103A00EEDC
:10432000801A11EE101A416010BD10EE102AC26002
:10433000096881600021016041607047B4EEE00AC5
:10434000F1EE10FA02D2B0EE600A7047B4EEC10A84
:10435000F1EE10FAF9DDB0EE410A704738B50446C7
:104360008DF800000223012269460248FEF700FB97
:10437000204638BDF804002038B1012807D00228B3
:1043800008D0032809D0002070470548704704482A
:104390000A30704702481430704701481E30704799
:1043A0008007002000487047BC0700200048704785
:1043B000C607002000487047D0070020004870471B
:1043C000B207002000487047A80700200048704747
:1043D000CC0C002000487047DA07002010B504001C
:1043E0005ED0D4ED0F0A94ED0E0A04F58870FEF746
:1043F0000DFED4ED140A94ED130A04F5AC70FEF72B
:1044000005FED4ED190A94ED180A04F5D070FEF7F4
:10441000FDFDD4ED1E0A94ED1D0A04F5F470FEF7BF
:10442000F5FDD4ED050A94ED040A04F18000FEF7D1
:10443000EDFDD4ED0A0A94ED090A04F1C800FEF777
:10444000E5FD94ED4C0ABDEEC00A10EE100AA4F88A
:10445000400094ED5E0ABDEEC00A10EE100AA4F80A
:10446000540094ED700ABDEEC00A10EE100AA4F8D4
:10447000680094ED820ABDEEC00A10EE100AA4F89E
:104480007C0094ED280ABDEEC00A10EE100A24F854
:10449000180F94ED340ABDEEC00A10EE100AA08287
:1044A00010BD000000285BD08168B1F9021000EE59
:1044B000101AB8EEC00A80ED040AD0ED2C0A9FED68
:1044C000290A60EE800AC0ED030AC169B1F9021041
:1044D00000EE901AF8EEE00AC0ED090AD0ED3E0AAF
:1044E00060EE800AC0ED080A016BB1F9021000EE1F
:1044F000901AF8EEE00AC0ED0E0AD0ED500A60EE18
:10450000800AC0ED0D0A416CB1F9021000EE901A5C
:10451000F8EEE00AC0ED130AD0ED620A60EE800A00
:10452000C0ED120A816DB1F9021000EE901AF8EE9A
:10453000E00AC0ED180AD0ED740A60EE800AC0ED02
:10454000170AC16EB1F9021000EE901AF8EEE00AF7
:10455000C0ED1D0AD0ED860A20EE800A80ED1C0A0F
:10456000704700000000FA4310B504002DED028BE7
:1045700062D000202070FFF729FF6060FFF716FF70
:10458000A060FFF717FFE061FFF718FF2063FFF758
:1045900019FF6064FFF706FFA065FFF71BFF9FEDA3
:1045A000288ADFED288AE066F0EE480AB0EE680A55
:1045B000254A002104F18000FEF7BCFD224AF0EEFE
:1045C000480AB0EE680A0C32002104F1C800FEF778
:1045D000B1FD1D4AF0EE480AB0EE680A303A0021FB
:1045E00004F58870FEF7A6FD174AF0EE480AB0EE13
:1045F000680A243A002104F5AC70FEF79BFD124ACC
:10460000F0EE480AB0EE680A183A002104F5D070BE
:10461000FEF790FD0C4AF0EE480AB0EE680A0C3A3C
:10462000002104F5F470FEF785FDBDEC028B2046F9
:10463000BDE81040FFF736BFBDEC028B10BD000097
:104640000000FA4400007A466856000870B504007D
:104650002DED028B7AD020789FED480A012809D0F1
:1046600065686FF09501B5F9060088420DDADFED57
:10467000440A0EE084ED0F0A84ED140A84ED190A51
:1046800084ED1E0A84ED050A75E0962804DDDFED51
:104690003D0AC4ED0F0A0FE0B5F90C00DFED3A0A50
:1046A0009FED3A1AA0F500729F3A08D040F29F227F
:1046B000D04209D184ED0F1AC4ED140A09E0C4ED0B
:1046C0000F0A84ED141A04E018B984ED0F0A84ED82
:1046D000140AB5F90200884202DADFED2D0A03E080
:1046E000962804DDDFED2B0AC4ED190A01E084ED04
:1046F000190AB5F92000884202DADFED270A03E043
:10470000962804DDDFED250AC4ED1E0A01E084EDE4
:104710001E0AB5F904009FED228B962801DC884221
:1047200017DAFBF786FE53EC182BFBF710FEFBF7AE
:1047300091FEA062B5F904004042FBF77AFE53EC0B
:10474000182BFBF704FEFBF785FE6061BDEC028BC6
:1047500070BD84ED050AB5F91E00884201DB96287C
:1047600009DDFBF766FE53EC182BFBF7F0FDFBF7BA
:1047700071FEA062EAE784ED0A0AE7E700000000A4
:1047800000401C4600401CC600606A4600606AC6C5
:104790000080BB440080BBC40080BB450080BBC51B
:1047A0000C022B8716D917401CB54FF4FA7000F095
:1047B00091FC2548FFF7D8FE0320FBF74BFF0025AF
:1047C000012200952B46032110460195FBF760FF5F
:1047D0000120FBF721FF6FF009030A2203210120CA
:1047E000FBF7B0FF0020FBF77BFF174C40F29F2642
:1047F00015484168B1F90A10B14201D1057001E0D4
:10480000012101701048FFF74DFE0F48FFF71EFF12
:104810000D48FFF7E3FDB4F97C30B4F95420B4F946
:104820004010B4F96800FBF7F3FF0023B4F92C1033
:10483000B4F918001A46FCF70FF80A2000F04AFCF9
:10484000022000F047FCD3E7200A00200748006858
:10485000C16841F01001C160C82205490348FEF754
:1048600077F80A2000F034F8FBE70000B0040020DD
:10487000840E0020FCF7CEFFFEF708FDFEF762FA7B
:10488000FEF7DAF9FEF74CFBFEF7A2FBFEF790F914
:10489000FEF7B0F9FEF764FBFEF726FBFEF77CFBA4
:1048A000FEF7D6FAFFF73CFA00F070FAFFF78EFD3C
:1048B00003490860FEF706FA00F011F8FEE7000071
:1048C0000000002001460020842900D0C81C704749
:1048D00010B500B9012000F0FDFB002010BD10B59F
:1048E00000F01EFC002010BD7FB50D460446416956
:1048F000B0F9080081B1A16971B1FFF7E3FFD4E914
:1049000005128DE80700D4E900102B46226900F05B
:1049100030FD039004B070BDFFF7D4FF03A9CDE9CB
:104920000001208A2B4682B2D4E9001000F0F4FC8A
:10493000012801D00020EDE70398EBE72DE9F041D5
:10494000184E0F460446F5683068001D00F0FAFA6C
:1049500038B9306890F82C100120884031698143C3
:104960003161601C07D137B13168BDE8F0410E48B4
:10497000091D00F02BBB30682C44AC424460316808
:1049800005D2B06BBDE8F041091D00F007BB706BAC
:10499000091D00F003FBB06A844200D2B462BDE896
:1049A000F081000080000020281000202DE9F04157
:1049B000054600F017FB2E4EB068401CB060306812
:1049C0002C4F10B1706940B32DE03560B0680128FC
:1049D00029D1002404EB840007EB800000F0D0FA1A
:1049E000641C072CF6D323488C3000F0C9FA214808
:1049F000A03000F0C5FA1F48B43000F0C1FA1D48DD
:104A0000C83000F0BDFA1B48DC3000F0B9FA194894
:104A10008C3070631430B06305E03068E96AC06AB6
:104A2000884200D83560706A0121401C7062E86AD3
:104A3000326981401143316100EB800007EB800057
:104A4000291D00F0C3FA00F0EDFA706900280CD0BF
:104A50003068E96AC06A884207D207494FF080503F
:104A60000860BFF34F8FBFF36F8FBDE8F081000088
:104A7000800000204C0F002004ED00E010B504463B
:104A800090F8510058B101280CD002280FD05020C6
:104A900080F31188BFF34F8FBFF36F8FFEE7206B5A
:104AA00000F0D4FA2046BDE8104000F0CFBA10BDA7
:104AB00010484FF47051420706D0C01D0D4920F038
:104AC0000700411AC1F570510B4A00230144C2E9A5
:104AD00000030839183A21F0070111604B600B60A0
:104AE0000B1AC0E9001393604FF00040536050610F
:104AF000704700003C100020D4000020134E144DDD
:104B0000A6F1C8074FF08058DFF8489011E000F098
:104B100069FAF068C468201D00F014FAA868401E05
:104B2000A8606868401E686000F07CFA2046FFF7C5
:104B3000A5FF68680028EAD138680128F9D9C9F8C2
:104B40000080BFF34F8FBFF36F8FF2E71410002088
:104B50008000002004ED00E02DE9F0479A46DDE9F1
:104B6000098481466FF00303206B03EB820210443B
:104B7000089D20F00706700707D0502080F31188A9
:104B8000BFF34F8FBFF36F8FFEE7002761B10020A7
:104B900023180A5C83F834200A5C12B1401C1028E8
:104BA000F6D384F8437001E084F83470072D00D305
:104BB0000625E562C4E91157201D00F0ECF904F167
:104BC000180000F0E8F92461C5F107006462A061F3
:104BD000E76484F8507052464946304600F0C0F809
:104BE0002060B8F1000F01D0C8F80040BDE8F087A0
:104BF00030B5114900E011460A688242FBD34B6888
:104C00005C18844203D140681844486008464368F1
:104C10001C18944209D1084C183C2468A24209D0BF
:104C200052681A4442600A6812680260814200D0E9
:104C3000086030BD0460F9E7D40000200648416BED
:104C4000096829B1416BC968C968496881627047C0
:104C50004FF0FF31FAE7000080000020084840686C
:104C6000401C4FF0500080F3118804D0BFF34F8FE9
:104C7000BFF36F8FFEE7BFF34F8FBFF36F8FFEE77A
:104C8000DC0000202DE9F0410546002600F07EFA08
:104C9000324F386808B9FFF70BFF786905424ED1EB
:104CA000C5B3083568070ED005F00700C0F108004D
:104CB0000544680707D0502080F31188BFF34F8F59
:104CC000BFF36F8FFEE72DB37868854237D823494D
:104CD00018310846046801E0214604466068A8428D
:104CE00002D220680028F7D13868844227D00E68A5
:104CF0002068086060680836411B10290FD96019C8
:104D0000420708D0502080F31188BFF34F8FBFF3C4
:104D10006F8FFEE713E041606560FFF769FF616830
:104D20007868401A7860BA68904200D2B8607869B2
:104D300001430020C4E90001F868401CF86000F05D
:104D4000B9FB700707D0502080F31188BFF34F8F55
:104D5000BFF36F8FFEE73046BDE8F081BC00002056
:104D600010B5031F4FF080741C601B1F21F0010160
:104D70001960191F044B0B6014390A60091F6FF08A
:104D8000020244380A6010BD5D4C0008024932221C
:104D9000A1F13200FEF7FCB92C0D00202DE9FF4FE8
:104DA00000287DD000297BD002780F2A78D10278A4
:104DB0000A804278837842EA0322C2F30A024A80D8
:104DC00003928278C378D20803F03F0342EA431289
:104DD0008A809346C2780379920942EA8302437932
:104DE00003F0010342EA8322CA8002924279837966
:104DF000520803F00F0342EAC3120A81019282793A
:104E0000C379120903F07F0342EA03124A819646EE
:104E1000C279037AD20942EA4302437A03F00303D8
:104E200042EA43228A810092427A837A920803F00E
:104E30001F0342EA8312CA819246827AC37A5209D8
:104E400042EAC3020A829146027B437B03F00703D6
:104E500042EA0328A1F81280427B837BD20803F048
:104E60003F0342EA431CA1F814C0827BC37B920932
:104E700042EA8302037C03F0010342EA8327CF82E4
:104E8000027C437C520803F00F0342EAC3160E83F0
:104E9000427C837C120903F07F0342EA031500E0A1
:104EA0004EE04D83827CC37CD20942EA4302037DFB
:104EB00003F0030342EA43248C83027D437D92087E
:104EC00003F01F0342EA8313CB83427D807D5209A6
:104ED00042EAC000039AA8F58068A2F580624A8081
:104EE000ABF580628A80029AACF5806CA2F5806294
:104EF000CA80019AA7F58067A2F580620A81AEF5A3
:104F000080624A81009AA6F58066A2F580628A8155
:104F1000AAF58062CA81A9F580620A82A1F812808E
:104F2000A1F814C0CF820E83A5F580654D83A4F54A
:104F300080648C83A3F58063CB83A0F580600884B4
:104F4000BDE8FF8FD0E9013201699A60D0E9012301
:104F50005A604A68824201D182684A600022026136
:104F60000868401E0860086870470000034B036033
:104F700003F154000860802010607047EC000020AE
:104F800000F108014FF0FF32C0E90112C160016178
:104F900000210160704700210161704730B50C6845
:104FA000621C02D000F1080202E0026904E01A4625
:104FB00053681D68A542FAD953684B6099608A60AE
:104FC000516008610168491C016030BD42684A6057
:104FD00093688B6093685960916008610168491C0F
:104FE00001607047502080F31188BFF34F8FBFF3EB
:104FF0006F8F0A494868401C486001280CD1084856
:10500000006810F0FF0F07D0502080F31188BFF325
:105010004F8FBFF36F8FFEE770470000DC0000206A
:1050200004ED00E00849486828B1401E486001D1FD
:1050300080F311887047502080F31188BFF34F8FA1
:10504000BFF36F8FFEE70000DC00002070B5002882
:105050002AD0164DA0F1080460686969084207D19A
:10506000502080F31188BFF34F8FBFF36F8FFEE79F
:1050700022683AB1502080F31188BFF34F8FBFF3FD
:105080006F8FFEE78843606000F080F860686968B1
:10509000084468602046FFF7ABFD2869401C286182
:1050A000BDE8704000F006BA70BD0000BC000020F2
:1050B0004FF0E02000210161816105494FF47A72CF
:1050C0000968B1FBF2F1491E416107210161704796
:1050D0002C00002010B5020014D00F48006B38B12E
:1050E000502080F31188BFF34F8FBFF36F8FFEE71F
:1050F00000F04CF800211046FFF720FC00F0DAF930
:10510000002807D105494FF080500860BFF34F8F4A
:10511000BFF36F8F10BD00008000002004ED00E0A1
:1051200010B586B00024039405AA04A903A804942A
:10513000FFF71CFFDDE903010094CDE90110002316
:105140000EA11048059A00F014F90F490028C86212
:1051500011D0502080F31188BFF34F8FBFF36F8FB2
:105160004FF0FF30886201204861CC6006B0BDE896
:10517000104000F041B806B010BD000049444C4555
:1051800000000000FD4A0008800000200248016B7A
:10519000491C01637047000080000020144A106B16
:1051A00010B10120D06170470020D0611069114911
:1051B000B0FA80F0C0F11F0000EB800051F8203001
:1051C0006BB101EB800000F1080341684968416060
:1051D000994201D149684160C86810607047502009
:1051E00080F31188BFF34F8FBFF36F8FFEE700008E
:1051F000800000204C0F00201CB537480168374A5A
:10520000914207D1502080F31188BFF34F8FBFF335
:105210006F8FFEE700683149491E884207D1502050
:1052200080F31188BFF34F8FBFF36F8FFEE72C49D8
:1052300008780190FF20087008788DF800009DF82C
:1052400000009DF8002000F0F000904207D05020B0
:1052500080F31188BFF34F8FBFF36F8FFEE79DF888
:105260000000204C00F0500020700720A06006E0F5
:10527000401EA0609DF8000040008DF800009DF8E1
:1052800000000006A068F3D4032807D0502080F364
:105290001188BFF34F8FBFF36F8FFEE74FF440705D
:1052A000A060019808700C482030016841F470013A
:1052B0000160016841F070410160FFF7F9FE0020D4
:1052C0006060FAF7A1FF0848016841F040410160C1
:1052D000FAF786FF00201CBD00ED00E071C20F410F
:1052E00000E400E0DC00002034EF00E010B55020C6
:1052F00080F31188BFF34F8FBFF36F8F00F074F806
:1053000018B104494FF080500860002080F31188E4
:1053100010BD000004ED00E02DE9FF5F8346DDE9EC
:105320000E87994616468A469000FFF7ABFC0500AB
:105330001CD05420FFF7A6FC040014D000202563E5
:1053400084F85100CDE90240CDE900874B46324652
:1053500051465846FFF700FC2046FFF727FB012087
:1053600004B0BDE8F09F2846FFF770FE4FF0FF3015
:10537000F6E7F0B585B00546DDE90B040A9EA8B155
:10538000E4B1542700972063022084F851000020E4
:10539000CDE9024004AF2846CDE90067FFF7DCFB0A
:1053A0002046FFF703FB049805B0F0BD502080F3C2
:1053B0001188BFF34F8FBFF36F8FFEE7502080F34C
:1053C0001188BFF34F8FBFF36F8FFEE70548416928
:1053D00019B1006B18B100207047012070470220FE
:1053E00070470000800000202DE9F0412F4F00267B
:1053F000386B28B1B869401CB8613046BDE8F0810F
:10540000FD686D1CFD6013D1786B006838B15020C9
:1054100080F31188BFF34F8FBFF36F8FFEE7786B78
:10542000B96B7963B863386A401C3862FFF706FCD1
:10543000B86ADFF87C80854209D3786B0068A0B138
:10544000786BC068C4686068854211D2B8623868F9
:10545000C06A00EB800158F82100012800D901261C
:10546000F8690028C9D00126C7E74FF0FF30EDE703
:10547000201DFFF767FDA06A18B104F11800FFF7BF
:1054800061FDE06A01213A6981401143396100EB15
:10549000800108EB8100211DFFF798FDE06A396863
:1054A000C96A8842C9D30126C7E7000080000020EE
:1054B0004C0F00202DE9F0472C4D00242746286B87
:1054C00038B1FFF78FFD286B401E2863286B40B171
:1054D00046E0502080F31188BFF34F8FBFF36F8FEA
:1054E000FEE7A86822490126D0B3A1F1B409884695
:1054F000D8F80010E9B1D8F80C00C46804F118001D
:10550000FFF720FD201DFFF71DFDE06A2A6906FA5E
:1055100000F11143296100EB800109EB8100211D9D
:10552000FFF754FDE06A2968C96A8842E0D3EE615A
:10553000DEE70CB1FFF782FBAC693CB1FFF754FF2B
:1055400000B1EE61641EF9D10020A861E86938B1AC
:105550000849012738070860BFF34F8FBFF36F8FEB
:10556000FFF760FD3846BDE8F087000080000020AE
:105570000010002004ED00E0B05900086D32000872
:10558000000000000000000080000000000000009B
:1055900000000000A4590008554200080100000066
:1055A00000000000000200000000000000000000F9
:1055B0008C590008A9470008010000000000000005
:1055C00000020000000000000000000098590008E0
:1055D000C13B000801000000000000008000000046
:1055E0000000000000000000805900084D4800083D
:1055F000010000000000000080000000000000002A
:105600000000000000061016000610160000000042
:105610000000000001020304060708090000000062
:1056200001020304ABAA2A3EABAAAA3E00606A4666
:1056300000002041000000000000204100000000A8
:1056400000000000000020410000000000000000F9
:105650000000204100000000000000000000204188
:1056600000000000000000000000204100000000D9
:1056700000000000000020410000000000000000C9
:10568000005EBCE2613FDD83C29C7E20A3FD1F4122
:105690009DC3217FFCA2401E5F01E3BD3E6082DC12
:1056A000237D9FC1421CFEA0E1BF5D0380DE3C6202
:1056B000BEE0025CDF81633D7C22C09E1D43A1FFF2
:1056C0004618FAA427799BC584DA3866E5BB5907E2
:1056D000DB856739BAE406581947A5FB7826C49AD2
:1056E000653BD987045AB8E6A7F91B45C6987A24C2
:1056F000F8A6441A99C7257B3A6486D85B05E7B9B2
:105700008CD2306EEDB3510F4E10F2AC2F7193CDA1
:10571000114FADF3702ECC92D38D6F31B2EC0E5091
:10572000AFF1134DCE90722C6D33D18F0C52B0EE81
:10573000326C8ED0530DEFB1F0AE4C1291CF2D7371
:10574000CA947628ABF517490856B4EA6937D58B61
:105750005709EBB536688AD495CB2977F4AA481651
:10576000E9B7550B88D6346A2B7597C94A14F6A841
:10577000742AC896154BA9F7B6E80A54D7896B3531
:105780000000891112239B322446AD573665BF7441
:10579000488CC19D5AAFD3BE6CCAE5DB7EE9F7F8F1
:1057A0008110080193331A22A5562C47B7753E6421
:1057B000C99C408DDBBF52AEEDDA64CBFFF976E8D1
:1057C00002218B30100299132667AF763444BD5501
:1057D0004AADC3BC588ED19F6EEBE7FA7CC8F5D9B1
:1057E00083310A2091121803A7772E66B5543C45E1
:1057F000CBBD42ACD99E508FEFFB66EAFDD874C991
:1058000004428D5316619F702004A9153227BB36C0
:105810004CCEC5DF5EEDD7FC6888E1997AABF3BA70
:1058200085520C4397711E60A1142805B3373A26A0
:10583000CDDE44CFDFFD56ECE9986089FBBB72AA50
:1058400006638F7214409D512225AB343006B91780
:105850004EEFC7FE5CCCD5DD6AA9E3B8788AF19B30
:1058600087730E6295501C41A3352A24B116380760
:10587000CFFF46EEDDDC54CDEBB962A8F99A708B10
:10588000088481951AA793B62CC2A5D33EE1B7F040
:105890004008C919522BDB3A644EED5F766DFF7CF0
:1058A000899400859BB712A6ADD224C3BFF136E020
:1058B000C1184809D33B5A2AE55E6C4FF77D7E6CD0
:1058C0000AA583B4188691972EE3A7F23CC0B5D100
:1058D0004229CB38500AD91B666FEF7E744CFD5DB0
:1058E0008BB502A499961087AFF326E2BDD034C1E0
:1058F000C3394A28D11A580BE77F6E6EF55C7C4D90
:105900000CC685D71EE597F42880A1913AA3B3B2BF
:10591000444ACD5B5669DF78600CE91D722FFB3E6F
:105920008DD604C79FF516E4A9902081BBB332A29F
:10593000C55A4C4BD7795E68E11C680DF33F7A2E4F
:105940000EE787F61CC495D52AA1A3B03882B1937F
:10595000466BCF7A5448DD59622DEB3C700EF91F2F
:105960008FF706E69DD414C5ABB122A0B99230835F
:10597000C77B4E6AD5585C49E33D6A2CF11E780F0F
:105980006A756467655461736B00000067696D62D6
:10599000616C5461736B000073756374696F6E544E
:1059A00061736B00436861737369735461736B0057
:1059B00064656661756C745461736B00DC59000832
:1059C00000000020EC000000E03C0008C85A00087D
:1059D000EC000020544F0000F03C000800000000E4
:1059E00000000000000000000000000000000000B7
:1059F00000000000000000000000000001000000A6
:105A000010000000000000000024F400000000006E
:105A10000000000000000000000000000000000086
:105A20000000000000000000000000000000000076
:105A30000000000000000000FFFF00000000000068
:105A40000000000000000000000000000000000056
:105A50000000000000000000000000000000000046
:105A60000000000000000000000000000000000036
:105A70000000000000000000000000000000000026
:105A80000000000000000000000000000000000016
:105A90000000000000000000000000000000000006
:105AA00000000000000000000000000000000000F6
:105AB000000000000000000000000000AAAAAAAA3E
:085AC0000000000000000000DE
:04000005080001AD41
:00000001FF
