:020000040800F2
:1000000010060020AD0100082D020008290200089A
:100010002B02000815020008490200080000000039
:100020000000000000000000000000003102000895
:1000300017020008000000002F0200083302000829
:10004000C7010008C7010008C7010008C701000870
:10005000C7010008C7010008C7010008C701000860
:10006000C7010008C7010008C7010008C701000850
:10007000C7010008C7010008C7010008C701000840
:10008000C7010008C7010008C7010008C701000830
:10009000C7010008C7010008C7010008C701000820
:1000A000C7010008C7010008C7010008C701000810
:1000B000C7010008C7010008C7010008C701000800
:1000C000C7010008C7010008C7010008C7010008F0
:1000D000C7010008C7010008C7010008C7010008E0
:1000E000C7010008C7010008C7010008C7010008D0
:1000F000C7010008C7010008C7010008C7010008C0
:10010000C7010008C7010008C7010008C7010008AF
:10011000C7010008C7010008C7010008C70100089F
:10012000C7010008C7010008C7010008C70100088F
:10013000C7010008C7010008C7010008C70100087F
:10014000C7010008C7010008C7010008C70100086F
:10015000C7010008C7010008C7010008C70100085F
:10016000C7010008C7010008C7010008C70100084F
:10017000C7010008C7010008C7010008000000000F
:10018000C7010008C7010008C7010008C70100082F
:10019000C7010008C7010008C7010008C70100081F
:1001A0000000000000000000C70100080948804767
:1001B00009480047FEE7FEE7FEE7FEE7FEE7FEE749
:1001C000FEE7FEE7FEE7FEE704480549054A064B61
:1001D0007047000039020008F501000810000020F7
:1001E0001006002010020020100200207047704707
:1001F0007047000003A111F8010B002818BF00DFB1
:10020000F8D111DF48656C6C6F20576F726C6421F8
:100210000A0D0000FEE77047024881680278114429
:100220008160704700000020FEE7FEE7FEE77047B0
:100230007047FFF7F1BF00000248016841F4700108
:100240000160704788ED00E0FEE70000010000005B
:08025000100000000000000096
:04000005080001F5F9
:00000001FF
