:020000040800F2
:10000000385600208502000805320008A91C0008A7
:10001000013200086D050008C93800080000000022
:10002000000000000000000000000000C501000802
:10003000710500080000000021020008B735000823
:100040009F0200089F0200089F0200089F0200080C
:100050009F0200089F020008730500089F02000825
:100060007D0500089F020008870500089F02000820
:100070009F0200089F0200089F0200089F020008DC
:100080009F0200089F0200089F0200089F020008CC
:100090009F0200089F0200089F0200089F020008BC
:1000A0009F0200089F0200089F0200089F020008AC
:1000B0009F0200089F0200089F0200089F0200089C
:1000C0009F020008BD1C0008AD1C00089F0200082C
:1000D0009F0200089F0200089F0200089F0200087C
:1000E0009F0200089F0200089F0200089F0200086C
:1000F0009F0200089F0200089F0200089F0200085C
:100100009F0200089F0200089F0200089F0200084B
:100110009F0200089F0200089F0200089F0200083B
:100120009F0200089F0200089F0200089F0200082B
:100130009F0200089F0200089F0200089F0200081B
:100140009F0200089F0200089F0200089F0200080B
:100150009F0200089F0200089F0200089F020008FB
:100160009F0200089F0200089F0200089F020008EB
:100170009F0200089F0200089F0200080000000084
:100180009F0200089F0200089F0200089F020008CB
:100190009F0200089F0200089F0200089F020008BB
:1001A00000000000000000009F020008DFF810D0EF
:1001B00000F0EEF80048004773390008AFF3008004
:1001C000385600202C4B19680868B0E8F04F80F3CF
:1001D0000988BFF36F8F4FF0000080F311887047DC
:1001E0000000000008480068006880F308884FF0AD
:1001F000000080F3148862B661B6BFF34F8FBFF37F
:100200006F8F00DF00BF00BF08ED00E0DFF80C00DB
:10021000016841F470010160704700BF88ED00E0A3
:10022000EFF30980BFF36F8F134B1A681EF0100FA6
:1002300008BF20ED108A20E9F04F106009B44FF09C
:10024000500080F31188BFF34F8FBFF36F8F04F01E
:100250002BFA4FF0000080F3118809BC1968086878
:10026000B0E8F04F1EF0100F08BFB0EC108A80F31A
:100270000988BFF36F8F7047A4110020EFF305804A
:10028000704700000648804706480047FEE7FEE743
:10029000FEE7FEE7FEE7FEE7FEE7FEE7FEE7FEE736
:1002A00089360008AD0100082DE9F05F0546002001
:1002B00092469B4688460646814640241BE02846D7
:1002C00041464746224600F053F853465A46C01A64
:1002D000914110D311461846224600F03AF82D1AE3
:1002E00067EB01084F4622460120002100F031F85B
:1002F00017EB00094E41201EA4F10104DFDC484643
:1003000031462A464346BDE8F09F40EA01039B0779
:1003100003D009E008C9121F08C0042AFAD203E07A
:1003200011F8013B00F8013B521EF9D27047D2B2DE
:1003300001E000F8012B491EFBD270470022F6E7CE
:1003400010B513460A4604461946FFF7F0FF20464B
:1003500010BD202A04DB203A00FA02F10020704789
:100360009140C2F1200320FA03F3194390407047F3
:10037000202A04DB203A21FA02F00021704721FAFA
:1003800002F3D040C2F12002914008431946704761
:10039000064C074D06E0E06840F0010394E80700D2
:1003A00098471034AC42F6D3FFF704FFC05A000858
:1003B000E05A000870B58C1810F8015B15F00703BF
:1003C00001D110F8013B2A1106D110F8012B03E0EE
:1003D00010F8016B01F8016B5B1EF9D12B0705D4F6
:1003E0000023521E0DD401F8013BFAE710F8013B3F
:1003F000CB1A921C03E013F8015B01F8015B521E5B
:10040000F9D5A142D8D3002070BD000055494A68F3
:1004100022F440324A604A6843681A434A600268DC
:10042000526822F4807203685A6002685368026955
:1004300043EA022203685A600268526822F040725E
:1004400003685A600268526883681A4303685A60F6
:100450000268926822F4006203689A6002689268F7
:10046000C3681A4303689A603F4B826A9A4218D065
:100470000268926822F0706203689A60026892686B
:10048000836A1A4303689A600268926822F04052B5
:1004900003689A6002689268C36A1A4303689A60A4
:1004A0000BE00268926822F0706203689A6002684A
:1004B000926822F0405203689A600268926822F0C3
:1004C000020203689A6002689368027E43EA42026D
:1004D00003689A602022125CA2B10268526842F45A
:1004E000006203685A600268526822F4604203683E
:1004F0005A6002685368426A521E43EA42320368F5
:100500005A6005E00268526822F4006203685A608B
:100510000268D26A22F470020368DA620268D36A5F
:10052000828B521E43EA02520368DA6202689268C2
:1005300022F4007203689A600268936890F8302091
:1005400043EA422203689A600268926822F4806259
:1005500003689A6002689368426943EA82220368EA
:100560009A607047002301400100000F00BFFEE7C2
:10057000704710B5012000F083F910BD10B50420BC
:1005800000F07EF910BD10B5102000F079F910BD13
:1005900072B600BFFEE7000038B5024600200090AA
:1005A00000BF92F83C00012801D1022038BD012093
:1005B00082F83C0000BF0868092816D91068C06896
:1005C0000C780A3C04EB44050724AC40A0431468B3
:1005D000E0600C780A3C04EB44048868A04014688E
:1005E000E46820431468E06013E0106800690C7848
:1005F00004EB44050724AC40A043146820610C7848
:1006000004EB44048868A0401468246920431468FB
:1006100020614868072817D21068406B0C79641E67
:1006200004EB84051F24AC40A04314686063088871
:1006300080B20C79641E04EB8404A0401468646BDF
:1006400020431468606331E048680D2817D21068B1
:10065000006B0C79E41F04EB84051F24AC40A0431D
:1006600014682063088880B20C79E41F04EB8404CA
:10067000A0401468246B20431468206316E01068BF
:10068000C06A0C790D3C04EB84051F24AC40A043E8
:100690001468E062088880B20C790D3C04EB840495
:1006A000A0401468E46A20431468E0621E4B1F4CAB
:1006B0001068A0420AD10868122807D1586820F4AF
:1006C00000005860586840F480005860174C10686B
:1006D000A04222D1164C0868A04202D00868112816
:1006E0001BD1586820F480005860586840F400001E
:1006F00058600F4C0868A0420FD10E4800680E4C9D
:10070000B0FBF4F000EB80004000009002E00098A5
:10071000401E009000980028F9D100BF002082F808
:100720003C0000BF00BF41E7002301400020014022
:10073000120000101C00002040420F0070B504465B
:1007400000250CB9012070BD1549A06A884200D06F
:1007500000BF206C30B9204600F024F8002060640F
:1007600084F83C00206C00F0100088B9206C20F464
:10077000885040F0020020642046FFF747FE00202A
:100780006064206C20F0020040F00100206400E072
:10079000012500BF002084F83C0000BF2846D2E7B6
:1007A0000100000F10B586B00446142101A8FFF720
:1007B000C5FD1949206888422BD100BF0020009058
:1007C0001648006840F480601449086008460068D4
:1007D00000F48060009000BF00BF00BF00200090C8
:1007E0000E481438006840F020000C4914390860A5
:1007F0000846006800F02000009000BF00BF3020D5
:100800000190032002900020039001A9044800F009
:1008100045F806B010BD00000022014044380240F7
:1008200000140240014691F83500022803D08020D0
:10083000486501207047052081F835000868006888
:1008400020F001000A6810600020F3E7014691F8EB
:100850003500704770B5044600F02EF9064625466F
:10086000681C10B104480078054400BF00F024F96A
:10087000801BA842FAD370BD18000020704700000A
:1008800010B5044604480068204020B102480460C6
:100890002046FFF7F3FF10BD143C0140F8B50246B7
:1008A0000B460025002400200021E0E0012606FA86
:1008B00001F51E6806EA0504AC4274D11E7906F003
:1008C0000306012E04D01E7906F00306022E13D172
:1008D00090684F000326BE40B0434F00DE68BE4024
:1008E00030439060506801268E40B0431E79C6F3B5
:1008F00000168E40304350601E7906F00306032E2A
:1009000009D0D0684F000326BE40B0434F009E6818
:10091000BE403043D0601E7906F00306022E13D18C
:10092000CF0802F1200656F827004E07F70E0F26D3
:10093000BE40B0434F07FF0E1E69BE403043CF0894
:1009400002F1200646F8270010684F000326BE403B
:10095000B0431E7906F003064F00BE4030431060DE
:100960005E6806F44036002E1DD000BF00260096BB
:10097000414E366846F480463F4F3E603E463668FC
:1009800006F48046009600BF00BF3C4E8F0856F824
:1009900027008E07370F0F26BE40B043384EB242B5
:1009A00002D100262EE061E0364EB24201D101268E
:1009B00028E0354EB24201D1022623E0334EB24246
:1009C00001D103261EE0324EB24201D1042619E0C5
:1009D000304EB24201D1052614E02F4EB24201D171
:1009E00006260FE02D4EB24201D107260AE02C4E1A
:1009F000B24201D1082605E02A4EB24201D10926B1
:100A000000E00A268F073F0FBE4030431B4E8F0881
:100A100046F82700244E3068A0435E6806F480162E
:100A200006B12043204E3060361D3068A0435E681A
:100A300006F4001606B120431B4E361D30601A4ED8
:100A4000361F3068A0435E6806F4003606B12043C6
:100A5000154E361F3060361F3068A0435E6806F4BE
:100A6000803606B12043104E083E3060491C1029E4
:100A7000FFF41CAFF8BD00004438024008380140C4
:100A8000000002400004024000080240000C024046
:100A9000001002400014024000180240001C0240F6
:100AA0000020024000240240083C01400AB181615C
:100AB00001E00B0483617047014800687047000043
:100AC00010000020024692F83D0020281ED124206C
:100AD00082F83D001068006820F00100136818607B
:100AE0001068406A20F01000136858621068406A6D
:100AF0000843136858621068006840F001001368EA
:100B00001860202082F83D00002070470220FCE79A
:100B100010B502460B46002192F83D0020281DD159
:100B2000242082F83D001068006820F0010014685D
:100B300020601068406A81B221F00F0141EA030091
:100B400081B2106841621068006840F001001468CA
:100B50002060202082F83D00002010BD0220FCE72C
:100B6000704770472DE9F84F0446206847692068B0
:100B7000D0F80480002594F83E90C7F3002040B1DF
:100B8000C8F3002028B145F001056FF4807021689A
:100B90004861C7F3402040B1C8F3002028B145F0B8
:100BA00002056FF4007021684861C7F3802070B3BC
:100BB000C8F3002058B3CA46B4F82AB094F83D6090
:100BC000206B0090BAF1200F0FD1BBF1000F0CD1B8
:100BD000212E06D0292E04D0282E06D100982128B7
:100BE00003D1204601F0C8FE11E06FF48060216857
:100BF000486145F00405B9F1100F02D0B9F1400F7A
:100C000005D12068006840F4007021680860C7F3CF
:100C1000C02040B1C8F3002028B145F008056FF4AA
:100C20000060216848612DB1206C28432064204673
:100C300001F0E0F8BDE8F88F2DE9F04705464FF0E8
:100C4000000928684668D5F82CA095F83E7095F8FC
:100C50003D80102F01D0402F75D12868D0F8189012
:100C60002868446904F0010060B9BAF52A0F02D07F
:100C7000BAF12A4F01D1012000E00020012801D162
:100C8000BDE8F08704F0010048B1C6F3402030B160
:100C9000284601F01BF8284601F023FDB7E0C4F315
:100CA000C00030B1C6F3402018B1284601F0D0FB97
:100CB000ADE0C4F3400030B1C6F3402018B128467F
:100CC00001F0DBFBA3E0C9F3800040B32868406873
:100CD00000F40060B0F5006FE0D0C4F3C01048B17C
:100CE000C6F3802030B1C4F3800018B9284601F063
:100CF00043FB8CE0C4F380000028CFD0C6F3402033
:100D00000028CBD0B8F1210F03D1284601F0E4FA36
:100D10007DE0402F7BD1284601F032FD77E0286846
:100D2000406800F40060B0F5006F70D0C4F380102C
:100D300050B1C6F3802038B1C4F3800020B92846F2
:100D400001F0E7F963E00BE0C4F3800000285ED017
:100D5000C6F3402000285AD0284601F040F956E05A
:100D6000286C10B12868446904E02868D0F818900D
:100D700028684469C4F3400060B1C6F3402048B11C
:100D8000286C10B12868D0F818904946284601F020
:100D9000BAFD3CE0C4F3001030B1C6F3402018B1F6
:100DA000284601F03DFE32E0B8F1210F02D0B8F143
:100DB000290F16D1C4F3C01048B1C6F3802030B15A
:100DC000C4F3800018B9284601F07AFD1FE0C4F38F
:100DD0008000E0B1C6F34020C8B1284601F063FDB1
:100DE00015E0C4F3801048B1C6F3802030B1C4F3DD
:100DF000800018B9284601F033FD08E0C4F38000F4
:100E000028B1C6F3402010B1284601F01CFD00BFF8
:100E100036E7704770B504460CB9012070BD94F8F0
:100E20003D0028B9002084F83C00204600F098F9E5
:100E3000242084F83D002068006820F0010021682B
:100E400008602068006840F400402168086020685D
:100E5000006820F400402168086000F0C5FB0546EA
:100E60005C496068884206D85B48854201D201200F
:100E700007E0002005E05948854201D2012000E04A
:100E80000020012800D1C9E75548B5FBF0F62068DD
:100E9000406820F03F003043216848604D49606859
:100EA000884201D8701C07E04FF4967070434FF4ED
:100EB0007A71B0FBF1F0401C2168096A21F03F0112
:100EC00008432168086243496068884214D8681E54
:100ED00061684900B0FBF1F0401CC0F30B0004282E
:100EE00001D204203DE0681E61684900B0FBF1F0CA
:100EF000401CC0F30B0034E0A06838B9681E61687C
:100F000001EB4101B0FBF1F0401C0AE0681E616892
:100F100001EBC10202EB0111B0FBF1F0401C40F407
:100F20008040C0F30B0008B901201AE0A06848B95E
:100F3000681E616801EB4101B0FBF1F0401CC0F399
:100F40000B000CE0681E616801EBC10202EB0111AD
:100F5000B0FBF1F0401CC0F30B0040F4804040F4C3
:100F600000402168C9694CF6FF729143084321682B
:100F7000C861D4E9070108432168096821F0C0016C
:100F8000084321680860D4E9031008432168896890
:100F900048F2FF329143084321688860D4E9050193
:100FA00008432168C96821F0FF0108432168C8602F
:100FB0002068006840F0010021680860002020647B
:100FC000202084F83D000020206384F83E0000BF0C
:100FD00024E70000A086010080841E0000093D0077
:100FE00040420F0070477047704700002DE9F843FA
:100FF0000446894616461F46DDF82080FFF75CFD53
:10100000054694F83D0020287ED11923012251493C
:101010002046009501F0FDFD10B10220BDE8F883E7
:1010200000BF94F83C00012801D10220F6E701201E
:1010300084F83C0000BF2068006800F0010028B977
:101040002068006840F0010021680860206800689E
:1010500020F4006021680860212084F83D00102001
:1010600084F83E000020206466626785608D2085DC
:101070003948E0622B4642464946204601F0CCF80A
:1010800008B10120CAE700BF002000902068406935
:10109000009020688069009000BF00BF44E02A46AD
:1010A0004146204601F0BAFE50B1206C042805D11B
:1010B0002068006840F40070216808600120ADE7F6
:1010C000606A007821680861606A401C6062608D17
:1010D000401E6085208D401E208520684069C0F339
:1010E000800070B1208D60B1606A0078216808616D
:1010F000606A401C6062608D401E6085208D401ECD
:1011000020852A46414600E022E0204601F04EFDBF
:1011100050B1206C042805D12068006840F40070AC
:1011200021680860012079E7208D0028B7D1206868
:10113000006840F4007021680860202084F83D00B9
:10114000002084F83E0000BF84F83C0000BF65E743
:10115000022063E7020010000000FFFF70477047A5
:1011600010B586B00446142101A8FFF7E7F823491B
:10117000206888423FD100BF0020009020480068CE
:1011800040F020001E4908600846006800F020007A
:10119000009000BF00BF03200190122002900020A9
:1011A0000390032004900420059001A91548FFF73F
:1011B00075FB00BF0020009011481030006840F41B
:1011C00080000F49103108600846006800F4800074
:1011D000009000BF00BF00220521212000F0A4F8EC
:1011E000212000F08DF800220521222000F09CF83B
:1011F000222000F085F806B010BD00000058004025
:1012000030380240001402407047704703480068BD
:10121000034909780844014908607047100000201C
:101220001800002010B50D48006840F400700B490C
:1012300008600846006840F480600860084600685E
:1012400040F480700860032000F0ACF80F2000F03C
:1012500007F800F02BF8002010BD0000003C024011
:1012600070B504460E4800784FF47A71B1FBF0F087
:101270000C490968B1FBF0F5284600F07BFC08B189
:10128000012070BD102C07D200222146501E00F014
:101290004BF80548046001E00120F2E70020F0E788
:1012A000180000201C0000201400002008B500BF1A
:1012B000002000901148006840F480400F49086009
:1012C0000846006800F48040009000BF00BF00BFE7
:1012D00000200090081F006840F08050091F08603F
:1012E0000846006800F08050009000BF00BF002258
:1012F0000F21901E00F018F808BD0000443802408D
:101300000146084600280DDB00BF00BF00F01F03A8
:1013100001229A4043099B0003F1E023C3F8002116
:1013200000BF00BF00BF70472DE9F05F80460D464B
:101330001646002702F0F2FA074639462A46334697
:1013400001F00700C0F1070ABAF1040F02D94FF00B
:10135000040A01E0C0F1070AD14600F1040ABAF11B
:10136000070F02D24FF0000A01E0A0F1030AD446B1
:101370004FF0010A0AFA09FAAAF1010A0AEA020A76
:101380000AFA0CFA4FF0010B0BFA0CFBABF1010B54
:101390000BEA030B4AEA0B042146404602F0C6FA68
:1013A000BDE8F09F00BF00F00702064B19684FF63A
:1013B000FF031940044B0B4343EA0221014B196020
:1013C00000BF70470CED00E00000FA0538B50024BE
:1013D00000BF002000901D48006840F080501B496D
:1013E00008600846006800F08050009000BF00BF11
:1013F000012017490864FFF75FFB044607E0FFF789
:101400005BFB001BB0F57A7F01D9032038BD114882
:10141000406800F48030B0F5803FF0D101200C49E5
:101420004864FFF749FB044607E0FFF745FB001B54
:10143000B0F57A7F01D90320E8E70648406800F458
:101440000030B0F5003FF0D10020DFE74038024027
:1014500000000E420070004070B504460D460CB905
:10146000012070BD5848006800F00F00A84209D262
:1014700055490D700846006800F00F00A84201D0E1
:101480000120EEE7207800F0020002281DD120782C
:1014900000F00400042805D14C48006840F4E050F6
:1014A0004A490860207800F00800082805D147481C
:1014B000006840F46040454908604448006820F0F6
:1014C000F000A168084341490860207800F001005D
:1014D000A8B36068012807D13C4808380068C0F309
:1014E0004040B8B90120BCE76068022802D06068BB
:1014F000032807D1354808380068C0F3406048B970
:101500000120AEE7314808380068C0F3400008B950
:101510000120A6E72D48006820F003006168084319
:101520002A490860FFF7C8FA064609E0FFF7C4FA3F
:10153000801B41F28831884202D9032091E707E0FD
:101540002248006800F00C006168B0EB810FEDD11B
:101550001D48006800F00F00A84209D91A490D7013
:101560000846006800F00F00A84201D0012078E78B
:10157000207800F00400042807D11448006820F403
:10158000E050E168084311490860207800F0080045
:10159000082808D10D48006820F46040216940EA1D
:1015A000C1000A49086000F03FF808490968C1F322
:1015B0000311074A515CC8400649086006480068A4
:1015C000FFF74EFE00204CE7003C02400838024086
:1015D0006C5200081C000020140000200148006824
:1015E000704700001C00002000B5FFF7F7FF04491A
:1015F0000968C1F38221034A515CC84000BD000064
:10160000083802407C52000800B5FFF7E7FF0449A4
:101610000968C1F34231034A515CC84000BD000073
:10162000083802407C5200082DE9F04700240025CC
:101630000026A1462548006800F00C0020B10428CF
:1016400005D008283AD105E0DFF8849039E0DFF8CA
:10165000849036E01D48001F006800F03F041B48DE
:10166000001F006800F4800078B11A481749091F6C
:101670000968C1F38811A0FB0170014622460023CE
:101680003846FEF711FE05460EE011480F49091FC6
:101690000968C1F38811A0FB0170014622460023AE
:1016A0003846FEF701FE05460848001F0068C0F3F3
:1016B0000140401C4600B5FBF6F902E0DFF810904F
:1016C00000BF00BF4846BDE8F08700000838024070
:1016D0000024F400001BB700F8B504460CB9012043
:1016E000F8BD207800F00100002874D0F9480068A7
:1016F00000F00C0004280DD0F648006800F00C0043
:10170000082813D1F348001F006800F48000B0F5EA
:10171000800F0BD1EF4808380068C0F34040002824
:1017200059D06068002856D10120D9E700BF606811
:10173000B0F5803F08D1E7480838006840F48030B1
:10174000E449083908601EE06068B0F5A02F0DD1AB
:10175000E0480838006840F48020DE490839086015
:101760000846006840F4803008600CE0D94808382A
:10177000006820F48030D7490839086008460068BE
:1017800020F48020086000BF606890B1FFF794F9F2
:10179000054606E0FFF790F9401B642801D90320B5
:1017A0009EE7CC4808380068C0F340400028F1D0DC
:1017B00011E0FFF781F9054606E0FFF77DF9401BD0
:1017C000642801D903208BE7C24808380068C0F3B9
:1017D00040400028F1D1207800F0020002285FD1BB
:1017E000BC48006800F00C0058B1BA48006800F02E
:1017F0000C0008281CD1B748001F006800F48000C6
:10180000B0B9B44808380068C0F3400020B1E068BF
:10181000012801D0012063E7AE480838006820F0B5
:10182000F800216940EAC100AA490839086037E098
:10183000E06800B30120A8490860FFF73DF90546BC
:1018400006E0FFF739F9401B022801D9032047E7DA
:10185000A04808380068C0F340000028F1D09D4837
:101860000838006820F0F800216940EAC100994971
:101870000839086014E0002097490860FFF71CF958
:10188000054606E0FFF718F9401B022801D903209E
:1018900026E7904808380068C0F340000028F1D1DE
:1018A000207800F0080008282CD16069A8B1012038
:1018B0008A490860FFF700F9054606E0FFF7FCF8E3
:1018C000401B022801D903200AE782486C300068D7
:1018D000C0F340000028F1D014E000207F490860E8
:1018E000FFF7EAF8054606E0FFF7E6F8401B022896
:1018F00001D90320F4E677486C300068C0F340005B
:101900000028F1D1207800F00400042870D10027CD
:1019100070483830006800F0805090B900BF002057
:1019200000906C483830006840F080506949383188
:1019300008600846006800F08050009000BF00BFBB
:1019400001276748006800F48070B0B964480068F7
:1019500040F4807062490860FFF7AEF8054606E083
:10196000FFF7AAF8401B022801D90320B8E65C481B
:10197000006800F480700028F2D000BFA068012841
:1019800008D154486830006840F00100514968317E
:1019900008601DE0A06805280DD14E486830006839
:1019A00040F004004B49683108600846006840F088
:1019B000010008600CE047486830006820F0010032
:1019C0004449683108600846006820F00400086057
:1019D00000BFA068A8B1FFF76FF8054609E0FFF760
:1019E0006BF8401B41F28831884202D9032077E628
:1019F00026E0384868300068C0F340000028EED088
:101A000013E0FFF759F8054608E0FFF755F8401BCB
:101A100041F28831884201D9032061E62D486830BF
:101A20000068C0F340000028EFD1012F07D12948FA
:101A30003830006820F0805026493831086000BFF7
:101A4000A069002845D02348006800F00C00082851
:101A50005DD0A069022845D100201F490866FFF724
:101A60002BF8054606E0FFF727F8401B022801D9AE
:101A7000032035E6174808380068C0F340600028A6
:101A8000F1D1D4E907010843616A40EA81110122DA
:101A9000A06AC2EB500041EA00412C20005D41EAFF
:101AA00000600C49091F086001200B490866FFF718
:101AB00003F8054606E0FEF7FFFF401B022801D9A8
:101AC00003200DE6034808380068C0F34060002892
:101AD000F1D049E00838024000004742800E4742FA
:101AE00000700040002021490866FEF7E5FF05462A
:101AF00006E0FEF7E1FF401B022801D90320EFE5D5
:101B00001B480068C0F340600028F2D12CE0A069B7
:101B1000012800D1E4E51648001D0668A0690128E7
:101B200020D006F48001E06981421BD106F03F011C
:101B3000206A814216D147F6C0703040616AB0EB2E
:101B4000811F0FD106F440310122A06AC2EB500080
:101B5000B1EB004F06D106F070612C20005DB1EBB7
:101B6000006F01D00120BBE50020B9E5000047422D
:101B70000038024070B504462546681EB0F1807FEB
:101B800001D301200FE0681E4FF0E02148610F21D2
:101B90004FF0FF3001F0CAFE00204FF0E0218861D5
:101BA00007200861002070BD10B504460CB9012063
:101BB00010BDA06900B100E000BF94F8410028B951
:101BC000002084F84000204600F02AF8242084F801
:101BD00041002068C06820F400502168C860204699
:101BE00001F05CFD2068006920F4904021680861E4
:101BF0002068406920F02A00216848612068C06898
:101C000040F400502168C86000206064202084F8FF
:101C1000410084F842000020606300BFC8E7000074
:101C200010B586B00446142101A8FEF787FB1B49B6
:101C30002068884230D100BF00200090184800681A
:101C400040F02000164908600846006800F02000B7
:101C5000009000BF00BF00BF002000901048143863
:101C6000006840F040000E491439086008460068DA
:101C700000F04000009000BF00BF4FF4844001908E
:101C80000220029000200390032004900820059079
:101C900001A90448FEF702FE06B010BD0014014081
:101CA000443802400018024000BFFEE710B5024869
:101CB000FEF758FF10BD0000A814002010B5024820
:101CC000FEF7BAFF10BD0000A8140020C16AB1F5EC
:101CD0002A0F02D10121C16205E0C16AB1F12A4F88
:101CE00001D10821C1627047F8B505460020009077
:101CF000AC6B94F83D60394800681921B0FBF1F0F5
:101D00004FF47A71B0FBF1F0C0EBC00000EB800043
:101D1000009000BF009820B9206C40F020002064A3
:101D200009E00098401E00902068006800F40070F0
:101D3000B0F5007FEED000BF606B10B10020616B8A
:101D4000C863A06B10B10020A16BC8632068006855
:101D500020F480602168086000206085606B10B10D
:101D60000020616B0865A06B10B10020A16B0865B5
:101D70002068006820F001002168086094F83D00A8
:101D800060280AD1202084F83D00002084F83E001D
:101D900020642046FEF7E4FE1EE006F02800282816
:101DA00011D12068006840F00100216808602068B7
:101DB000006840F4806021680860002020632820CB
:101DC00084F83D0005E0202084F83D00002084F8E0
:101DD0003E002046FFF71DF8F8BD00001C00002063
:101DE00001684969C1F3C01111B100210268116194
:101DF000704700002DE9F041044694F83D6094F8E6
:101E00003E70102F01D0402F07D1222E05D120681F
:101E1000006820F400602168086006F02800282887
:101E200005D100202063282084F83D0010E02068C0
:101E3000406800F40060B0F5006F07D0602E05D058
:101E4000202084F83D00002084F83E00002020631C
:101E50002068406800F40060B0F5006F40D1206851
:101E6000406820F4006021684860606B90F835009D
:101E7000012814D04848616B0865606BFEF7D2FCFE
:101E800000285BD02068006820F00100216808600D
:101E9000202084F83D00606B016D88474EE03E488D
:101EA000A16B0865A06BFEF7BDFC002846D020683A
:101EB0004069C0F3801030B120680069616A087021
:101EC000606A401C60622068006820F001002168A0
:101ED0000860202084F83D00A06B016D88472DE04C
:101EE00094F83D0060281AD1202084F83D0000209D
:101EF000206420684069C0F3801030B12068006918
:101F0000616A0870606A401C60622068006820F0A6
:101F10000100216808602046FEF722FE0EE02068DE
:101F20004069C0F3801030B120680069616A0870B0
:101F3000606A401C60622046FEF76BFF256C05F06E
:101F4000010058B905F00200022807D005F004008E
:101F5000042803D005F00800082805D1206840684F
:101F600020F4E0602168486094F83D60206C00F047
:101F7000040004280ED1282E0CD10848E06200206D
:101F80002063202084F83D00002084F83E00204695
:101F9000FFF728F8BDE8F081E91C00080000FFFF0A
:101FA000014608684069C0F38020B0B16FF48060DA
:101FB0000A68506100200863202081F83D0000205D
:101FC00081F83E00086C40F00400086400BF002067
:101FD00081F83C0000BF012070470020FCE770B58D
:101FE0000446E56A608D042810D12068406820F41A
:101FF00080602168486020680069616A0870606AD2
:10200000401C6062608D401E608581E0608D032809
:102010001AD12068406820F4806021684860042D4F
:1020200007D0022D05D02068006820F48060216868
:10203000086020680069616A0870606A401C60621C
:10204000608D401E608563E0608D022856D1012DB1
:1020500001D0102D06D12068006820F4806021682E
:10206000086012E0042D01D0022D06D1206800681E
:1020700040F480602168086007E0102D05D02068DA
:10208000006840F400702168086020680069616A97
:102090000870606A401C6062608D401E6085206828
:1020A0000069616A0870606A401C6062608D401E51
:1020B00060852068406820F44070216848602020D6
:1020C00084F83D0094F83E00402807D1002084F8B1
:1020D0003E0020632046FFF741F819E0002084F815
:1020E0003E00082D01D0202D02D10020206301E008
:1020F000122020632046FEF776FF09E02068006981
:10210000616A0870606A401C6062608D401E608574
:1021100070BD70B5044694F83D0022287AD1E66A75
:10212000658D032D13D920680069616A0870606AA3
:10213000401C6062608D401E6085608D032868D100
:102140002068406820F480602168486061E0E06AAF
:10215000022858D0012D01D0002D54D1204600F086
:1021600035FEA0BB2068006820F48060216808600C
:102170002068406820F4E0602168486020680069B9
:10218000616A0870606A401C6062608D401E6085F4
:10219000202084F83D0094F83E00402807D100201C
:1021A00084F83E0020632046FEF7D8FF31E000208F
:1021B00084F83E00082E01D0202E02D1002020639A
:1021C00001E0122020632046FEF70DFF21E0FFE72B
:1021D0002068406820F4E060216848602068006959
:1021E000616A0870606A401C6062608D401E608594
:1021F000202084F83D00002084F83E002046FEF7B1
:1022000008FE06E006E02068406820F4806021684F
:10221000486000BF70BD00002DE9F84304460D463C
:1022200017469846E66A082E04D0012E02D016F50D
:10223000803F06D12068006840F480702168086003
:1022400008E0206B122805D12068006840F48070F7
:10225000216808603B4600224FF001112046CDF86E
:10226000008000F0D6FC60B12068006800F4807047
:10227000B0F5807F02D14FF4007020640320BDE8E8
:10228000F8832069B0F5804F04D105F0FE00216885
:10229000086112E005F44070F02141EAE010216885
:1022A000086143463A460B49204600F011FD08B14B
:1022B0000120E4E7E8B22168086143463A4605494F
:1022C000891F204600F004FD08B10120D7E7002057
:1022D000D5E700000800010070B50446E56A94F8EF
:1022E0003D00212847D1608D50B1606A0078216897
:1022F0000861606A401C6062608D401E60853AE043
:10230000082D16D0202D14D015F5803F11D020684F
:10231000406820F4E06021684860112020630020BC
:1023200084F83E00202084F83D002046FEF75CFE45
:1023300021E02068406820F4E0602168486020685F
:10234000006840F4007021680860002020632020AD
:1023500084F83D0094F83E00402806D1002084F81F
:102360003E002046FEF7FBFE05E0002084F83E001C
:102370002046FEF739FE70BD2DE9F041044694F881
:102380003D5094F83E70E66A208DB0BB212D3CD1C3
:10239000082E16D0202E14D016F5803F11D02068BC
:1023A000406820F4E060216848601120206300202C
:1023B00084F83E00202084F83D002046FEF714FEFD
:1023C00044E02068406820F4E060216848602068AC
:1023D000006840F40070216808600020206320201D
:1023E00084F83D0094F83E00402807D1002084F88E
:1023F0003E002046FEF7B3FE28E006E0002084F809
:102400003E002046FEF7F0FD20E0212D03D0402FB6
:102410001CD1222D1AD1608D30B92068406820F47B
:1024200080602168486011E094F83E00402803D1A4
:10243000204600F0A5F909E0606A0078216808618B
:10244000606A401C6062608D401E6085BDE8F0815E
:10245000416CC9B202681161416B11B1416BC96B2A
:1024600021B9816B41B1816BC96B29B101684968A0
:1024700041F4006102685160704738B590F83E2021
:10248000C16A036B90F83D40222C73D1046D64B98E
:10249000402A0AD100BF00240094046864690094B3
:1024A0000468A469009400BF1AE1046DC4B904690A
:1024B000B4F5404F14D100BF00240094046864694F
:1024C00000940468A469009400BF00BF04682468F5
:1024D00044F4807405682C60046D641C0465FFE09E
:1024E000448D8CB900BF0024009404686469009492
:1024F0000468A469009400BF00BF0468246844F421
:10250000007405682C60DDE0448D012C72D111F55A
:10251000803F30D10468246824F4806405682C600E
:102520000468646804F40064B4F5006F10D10468B2
:10253000246824F4806405682C6000BF00240094A3
:102540000468646900940468A469009400BFB9E059
:1025500000BF002400940468646900940468A469BE
:10256000009400BF00BF0468246844F40074056848
:102570002C60A7E0A9E0082923D0202921D0122B24
:1025800001D101291DD104290AD0022908D010291E
:1025900006D00468246824F4806405682C6005E093
:1025A0000468246844F4806405682C6000BF00243B
:1025B00000940468646900940468A469009400BFEE
:1025C00080E00468246824F4806405682C6000BFFF
:1025D000002400940468646900940468A469009469
:1025E00000BF00BF0468246844F4007405682C60D0
:1025F00068E0FFE7448D022C3BD1042910D002296A
:102600000ED010290CD00468246824F48064056876
:102610002C600468246844F4006405682C6005E0BC
:102620000468246844F4806405682C600468646865
:1026300004F40064B4F5006F10D111F5803F07D0A9
:10264000012905D0082903D0102901D0202905D15E
:102650000468646844F4805405686C6000BF00241A
:1026600000940468646900940468A469009400BF3D
:1026700028E00468246844F4806405682C600468D9
:10268000646804F40064B4F5006F10D111F5803F64
:1026900007D0012905D0082903D0102901D020290D
:1026A00005D10468646844F4805405686C6000BF18
:1026B000002400940468646900940468A469009488
:1026C00000BF00BF002404650AE000BF002400949E
:1026D0000468646900940468A469009400BF00BFA2
:1026E00038BD90F83E1040290ED1016D29B9416CDA
:1026F00001F0FE010268116141E0416CC9B241F094
:102700000101026811613AE00169B1F5804F20D101
:1027100090F83D10212905D1416C01F0FE010268BD
:10272000116105E0416CC9B241F00101026811611B
:10273000416B11B1416BC96B21B9816BF9B1816BEF
:10274000C96BE1B10168496841F4006102685160F8
:1027500015E0016D41B9416C01F44071F02242EA8B
:10276000E111026811610AE0016D012907D1416C94
:1027700001F44071F12242EAE111026811617047EF
:1027800070B5044694F83D50206D98B9E06C01286E
:1027900007D1A06CC0B221680861206D801C206543
:1027A00050E0A06CC0F3072021680861206D401C38
:1027B000206547E0206D012807D1A06CC0B22168D8
:1027C0000861206D401C20653CE0206D022836D158
:1027D000222D09D12068006840F4807021680860CB
:1027E000206D401C20652DE0608D60B1212D0AD147
:1027F000606A007821680861606A401C6062608DD0
:10280000401E60851EE0608DE0B9212D1AD1206840
:10281000406820F4E060216848602068006840F467
:1028200000702168086000202063202084F83D00AB
:10283000002084F83E002046FEF791FC02E020468E
:10284000FFF7CEFA70BD418D49B101680969426A4E
:102850001170416A491C4162418D491E4185704792
:1028600070B5044694F83D50608DD8B12068006979
:10287000616A0870606A401C6062608D401E6085FD
:10288000608D78B92A2D0DD12068406820F48060D1
:102890002168486022202063282084F83D002046DB
:1028A000FEF7B2FC70BD418D49B1416A09780268FA
:1028B0001161416A491C4162418D491E4185704741
:1028C00070B5044694F83D50608DD8B1606A0078C8
:1028D00021680861606A401C6062608D401E6085EE
:1028E000608D78B9292D0DD12068406820F4806072
:1028F0002168486021202063282084F83D0020467C
:10290000FEF783FC70BDF8B504460D46002794F829
:102910003D0000F0280028281CD12068406820F4E1
:10292000806021684860C5F3800000B90127C5F3C5
:10293000C01010B9A08986B201E0208B86B200BF1A
:10294000002084F83C0000BF324639462046FEF79E
:1029500008F90FE000BF0020009020684069009057
:1029600020688069009000BF00BF00BF002084F88D
:102970003C0000BFF8BD000070B5044694F83D501F
:10298000E66A082E01D0202E1FD1282D1DD1234804
:10299000E0622068406820F4E060216848606FF4DD
:1029A0008060216848612068006820F480602168A8
:1029B000086000202063202084F83D00002084F877
:1029C0003E002046FEF70EFB26E0212D20D11348C5
:1029D000E06221202063202084F83D00002084F85C
:1029E0003E002068406820F4E060216848606FF491
:1029F0008060216848612068006820F48060216858
:102A000008602046FFF7ECF92046FEF7FEFB03E0E6
:102A10006FF480602168486170BD00000000FFFF16
:102A200038B5044694F83D502068406820F4E060D2
:102A30002168486000BF0020009020684069009035
:102A40002068006840F001002168086000BF00BFF6
:102A50002068006820F48060216808602068406871
:102A600000F40060B0F5006F42D1222D01D02A2D74
:102A70001FD1A06B006840686085608D18B1206C24
:102A800040F0040020642068406820F40060216861
:102A90004860A06BFDF7DAFE012829D04148A16B00
:102AA0000865A06BFDF7BEFE10B3A06B016D8847F3
:102AB0001EE0606B006840686085608D18B1206C16
:102AC00040F0040020642068406820F40060216821
:102AD0004860606BFDF7BAFE012809D03148616B90
:102AE0000865606BFDF79EFE10B1606B016D884755
:102AF000608D18B320684069C0F3800048B1206839
:102B00000069616A0870606A401C6062608D401EE6
:102B1000608520684069C0F3801048B12068006972
:102B2000616A0870606A401C6062608D401E60854A
:102B3000608D18B1206C40F004002064206C18B146
:102B40002046FFF757F92BE02A2D07D100202063FC
:102B5000282084F83D002046FEF756FB94F83D00FF
:102B600028280DD11048E06200202063202084F83E
:102B70003D00002084F83E002046FEF733FA0FE0C7
:102B8000206B222801D0222D0AD100202063202092
:102B900084F83D00002084F83E002046FEF734FB18
:102BA00038BD0000E91C00080000FFFF70B50446B6
:102BB0000D46164625E02046FFF7F2F908B1012040
:102BC00070BD681CE8B1FDF777FF801BA84200D8F4
:102BD000BDB920684069C0F3800090B9002020632F
:102BE000202084F83D00002084F83E00206C40F056
:102BF0002000206400BF002084F83C0000BF0120BA
:102C0000DEE720684069C0F380000028D3D00020B0
:102C1000D6E72DE9F04104460D4617461E46DDF87D
:102C2000188038E0701CA8B3FDF746FFA0EB080041
:102C3000B04200D876BBC5F3074001280AD120680E
:102C40004069A9B20840A9B2884201D101200BE035
:102C5000002009E020688069A9B20840A9B2884232
:102C600001D1012000E00020B84214D100202063EF
:102C7000202084F83D00002084F83E00206C40F0C5
:102C80002000206400BF002084F83C0000BF012029
:102C9000BDE8F081FFE7C5F3074001280AD12068AD
:102CA0004069A9B20840A9B2884201D101200BE0D5
:102CB000002009E020688069A9B20840A9B28842D2
:102CC00001D1012000E00020B842ABD00020DFE7B6
:102CD0002DE9F04104460D4616461F4658E020688F
:102CE0004069C0F38020E8B12068006840F40070BB
:102CF000216808606FF480602168486100202063CB
:102D0000202084F83D00002084F83E00206C40F034
:102D10000400206400BF002084F83C0000BF0120B4
:102D2000BDE8F081701C90B3FDF7C6FEC01BB04239
:102D300000D866BBC5F3074001280AD12068406966
:102D4000A9B20840A9B2884201D101200BE00020BD
:102D500009E020688069A9B20840A9B2884201D17F
:102D6000012000E0002090B900202063202084F89A
:102D70003D00002084F83E00206C40F020002064DC
:102D800000BF002084F83C0000BF0120C8E7FFE737
:102D9000C5F3074001280AD120684069A9B208405C
:102DA000A9B2884201D101200BE0002009E020688F
:102DB0008069A9B20840A9B2884201D1012000E08F
:102DC000002000288BD00020AAE7000008B50146AB
:102DD00000200090104800681922B0FBF2F04FF478
:102DE0007A72B0FBF2F000EB8000009000BF009818
:102DF000401E0090009828B9086C40F0200008643C
:102E0000012008BD0868006800F40070B0F5007F7C
:102E1000EDD00020F5E700001C00002070B504464E
:102E20000D46164625E02046FFF7BAF808B1012006
:102E300070BD681CE8B1FDF73FFE801BA84200D8BA
:102E4000BDB920684069C0F3C01090B9002020636C
:102E5000202084F83D00002084F83E00206C40F0E3
:102E60002000206400BF002084F83C0000BF012047
:102E7000DEE720684069C0F3C0100028D3D00020EE
:102E8000D6E700001FB5002000900190029003904B
:102E90001548164908604FF48030486000211348F7
:102EA00081600161017680F82010C1621049816261
:102EB0000021C1600121C161002180F83010012191
:102EC0004161FDF73BFC08B1FDF762FB0E2000906D
:102ED000012001900020029069460448FDF75CFB48
:102EE00008B1FDF755FB1FBD002201406014002012
:102EF0000100000F00B595B0174800F02AFE1749F1
:102F000008600846006808B9FDF742FB1C22144916
:102F10000EA8FDF7FAF900210EA800F027FE1149CE
:102F200008601C220E491C3107A8FDF7EEF90021AC
:102F300007A800F01BFE0C4908601C220849383124
:102F40006846FDF7E2F90021684600F00FFE0749E8
:102F5000086015B000BD00001052000804000020F9
:102F600018520008080000200C000020000000207B
:102F700000B587B0142102A8FDF7E0F900BF0020DA
:102F800001907348006840F04000714908600846AD
:102F9000006800F04000019000BF00BF00BF0020AB
:102FA00001900846006840F001000860084600688B
:102FB00000F00100019000BF00BF00BF00200190A1
:102FC0000846006840F0200008600846006800F0ED
:102FD0002000019000BF00BF00BF00200190084604
:102FE000006840F0800008600846006800F080003B
:102FF000019000BF00BF00BF00200190084600689C
:1030000040F0040008600846006800F004000190E9
:1030100000BF00BF00BF002001900846006840F0DC
:10302000020008600846006800F00200019000BF3E
:1030300000BF00BF002001900846006840F010006B
:1030400008600846006800F01000019000BF00BF53
:10305000002202213F48FDF729FD002220213E48A1
:10306000FDF724FD00224FF400613C48FDF71EFDF2
:1030700000224FF480413A48FDF718FD01200290EC
:103080004FF4881003900220049002A93548FDF700
:1030900005FC042002904FF4881003900220049055
:1030A00002A93148FDF7FAFB0220029001200390AB
:1030B00000200490059002A92648FDF7EFFB1020A0
:1030C00002904FF4041003900120049002A92548B7
:1030D000FDF7E4FB202002900120039000200490E3
:1030E000059002A91C48FDF7D9FB4FF4006002903F
:1030F0000120039000200490059002A91748FDF7D5
:10310000CDFB4FF4804002900120039000200490FA
:10311000059002A91248FDF7C1FB002205210620F7
:10312000FEF702F90620FEF7EBF800220521082041
:10313000FEF7FAF80820FEF7E3F8002205210A203E
:10314000FEF7F2F80A20FEF7DBF807B000BD00003A
:1031500030380240001802400000024000100240D7
:1031600000140240000802400004024010B5134859
:1031700013490860134848604FF48041104881604B
:103180000021C1604FF480410161002141618161F2
:10319000C1610162FDF73EFE08B1FDF7F9F90021BA
:1031A0000748FDF78FFC08B1FDF7F2F9002104484C
:1031B000FDF7AEFC08B1FDF7EBF910BD005800407B
:1031C000A8140020801A060010B50B480B490860AF
:1031D0004FF4E1304860002108488160C16001611E
:1031E0000C21416100218161C161FEF7DDFC08B164
:1031F000FDF7CEF910BD000000140140FC140020C2
:1032000000BFFEE700BFFEE770B50646002418E0E9
:1032100004F1B000002100F0B8F90021084600F0E8
:10322000B4F90021102000F0B0F9002505E00121DB
:10323000304600F0AAF9681CC5B2802DF7DB601C8F
:10324000C4B2082CE4DB70BD2DE9F05F06460F46E2
:1032500090461C46DDF828A04FF0000BE11704EB68
:103260005171C910A4EBC10131B92046E11704EB3B
:103270005171C1F3C70506E02046E11704EB517117
:10328000C910491CCDB23D4615E02946304600F034
:1032900087F8B1460BE059460BF1010B1AF8010013
:1032A000012100F072F909F1010000F0FF09C145A8
:1032B000F1DB681CC5B2A542E7DBBDE8F09F10B5A5
:1032C000C820FDF7C7FA0021AE2000F05EF900210A
:1032D000084600F05AF90021102000F056F90021AC
:1032E000402000F052F90021B02000F04EF90021FA
:1032F000812000F04AF90021FF2000F046F900216A
:10330000A12000F042F90021A62000F03EF90021A2
:10331000A82000F03AF900213F2000F036F9002102
:10332000C82000F032F90021D32000F02EF900214E
:10333000084600F02AF90021D52000F026F90021E6
:10334000802000F022F90021D82000F01EF9002191
:10335000052000F01AF90021D92000F016F900210B
:10336000F12000F012F90021DA2000F00EF900211E
:10337000122000F00AF90021DB2000F006F90021FC
:10338000302000F002F900218D2000F0FEF800212D
:10339000142000F0FAF80021AF2000F0F6F810BD7C
:1033A00070B504460D4605F1B000002100F0EDF8BF
:1033B000102141EA1410002100F0E7F804F00F009A
:1033C000002100F0E2F870BD2DE9F04107460E46FD
:1033D000154631463846FFF7E3FF002408E0104A5F
:1033E00002EB8511085D012100F0CFF8601CC4B22A
:1033F000102CF4DB701CC1B23846FFF7D1FF00245B
:103400000AE06900491C064A02EB4111085D0121EE
:1034100000F0BBF8601CC4B2102CF2DBBDE8F081F8
:10342000211000202DE9F04707460E4690469946A8
:1034300000250024A8F12000C5B27F2F02DD00275F
:10344000B01CC6B2B9F1100F24D131463846FFF78F
:10345000A7FF002408E004EB0511194A505C012184
:1034600000F093F8601CC4B2082CF4DB701CC1B2ED
:103470003846FFF795FF002409E004EB05110831F9
:103480000F4A505C012100F080F8601CC4B2082C87
:10349000F3DB12E031463846FFF782FF00240AE0F2
:1034A00005EB4501074A02EB4101085D012100F0EF
:1034B0006CF8601CC4B2062CF2DBBDE8F08700009B
:1034C000AC540008845200082DE9FF5F074691467E
:1034D0001E460E9D4FF0000A002435E0301B401EB2
:1034E000C1B20A2000F05EFAB9FBF0F00A21B0FB8D
:1034F000F1F201FB1208BAF1000F14D1701EA042C4
:1035000011DDB8F1000F0CD1AB4605EBDB714910B2
:1035100001FB0471C8B22B4620220199FFF782FFFC
:1035200010E04FF0010AAB4605EBDB71491001FBDF
:103530000471C8B208F13001CAB22B460199FFF7F5
:1035400071FF00BF601CC4B2B442C7DBBDE8FF9F7F
:103550002DE9F04104460F461546984600260FE037
:10356000AA5D434639462046FFF75CFF04F1080098
:10357000C4B2782C02DD0024B81CC7B2701CC6B2DD
:10358000A85D0028ECD1BDE8F08170B504460D4679
:103590001DB1E0B200F0ACF902E0E0B200F096F943
:1035A00070BD00BF012000F0C3FAFBE700BF01209F
:1035B00000F0BEFAFBE710B5FDF728FE01F042FC73
:1035C000012801D001F06AF910BD000000B593B0E8
:1035D000302107A8FCF7B2FE142102A8FCF7AEFECA
:1035E00000BF002001902648006840F08050244928
:1035F00008600846006800F08050019000BF00BFDE
:1036000000BF002001901F48006840F440401D4961
:1036100008600846006800F44040019000BF00BF09
:10362000012007900004089002200D9041050E91A2
:1036300006210F91B42110910221119104211291C0
:1036400007A8FEF749F808B1FCF7A2FFFDF7BEFE98
:1036500008B1FCF79DFF0F2002900220039000208C
:1036600004904FF4A05005904FF48050069005212F
:1036700002A8FDF7F1FE08B1FCF78AFF13B000BD08
:1036800040380240007000400348006840F4700079
:10369000014908607047000088ED00E02DE9F84F0F
:1036A00004462068006920F44050E168084321681E
:1036B00008612169A068084361690843E16908431A
:1036C00000902068C06849F20C6188430099084363
:1036D0002168C8602068406920F44070A1690843EF
:1036E0002168486176492068884203D0754920687E
:1036F000884203D1FDF788FF814602E0FDF774FFA1
:103700008146E069B0F5004F6CD102206168A0FBF2
:10371000015003461920A9FB007001462A4638468D
:10372000FCF7C2FD6421B0FBF1F04FEA001A022061
:103730006168A0FB01510B461920A9FB00712A46C4
:103740003846FCF7B1FD834602206168A0FB0150BA
:1037500003461920A9FB00712A463846FCF7A4FD50
:103760006421B0FBF1F000EBC00101EB0010ABEB0A
:103770008000322101EBC0006421B0FBF1F000F0C9
:10378000F8000AEB400A02206168A0FB01500346E2
:103790001920A9FB007001462A463846FCF784FD33
:1037A000834602206168A0FB015003461920A9FB53
:1037B00000712A463846FCF777FD6421B0FBF1F032
:1037C00000EBC00101EB0010ABEB8000322101EBFC
:1037D000C0006421B0FBF1F000F007005044216804
:1037E00088606AE004206168A0FB0150034619204C
:1037F000A9FB007001462A463846FCF755FD824673
:1038000004206168A0FB015003461920A9FB007049
:1038100001462A463846FCF747FD6421B0FBF1F02B
:1038200000EBC00101EB0010AAEB8000322101EB9C
:1038300000106421B0FBF1F000F0F00A0420616890
:10384000A0FB017003461920A9FB00513A46284607
:10385000FCF72AFD6421B0FBF1F00AEB001A04200A
:103860006168A0FB01510B461920A9FB00712A4693
:103870003846FCF719FD834604206168A0FB01501F
:1038800003461920A9FB007001462A463846FCF77A
:103890000BFD6421B0FBF1F000EBC00101EB001067
:1038A000ABEB8000322101EB00106421B0FBF1F0A2
:1038B00000F00F00504421688860BDE8F88F0000D8
:1038C000001001400014014000BFFEE71CB5044693
:1038D000002001908DF80540401E022301AA7821A6
:1038E00000900248FDF782FB1CBD0000A8140020D8
:1038F0001CB5044607A0006801908DF805404FF004
:10390000FF30022301AA782100900348FDF76EFBE7
:103910001CBD000040000000A81400200248006800
:10392000C0F30220704700000CED00E010B5002845
:1039300004DB0A07130E054A135406E00A07140EA7
:10394000034A00F00F031B1FD45410BD00E400E035
:1039500018ED00E002E008C8121F08C1002AFAD1E1
:1039600070477047002001E001C1121F002AFBD1FF
:103970007047FDF757FCFFF729FEFFF7F9FAFFF74D
:1039800023FCFFF7F3FBFFF77DFAFFF7B3FA00F034
:10399000DBF800BFFEE701460020842901D0CA1CE5
:1039A0001044704710B50246012000E050430B1E42
:1039B000A1F10104E1B2F9D110BD000008B5FFF793
:1039C0007EFC20204E49087098E00020FFF71CFC88
:1039D000002211461046FFF7F7FC102349A20321ED
:1039E0000620FFF7B5FD10234AA206210020FFF7AD
:1039F000AFFD102349A206213F20FFF7A9FD1023A8
:103A00003F48027806213020FFF70CFD3C48007843
:103A1000401C3B490870084600787E2801DD2020C4
:103A20000870102003230090354802780621672093
:103A3000FFF74AFD4FF4FA70FCF70CFF4FF4FA70F1
:103A4000FCF708FF4FF4FA70FCF704FF4FF4FA702C
:103A5000FCF700FF0020FFF7D7FB32480823802245
:103A6000002100900846FFF7EFFB4FF4FA70FCF7D7
:103A7000F1FE4FF4FA70FCF7EDFE4FF4FA70FCF72C
:103A8000E9FE4FF4FA70FCF7E5FE0020FFF7BCFBFF
:103A9000254808238022002100900846FFF7D4FB28
:103AA0004FF4FA70FCF7D6FE4FF4FA70FCF7D2FE32
:103AB0004FF4FA70FCF7CEFE4FF4FA70FCF7CAFE32
:103AC0000020FFF7A1FB1948082380220021009065
:103AD0000846FFF7B9FB4FF4FA70FCF7BBFE4FF452
:103AE000FA70FCF7B7FE4FF4FA70FCF7B3FE4FF430
:103AF000FA70FCF7AFFE0020FFF786FB65E70000D9
:103B00002010002048656C6C6F20574F524C4420A9
:103B10002E2E000041534349493A0000434F44458B
:103B20003A0000002000002020040020200800208F
:103B300070B5044625460DB1294600E0012108462E
:103B400000F0F6FC002070BD10B500F04DFD002027
:103B500010BD10B50446606820B10120616800F016
:103B6000C8FE10BD012000F0B3FEFAE77FB50446A1
:103B70000D46606998B1A06988B1B4F90800FFF7F3
:103B80000AFF0646D4E90510CDE9006102902B46F4
:103B90002269D4E9001001F0F7F8039013E0B4F9BA
:103BA0000800FFF7F8FE064603A8CDE90060238A67
:103BB0009AB22B46D4E9001001F0B4F8012802D0E3
:103BC000002004B070BD0398FBE700002DE9F04130
:103BD00005460E461C4807681C480068001D00F09A
:103BE000A3FB50B91948006890F82C1001208840B8
:103BF00017490968814316480160681C38B936B115
:103C000012480168091D134800F0D8FB1AE07C191E
:103C10000E4800684460BC4207D20C480168091D88
:103C20000D48006800F0B0FB0CE008480168091D71
:103C30000A48006800F0A8FB09480068844201D2E5
:103C400007480460BDE8F081B8110020A4110020ED
:103C5000BC11002020160020AC110020A81100206B
:103C6000D411002010B5044600F0B4FB23480068CE
:103C7000401C224908602248006840B9204804607E
:103C80000846006801280DD100F0A0F90AE01D489F
:103C9000006838B91A480068C06AE16A884201D8E9
:103CA0001748046018480068401C1749086094F8D9
:103CB0002C10012088401549096808431349086001
:103CC000E16A01EB8101124A02EB8100211D00F043
:103CD00075FB00F0A9FB0B48006868B10848006854
:103CE000C06AE16A884207D24FF0805009490860F3
:103CF000BFF34F8FBFF36F8F10BD0000B4110020D2
:103D0000A4110020C0110020D0110020BC110020FF
:103D10004415002004ED00E010B516E000F05AFB59
:103D20000C48C068C468201D00F0FEFA0A4800680C
:103D3000401E0949086009480068401E074908609C
:103D400000F072FB204600F04AF8044800680028A2
:103D5000E4D110BD0C160020B4110020B0110020D9
:103D60002DE9F04104460F4615464FF00008A66BBA
:103D7000206C48B9206800282CD1A06801F016F901
:103D800080460020A06025E07DB93946226C60683D
:103D9000FCF7BBFA216C606808446060D4E901015B
:103DA000884217D32068606014E03946226CE068CE
:103DB000FCF7ABFA216CE068411AE1602168E06829
:103DC000884203D2216CA068411AE160022D01D122
:103DD00006B1761E701CA0634046BDE8F08110B5A8
:103DE000044694F8510030B9206B00F03BFB2046AC
:103DF00000F038FB1AE094F85100012803D1204666
:103E000000F030FB12E094F85100022801D10120AB
:103E100000E0002050B900BF502080F31188BFF3AC
:103E20004F8FBFF36F8F00BF00BFFEE710BD0000D4
:103E300030B54FF47053174800F007042CB1C01D83
:103E400020F00700134C041B1B1B0246124C22607F
:103E50000024114D6C60D018083820F007000F4C7A
:103E6000206000240D4D2D686C600C4D2D682C6079
:103E70001146441A4C60094C24680C60084D4C688B
:103E80002C60084D4C682C604FF00044064D2C60AF
:103E900030BD000034160020E0110020E8110020A1
:103EA000F0110020EC110020FC11002000BFFFF7F2
:103EB00033FF064800680128F9D94FF080500449C3
:103EC0000860BFF34F8FBFF36F8FF0E744150020FA
:103ED00004ED00E010B5044654B10020A06020605D
:103EE0000021E16000231A461946204600F000FE3A
:103EF00010BD2DE9F04106460D4617469846069C32
:103F00000DB9246000E02760E663256401212046A6
:103F100000F0A2FDBDE8F0812DE9FF5F81460E466D
:103F20009246DDE90E7B109CAAF10100216B01EBAA
:103F3000800828F0070808F0070008B9012000E011
:103F4000002050B900BF502080F31188BFF34F8F7D
:103F5000BFF36F8F00BF00BFFEE786B1002507E00B
:103F6000715D04F134004155705D00B902E06D1CD3
:103F7000102DF5D300BF00214320015502E00020A1
:103F800084F83400072F00D30627E7626764002017
:103F9000A064201D00F0F5F904F1180000F0F1F91B
:103FA0002461C7F10700A06164620020E06484F826
:103FB000500049464046039A00F0A0F92060BBF14A
:103FC000000F01D0CBF80040BDE8FF9F10B50024E2
:103FD00007E004EB84010F4A02EB810000F0C4F912
:103FE000641C072CF5D30C4800F0BEF90B4800F018
:103FF000BBF90B4800F0B8F90A4800F0B5F90A48D7
:1040000000F0B2F90448094908600448084908600A
:1040100010BD000044150020D0150020E41500203C
:10402000F81500200C16002020160020A8110020F2
:10403000AC11002010B50146164800E00068036886
:104040008B42FBD30246436813448B4204D143683E
:104050004C682344436001460A464B681344046895
:10406000A34211D10C4C03682468A34208D04B68CA
:104070000468646823444B6003681B680B6005E0B8
:10408000054B1B680B6001E003680B60884200D0A1
:10409000016010BDE0110020E811002070B5054658
:1040A00000F098F9A86BE96B884201D1012400E087
:1040B000002400F0B9F9204670BD00000A490968E3
:1040C000096809B9012100E0002121B14FF0FF3159
:1040D000064A116006E004490968C968C868034ACD
:1040E0004168116070470000A8110020D411002021
:1040F0000E480068401C08B9012000E0002050B9BB
:1041000000BF502080F31188BFF34F8FBFF36F8F34
:1041100000BF00BFFEE700BF502080F31188BFF34F
:104120004F8FBFF36F8F00BF00BFFEE7001200206C
:1041300070B5044600F04EF994F9455010E0606AFD
:1041400008B9012000E0002038B904F1240000F093
:1041500091FF18B100F026FA00E003E0681E45B2B6
:10416000002DECDC00BFFF2084F8450000F05CF976
:1041700000F030F994F9445010E0206908B90120AA
:1041800000E0002048B904F1100000F073FF08B10E
:1041900000F008FA681E45B200E001E0002DECDCFA
:1041A00000BFFF2084F8440000F03EF970BD00001D
:1041B0002DE9F04104464FF0000800F06DFA49483F
:1041C000006808B9FFF734FE47480068204000281F
:1041D00070D1D4B1083404F00700B0B104F0070086
:1041E000C0F10800044404F0070008B9012000E011
:1041F000002050B900BF502080F31188BFF34F8FCB
:10420000BFF36F8F00BF00BFFEE7002C52D03748CE
:10421000006884424ED8364E3046056801E02E468E
:104220002D686868A04202D228680028F7D12D487E
:10423000006885423ED0306800F108082868306088
:104240006868001B102819D92F1907F0070008B952
:10425000012000E0002050B900BF502080F31188F9
:10426000BFF34F8FBFF36F8F00BF00BFFEE76868DB
:10427000001B78606C603846FFF7DCFE1B496868FD
:104280000968081A19490860084600681949096848
:10429000884203D2154800681649086012496868C8
:1042A0000968084368600020286013480068401CC3
:1042B0001149086000F02AFF08F0070008B9012042
:1042C00000E0002050B900BF502080F31188BFF3F8
:1042D0004F8FBFF36F8F00BF00BFFEE74046BDE8C2
:1042E000F0810000E8110020FC110020EC110020FA
:1042F000E0110020F0110020F4110020001F4FF009
:1043000080730360001F21F001030360001F054B51
:10431000036014380260001F6FF00203036020384E
:1043200070470000F140000801460A69D1E90130F8
:104330009860D1E9010358605068884201D18868CB
:104340005060002008611068401E106010687047BF
:10435000034B0360034B0B60802313607047000026
:104360000C1200206012002000F1080141604FF0A3
:10437000FF31816000F10801C1600161002101602D
:10438000704700210161704710B502460B685C1C44
:104390000CB9106907E002F1080000E040684468C9
:1043A00024689C42FAD944684C604C68A1608860DB
:1043B00041600A611468641C146010BD42684A6060
:1043C00093688B60936859609160086103685B1C17
:1043D0000360704700BF502080F31188BFF34F8FF8
:1043E000BFF36F8F00BF0E480068401C0C49086087
:1043F00008460068012812D10A480068C0B208B90E
:10440000012000E0002050B900BF502080F3118847
:10441000BFF34F8FBFF36F8F00BF00BFFEE7704742
:104420000012002004ED00E00D48006850B900BF04
:10443000502080F31188BFF34F8FBFF36F8F00BF01
:1044400000BFFEE706480068401E054908600846B0
:10445000006820B9002080F3118800BF00BF7047BA
:104460000012002070B506463546002E44D0083DA7
:104470002C46224960680968084008B1012000E024
:10448000002050B900BF502080F31188BFF34F8F38
:10449000BFF36F8F00BF00BFFEE7206808B901209F
:1044A00000E0002050B900BF502080F31188BFF316
:1044B0004F8FBFF36F8F00BF00BFFEE70F496068EB
:1044C00009680840C0B12068B0B90C496068096843
:1044D0008843606000F0E0F80949606809680844B2
:1044E000074908602046FFF7A5FD06480068401C04
:1044F0000449086000F00AFE70BD0000FC110020B5
:10450000EC110020F811002000204FF0E02108619C
:104510008861064800684FF47A71B0FBF1F0401EE4
:104520004FF0E02148610720086170471C0000201F
:1045300070B504460025D4B11248006808B90120BE
:1045400000E0002050B900BF502080F31188BFF375
:104550004F8FBFF36F8F00BF00BFFEE700F09CF8E6
:1045600000212046FFF732FB00F0D0FD05463DB9A3
:104570004FF0805004490860BFF34F8FBFF36F8F37
:1045800070BD0000DC11002004ED00E00349096863
:10459000016003490968416070470000CC110020A8
:1045A000B81100200120014908607047C81100209F
:1045B00070B504460D4654B900BF502080F31188F1
:1045C000BFF34F8FBFF36F8F00BF00BFFEE70548FB
:1045D000016818312046FFF7D7FE01212846FFF772
:1045E000F5FA70BDA411002010B586B0002005902A
:1045F000049003AA04A905A8FFF7AAFE0022DDE99A
:1046000004101346CDE9002102901CA11D48039A15
:1046100000F0BAFB1C4908600846006808B1012494
:1046200000E00024012C15D100BF502080F3118838
:10463000BFF34F8FBFF36F8F00BF4FF0FF301349B1
:10464000086001201249086000201249086000F04B
:1046500071F810E0601C08B1012000E0002050B9A2
:1046600000BF502080F31188BFF34F8FBFF36F8FCF
:1046700000BF00BFFEE706B010BD000049444C4536
:1046800000000000AD3E0008D8110020D411002029
:10469000C0110020B811002002480068401C0149E8
:1046A00008607047DC1100201D48006818B1012027
:1046B0001C49086032E000201A4908601A48006866
:1046C000B0FA80F0C0F11F0101EB8100174A52F8E7
:1046D000200008B1012000E0002050B900BF5020A8
:1046E00080F31188BFF34F8FBFF36F8F00BF00BF00
:1046F000FEE701EB81020D4B03EB8200426852683A
:10470000426000F108024368934202D14268526855
:1047100042604268D268064B1A6000BF70470000D2
:10472000DC110020C8110020BC110020441500201D
:10473000A41100201CB5524800685249884201D09B
:10474000012000E0002050B900BF502080F3118804
:10475000BFF34F8FBFF36F8F00BF00BFFEE7484826
:1047600000684849491E884201D0012000E000202D
:1047700050B900BF502080F31188BFF34F8FBFF3B3
:104780006F8F00BF00BFFEE73F49084600780190E9
:10479000FF200A4610700846007800909DF800003F
:1047A00000F0F0009DF80020904201D1012000E0CF
:1047B000002050B900BF502080F31188BFF34F8F05
:1047C000BFF36F8F00BF00BFFEE79DF8000000F051
:1047D00050002E4A107007202D4A106009E02C4826
:1047E0000068401E2A4A10609DF800004006000E36
:1047F00000909DF8000000F080008028EFD0244851
:104800000068C0F10700042801D1012000E0002069
:1048100050B900BF502080F31188BFF34F8FBFF312
:104820006F8F00BF00BFFEE7194800680002184AFA
:1048300010601046008800F4E0601060124A019891
:1048400010700F482030006840F470000C4920318F
:1048500008600846006840F070400860FFF754FEAA
:1048600000200C490860FBF7D1FC0B48006840F0C1
:10487000404009490860FBF7B5FC00201CBD000062
:1048800000ED00E071C20F4100E400E004120020DE
:10489000081200200012002034EF00E010B500BF25
:1048A000502080F31188BFF34F8FBFF36F8F00BF8D
:1048B00000F0D8FA18B14FF080500449086000BFEA
:1048C000002080F3118800BF10BD000004ED00E05F
:1048D0002DE9F0410446012600272246002101204F
:1048E00000F01CF805462846FFF7F4FA2846BDE814
:1048F000F0812DE9F84304460D4601274FF00008EA
:104900002B46002211460120009400F034F80646A0
:104910003046FFF7DFFA3046BDE8F8832DE9F8436B
:1049200005460E4617460DB1012000E0002050B9A3
:1049300000BF502080F31188BFF34F8FBFF36F8FFC
:1049400000BF00BFFEE705FB06F808F14800FFF7CF
:104950002FFC044664B1A14609F14809002084F8FF
:1049600046003B464A46314628460094FFF7C1FAC6
:104970002046BDE8F8832DE9F84380460E461746E9
:104980001D46DDF82090B8F1000F01D0012000E0B5
:10499000002050B900BF502080F31188BFF34F8F23
:1049A000BFF36F8F00BF00BFFEE70DB1012000E035
:1049B000002050B900BF502080F31188BFF34F8F03
:1049C000BFF36F8F00BF00BFFEE707B10EB101203C
:1049D00000E0002050B900BF502080F31188BFF3E1
:1049E0004F8FBFF36F8F00BF00BFFEE707B90EB94F
:1049F000012000E0002050B900BF502080F3118852
:104A0000BFF34F8FBFF36F8F00BF00BFFEE748209B
:104A100000900098482801D1012000E0002050B902
:104A200000BF502080F31188BFF34F8FBFF36F8F0B
:104A300000BF00BFFEE700BF2C464CB1012084F848
:104A400046004B463A46314640460094FFF751FA3D
:104A50002046BDE8F883000070B505460E462C469A
:104A600054B900BF502080F31188BFF34F8FBFF3BC
:104A70006F8F00BF00BFFEE7FFF7ACFCD4E90F1259
:104A8000206801FB0200A0600020A0632068606035
:104A9000E06B401E226C216800FB0211E160FF20E8
:104AA00084F8440084F845009EB9206908B90120C3
:104AB00000E00020A8B904F1100000F0DBFA80B19A
:104AC0004FF0805009490860BFF34F8FBFF36F8FDD
:104AD00007E004F11000FFF747FC04F12400FFF7A2
:104AE00043FCFFF7A1FC012070BD000004ED00E0D5
:104AF0002DE9FF4383B0064688461D464FF0000966
:104B0000344654B900BF502080F31188BFF34F8F53
:104B1000BFF36F8F00BF00BFFEE7B8F1000F01D1F8
:104B2000206C08B9012000E0002050B900BF5020DF
:104B300080F31188BFF34F8FBFF36F8F00BF00BFAB
:104B4000FEE7022D02D1E06B012801D1012000E037
:104B5000002050B900BF502080F31188BFF34F8F61
:104B6000BFF36F8F00BF00BFFEE700F06BF908B91D
:104B7000059808B9012000E0002050B900BF50207E
:104B800080F31188BFF34F8FBFF36F8F00BF00BF5B
:104B9000FEE700BFFFF71EFCA06BE16B884201D36C
:104BA000022D28D12A4641462046FFF7D9F807466C
:104BB000606A08B9012000E0002068B904F124000F
:104BC00000F058FA88B14FF0805032490860BFF3C6
:104BD0004F8FBFF36F8F08E03FB14FF080502D49EA
:104BE0000860BFF34F8FBFF36F8FFFF71DFC0120ED
:104BF00007B0BDE8F083059818B9FFF715FC002051
:104C0000F6E7B9F1000F04D101A8FFF7BFFC4FF0A0
:104C10000109FFF709FCFFF73FFDFFF7DBFB94F904
:104C20004400401C10B9002084F8440094F9450069
:104C3000401C10B9002084F84500FFF7F5FB05A9DA
:104C400001A800F029F8F0B92046FFF727FAA0B133
:104C500004F110000599FFF7ABFC2046FFF768FA56
:104C600000F054FA002895D14FF0805009490860AF
:104C7000BFF34F8FBFF36F8F8CE72046FFF758FAD3
:104C800000F044FA86E72046FFF752FA00F03EFAB9
:104C90000020ADE704ED00E070B505460C4655B9BF
:104CA00000BF502080F31188BFF34F8FBFF36F8F89
:104CB00000BF00BFFEE754B900BF502080F3118849
:104CC000BFF34F8FBFF36F8F00BF00BFFEE7FFF74B
:104CD00081FB124802686868131A2068401C08B9F2
:104CE000002617E00E4928680968884204D06868E1
:104CF000904201D801260DE02068984207D920682B
:104D0000C01A20602846FFF741FC002602E0002080
:104D100020600126FFF788FB304670BDB8110020E7
:104D2000CC1100202DE9FF4F85B0804689461746FB
:104D3000DDE912ABB800FFF73BFA064656B1542046
:104D4000FFF736FA04460CB1266304E03046FFF75D
:104D500089FB00E000248CB1002084F85100CDE9EB
:104D600000ABCDE902403A4649464046089BFFF772
:104D7000D3F82046FEF776FF012501E04FF0FF351E
:104D8000284609B0BDE8F08F2DE9F04F85B0074601
:104D9000884691469A46DDE90EB6109C0EB1012078
:104DA00000E0002050B900BF502080F31188BFF30D
:104DB0004F8FBFF36F8F00BF00BFFEE70CB1012024
:104DC00000E0002050B900BF502080F31188BFF3ED
:104DD0004F8FBFF36F8F00BF00BFFEE754200390DB
:104DE0000398542801D1012000E0002050B900BFF1
:104DF000502080F31188BFF34F8FBFF36F8F00BF38
:104E000000BFFEE700BFB4B1AEB125462C462E630D
:104E1000022085F85100002004A953464A46CDE9F6
:104E200000B1CDE9025041463846FFF775F82846F3
:104E3000FEF718FF01E000200490049805B0BDE8DB
:104E4000F08F00000549096809B9012005E004490F
:104E5000096809B9022000E000207047C011002055
:104E6000DC1100202DE9F0414FF0000844480068B3
:104E700000287CD143480068451C4248056015BBAA
:104E800041480068006808B9012000E0002050B9DE
:104E900000BF502080F31188BFF34F8FBFF36F8F97
:104EA00000BF00BFFEE73848076838480068364949
:104EB00008603648076036480068401C344908607E
:104EC000FFF7FCF800BF3348006885423CD300BFC1
:104ED0002D480068006808B9012000E0002020B1DA
:104EE0004FF0FF302B4908602DE027480068C0686C
:104EF000C4686668B54202D22648066023E0201DD9
:104F0000FFF712FAA06A18B104F11800FFF70CFAC3
:104F100094F82C10012088401F49096808431E4955
:104F20000860E16A01EB81011C4A02EB8100211D4E
:104F3000FFF744FA1A49E06A0968C96A8842C7D388
:104F40004FF00108C4E700BF15480068C06A00EBD5
:104F50008000124951F82000012801D94FF00108C2
:104F60001048006808B14FF0010805E0FFE70E485F
:104F70000068401C0C4908604046BDE8F081000014
:104F8000DC110020B8110020A8110020AC11002075
:104F9000CC110020D4110020BC11002044150020A9
:104FA000A4110020C8110020C411002070B50546CE
:104FB0002C460026002D55D02B480068844201D194
:104FC000012000E0002050B900BF502080F311887C
:104FD000BFF34F8FBFF36F8F00BF00BFFEE7A06C22
:104FE00050B900BF502080F31188BFF34F8FBFF33B
:104FF0006F8F00BF00BFFEE7A06C401EA064616C15
:10500000E06A88422ED0A06C60BB201DFFF78CF9AF
:1050100078B9E06A00EB8000144951F8200040B9EB
:1050200094F82C10012088401149096881431048E8
:105030000160606CE062E06AC0F10700A06194F872
:105040002C10012088400A49096808430849086073
:10505000E16A01EB8101054A02EB8100211DFFF7A6
:10506000ADF90126304670BDA41100204415002082
:10507000BC11002070B50646F068C46854B900BF82
:10508000502080F31188BFF34F8FBFF36F8F00BFA5
:1050900000BFFEE704F11800FFF746F91548006865
:1050A000A8B9201DFFF740F994F82C100120884082
:1050B00011490968084310490860E16A01EB810160
:1050C0000E4A02EB8100211DFFF778F904E004F19C
:1050D00018010B48FFF772F90A49E06A0968C96AC2
:1050E000884204D9012501200749086000E0002515
:1050F000284670BDDC110020BC11002044150020A2
:10510000F8150020A4110020C811002070B500245B
:1051100000263648006850B900BF502080F311883F
:10512000BFF34F8FBFF36F8F00BF00BFFEE7FFF7E6
:1051300051F92E480068401E2C4908600846006856
:1051400000284FD12A48006800284BD024E0294885
:10515000C068C46804F11800FFF7E6F8201DFFF7E7
:10516000E3F894F82C10012088402349096808438B
:1051700021490860E16A01EB8101204A02EB8100CC
:10518000211DFFF71BF91E49E06A0968C96A8842B8
:1051900002D301201B4908601648006808B90120A5
:1051A00000E000200028D2D00CB1FEF787FF16489F
:1051B000056865B100BFFFF755FE10B10120114928
:1051C00008606D1E002DF6D100200F4908600D48C3
:1051D000006838B1012630070C490860BFF34F8FD3
:1051E000BFF36F8FFFF720F9304670BDDC11002050
:1051F000B4110020F8150020BC1100204415002037
:10520000A4110020C8110020C411002004ED00E00A
:105210000000000000000000B45A0008A335000898
:1052200000000000000000008000000000000000FE
:10523000000000009C5A0008AD350008FDFF00008A
:1052400000000000800000000000000000000000DE
:10525000A85A0008BD390008010000000000000045
:1052600080000000000000000000000000000000BE
:105270000000000001020304060708090000000006
:10528000010203040000000000000000002F0000E5
:1052900000000700070000147F147F1400242A7FF9
:1052A0002A12006264081323003649552250000078
:1052B0000503000000001C224100000041221C00E8
:1052C0000014083E08140008083E0808000000A06A
:1052D0006000000808080808000060600000002066
:1052E00010080402003E5149453E0000427F400044
:1052F000004261514946002141454B3100181412CA
:105300007F10002745454539003C4A494930000196
:105310007109050300364949493600064949291EE5
:105320000000363600000000563600000008142247
:105330004100001414141414000041221408000247
:105340000151090600324959513E007C1211127C6C
:10535000007F49494936003E41414122007F414199
:10536000221C007F49494941007F09090901003E8B
:105370004149497A007F0808087F0000417F4100C9
:10538000002040413F01007F08142241007F40403F
:105390004040007F020C027F007F0408107F003E27
:1053A0004141413E007F09090906003E4151215E0D
:1053B000007F091929460046494949310001017F0A
:1053C0000101003F4040403F001F2040201F003FA0
:1053D0004038403F00631408146300070870080752
:1053E00000615149454300007F41410000552A5565
:1053F0002A55000041417F000004020102040040E0
:105400004040404000000102040000205454547801
:10541000007F484444380038444444200038444421
:10542000487F00385454541800087E0901020018BF
:10543000A4A4A47C007F080404780000447D4000FC
:10544000004080847D00007F102844000000417FE0
:105450004000007C04180478007C080404780038BC
:105460004444443800FC242424180018242418FC44
:10547000007C0804040800485454542000043F44AD
:105480004020003C4040207C001C2040201C003C70
:105490004030403C004428102844001CA0A0A07CC0
:1054A000004464544C4414141414141400000000F8
:1054B000000000000000000000000000000000F8F4
:1054C00000000000000000333000000000100C0657
:1054D000100C0600000000000000000040C07840F2
:1054E000C0784000043F04043F040400007088FCBE
:1054F00008300000001820FF211E0000F008F00016
:10550000E018000000211C031E211E0000F0088886
:10551000700000001E2123241927211010160E00F0
:10552000000000000000000000000000000000E09B
:1055300018040200000000071820400000020418B0
:10554000E00000000040201807000000404080F00C
:10555000804040000202010F01020200000000F042
:10556000000000000101011F010101000000000016
:105570000000000080B0700000000000000000008B
:105580000000000000010101010101010000000014
:1055900000000000003030000000000000000000AB
:1055A00080601804006018060100000000E0100888
:1055B0000810E000000F102020100F00001010F85D
:1055C000000000000020203F20200000007008089C
:1055D000088870000030282422213000003008881C
:1055E000884830000018202020110E000000C02044
:1055F00010F8000000070424243F240000F8088865
:10560000880808000019212020110E0000E01088F1
:1056100088180000000F112020110E000038080823
:10562000C83808000000003F000000000070880833
:1056300008887000001C222121221C0000E01008B4
:105640000810E0000000312222110F00000000C00D
:10565000C0000000000000303000000000000080AA
:10566000000000000000806000000000000080409A
:1056700020100800000102040810200040404040B3
:105680004040400004040404040404000008102006
:10569000408000000020100804020100007048084B
:1056A0000808F0000000003036010000C030C828B3
:1056B000E810E0000718272423140B000000C0386E
:1056C000E0000000203C23020227382008F88888E8
:1056D00088700000203F202020110E00C0300808F4
:1056E00008083800071820202010080008F80808CB
:1056F0000810E000203F202020100F0008F88888C4
:10570000E8081000203F20202320180008F888888F
:10571000E8081000203F200003000000C030080807
:105720000838000007182020221E020008F8080090
:105730000008F808203F210101213F20000808F857
:10574000080800000020203F20200000000008087A
:10575000F8080800C08080807F00000008F888C03A
:1057600028180800203F20012638200008F80800EB
:1057700000000000203F20202020300008F8F80022
:10578000F8F80800203F003F003F200008F830C034
:105790000008F808203F200007183F00E010080824
:1057A0000810E0000F10202020100F0008F8080853
:1057B0000808F000203F210101010000E010080866
:1057C0000810E0000F18242438504F0008F888888B
:1057D00088887000203F2000030C3020007088086B
:1057E000080838000038202121221C00180808F879
:1057F000080818000000203F2000000008F80800FA
:105800000008F808001F202020201F0008788800CA
:1058100000C83808000007380E010000F80800F83A
:105820000008F800033C0700073C030008186880E4
:105830008068180820302C03032C30200838C8005A
:10584000C83808000000203F2000000010080808A9
:10585000C83808002038262120201800000000FE4B
:10586000020202000000007F40404000000C30C0F7
:1058700000000000000000010638C0000002020223
:10588000FE000000004040407F00000000000402D5
:105890000202040000000000000000000000000000
:1058A00000000000808080808080808000020204F0
:1058B00000000000000000000000000000008080E8
:1058C000808000000019242222223F2008F8008056
:1058D00080000000003F112020110E000000008019
:1058E00080800000000E11202020110000000080A8
:1058F0008088F800000E112020103F2000008080DA
:1059000080800000001F222222221300008080F0ED
:10591000888888180020203F202000000000808018
:1059200080808000006B94949493600008F800805D
:1059300080800000203F210000203F2000809898B8
:10594000000000000020203F202000000000008018
:105950009898000000C08080807F000008F8000058
:1059600080808000203F24022D302000000808F8AD
:10597000000000000020203F202000008080808068
:1059800080808000203F20003F20003F80800080FA
:1059900080800000203F210000203F200000808008
:1059A00080800000001F202020201F0080800080B9
:1059B0008000000080FFA12020110E000000008068
:1059C00080808000000E112020A0FF808080800059
:1059D0008080800020203F21200001000000808086
:1059E000808080000033242424241900008080E07B
:1059F000808000000000001F202000008080000048
:105A000000808000001F202020103F208080800028
:105A10000080808000010E30080601008080008038
:105A2000008080800F300C030C300F00008080005D
:105A3000808080000020312E0E3120008080800088
:105A40000080808080818E70180601000080808038
:105A5000808080000021302C2221300000000000D6
:105A6000807C020200000000003F40400000000077
:105A7000FF00000000000000FF0000000002027CA8
:105A8000800000000040403F0000000000060101CF
:105A90000202040400000000000000006D7954615F
:105AA000736B3032000000006F6C65645461736B7F
:105AB0000000000064656661756C745461736B006E
:105AC000E05A0008000000200C120000B403000897
:105AD000FC5F00080C1200202C4400006439000810
